{
	"health.sol": {
		"HealthcareManagementSystem": {
			"abi": [
				{
					"inputs": [],
					"stateMutability": "nonpayable",
					"type": "constructor"
				},
				{
					"anonymous": false,
					"inputs": [
						{
							"indexed": false,
							"internalType": "uint256",
							"name": "patientID",
							"type": "uint256"
						},
						{
							"indexed": false,
							"internalType": "string",
							"name": "name",
							"type": "string"
						},
						{
							"indexed": false,
							"internalType": "string",
							"name": "treatmentType",
							"type": "string"
						}
					],
					"name": "PatientAdded",
					"type": "event"
				},
				{
					"anonymous": false,
					"inputs": [
						{
							"indexed": false,
							"internalType": "address",
							"name": "patient",
							"type": "address"
						},
						{
							"indexed": false,
							"internalType": "uint256",
							"name": "amount",
							"type": "uint256"
						}
					],
					"name": "PaymentReceived",
					"type": "event"
				},
				{
					"anonymous": false,
					"inputs": [
						{
							"indexed": false,
							"internalType": "address",
							"name": "patient",
							"type": "address"
						},
						{
							"indexed": false,
							"internalType": "uint256",
							"name": "patientID",
							"type": "uint256"
						},
						{
							"indexed": false,
							"internalType": "uint256",
							"name": "treatmentCost",
							"type": "uint256"
						}
					],
					"name": "treatmentChosen",
					"type": "event"
				},
				{
					"inputs": [
						{
							"internalType": "string",
							"name": "_name",
							"type": "string"
						},
						{
							"internalType": "string",
							"name": "_surname",
							"type": "string"
						},
						{
							"internalType": "string",
							"name": "_dateOfBirth",
							"type": "string"
						},
						{
							"internalType": "uint256",
							"name": "_documentNumber",
							"type": "uint256"
						},
						{
							"internalType": "string",
							"name": "_gender",
							"type": "string"
						},
						{
							"internalType": "string",
							"name": "_bloodType",
							"type": "string"
						}
					],
					"name": "addNewPatient",
					"outputs": [],
					"stateMutability": "nonpayable",
					"type": "function"
				},
				{
					"inputs": [
						{
							"internalType": "string",
							"name": "_treatmentType",
							"type": "string"
						},
						{
							"internalType": "uint256",
							"name": "_treatmentPrice",
							"type": "uint256"
						}
					],
					"name": "addNewTreatment",
					"outputs": [],
					"stateMutability": "nonpayable",
					"type": "function"
				},
				{
					"inputs": [],
					"name": "chargePayment",
					"outputs": [],
					"stateMutability": "nonpayable",
					"type": "function"
				},
				{
					"inputs": [
						{
							"internalType": "uint256",
							"name": "_treatmentID",
							"type": "uint256"
						}
					],
					"name": "getTreatment",
					"outputs": [],
					"stateMutability": "payable",
					"type": "function"
				},
				{
					"inputs": [
						{
							"internalType": "uint256",
							"name": "_treatmentID",
							"type": "uint256"
						}
					],
					"name": "getTreatmentType",
					"outputs": [
						{
							"internalType": "string",
							"name": "treatmentType",
							"type": "string"
						},
						{
							"internalType": "uint256",
							"name": "treatmentPrice",
							"type": "uint256"
						}
					],
					"stateMutability": "view",
					"type": "function"
				},
				{
					"inputs": [],
					"name": "healthcareProvider",
					"outputs": [
						{
							"internalType": "address",
							"name": "",
							"type": "address"
						}
					],
					"stateMutability": "view",
					"type": "function"
				},
				{
					"inputs": [],
					"name": "patientCount",
					"outputs": [
						{
							"internalType": "uint256",
							"name": "",
							"type": "uint256"
						}
					],
					"stateMutability": "view",
					"type": "function"
				},
				{
					"inputs": [
						{
							"internalType": "uint256",
							"name": "",
							"type": "uint256"
						}
					],
					"name": "patients",
					"outputs": [
						{
							"internalType": "string",
							"name": "name",
							"type": "string"
						},
						{
							"internalType": "string",
							"name": "surname",
							"type": "string"
						},
						{
							"internalType": "string",
							"name": "dateOfBirth",
							"type": "string"
						},
						{
							"internalType": "uint256",
							"name": "documentNumber",
							"type": "uint256"
						},
						{
							"internalType": "string",
							"name": "gender",
							"type": "string"
						},
						{
							"internalType": "string",
							"name": "bloodType",
							"type": "string"
						}
					],
					"stateMutability": "view",
					"type": "function"
				},
				{
					"inputs": [],
					"name": "totalPaymentCharged",
					"outputs": [
						{
							"internalType": "uint256",
							"name": "",
							"type": "uint256"
						}
					],
					"stateMutability": "view",
					"type": "function"
				},
				{
					"inputs": [
						{
							"internalType": "uint256",
							"name": "",
							"type": "uint256"
						}
					],
					"name": "treatment",
					"outputs": [
						{
							"internalType": "string",
							"name": "treatmentType",
							"type": "string"
						},
						{
							"internalType": "uint256",
							"name": "treatmentprice",
							"type": "uint256"
						}
					],
					"stateMutability": "view",
					"type": "function"
				},
				{
					"inputs": [],
					"name": "treatmentTypeCount",
					"outputs": [
						{
							"internalType": "uint256",
							"name": "",
							"type": "uint256"
						}
					],
					"stateMutability": "view",
					"type": "function"
				},
				{
					"inputs": [
						{
							"internalType": "uint256",
							"name": "_patientID",
							"type": "uint256"
						},
						{
							"internalType": "string",
							"name": "_name",
							"type": "string"
						},
						{
							"internalType": "string",
							"name": "_surname",
							"type": "string"
						},
						{
							"internalType": "string",
							"name": "_dateOfBirth",
							"type": "string"
						},
						{
							"internalType": "uint256",
							"name": "_documentNumber",
							"type": "uint256"
						},
						{
							"internalType": "string",
							"name": "_gender",
							"type": "string"
						},
						{
							"internalType": "string",
							"name": "_bloodType",
							"type": "string"
						}
					],
					"name": "updatePatientData",
					"outputs": [],
					"stateMutability": "nonpayable",
					"type": "function"
				}
			],
			"devdoc": {
				"kind": "dev",
				"methods": {},
				"version": 1
			},
			"evm": {
				"assembly": "    /* \"health.sol\":60:5554  contract HealthcareManagementSystem {... */\n  mstore(0x40, 0x80)\n    /* \"health.sol\":1739:1803  constructor() {... */\n  callvalue\n  dup1\n  iszero\n  tag_1\n  jumpi\n  0x00\n  dup1\n  revert\ntag_1:\n  pop\n    /* \"health.sol\":1785:1795  msg.sender */\n  caller\n    /* \"health.sol\":1764:1782  healthcareProvider */\n  0x00\n  dup1\n    /* \"health.sol\":1764:1795  healthcareProvider = msg.sender */\n  0x0100\n  exp\n  dup2\n  sload\n  dup2\n  0xffffffffffffffffffffffffffffffffffffffff\n  mul\n  not\n  and\n  swap1\n  dup4\n  0xffffffffffffffffffffffffffffffffffffffff\n  and\n  mul\n  or\n  swap1\n  sstore\n  pop\n    /* \"health.sol\":60:5554  contract HealthcareManagementSystem {... */\n  dataSize(sub_0)\n  dup1\n  dataOffset(sub_0)\n  0x00\n  codecopy\n  0x00\n  return\nstop\n\nsub_0: assembly {\n        /* \"health.sol\":60:5554  contract HealthcareManagementSystem {... */\n      mstore(0x40, 0x80)\n      jumpi(tag_1, lt(calldatasize, 0x04))\n      shr(0xe0, calldataload(0x00))\n      dup1\n      0x801f25c8\n      gt\n      tag_14\n      jumpi\n      dup1\n      0x801f25c8\n      eq\n      tag_8\n      jumpi\n      dup1\n      0x873273e9\n      eq\n      tag_9\n      jumpi\n      dup1\n      0x93119a83\n      eq\n      tag_10\n      jumpi\n      dup1\n      0xa0303c41\n      eq\n      tag_11\n      jumpi\n      dup1\n      0xd075cd8d\n      eq\n      tag_12\n      jumpi\n      dup1\n      0xf26c5f5f\n      eq\n      tag_13\n      jumpi\n      jump(tag_1)\n    tag_14:\n      dup1\n      0x23b1e21a\n      eq\n      tag_2\n      jumpi\n      dup1\n      0x24b285f9\n      eq\n      tag_3\n      jumpi\n      dup1\n      0x31df8b0d\n      eq\n      tag_4\n      jumpi\n      dup1\n      0x4917d4e0\n      eq\n      tag_5\n      jumpi\n      dup1\n      0x5830189c\n      eq\n      tag_6\n      jumpi\n      dup1\n      0x729f1ded\n      eq\n      tag_7\n      jumpi\n    tag_1:\n      0x00\n      dup1\n      revert\n        /* \"health.sol\":188:222  uint256 public totalPaymentCharged */\n    tag_2:\n      callvalue\n      dup1\n      iszero\n      tag_15\n      jumpi\n      0x00\n      dup1\n      revert\n    tag_15:\n      pop\n      tag_16\n      tag_17\n      jump\t// in\n    tag_16:\n      mload(0x40)\n      tag_18\n      swap2\n      swap1\n      tag_19\n      jump\t// in\n    tag_18:\n      mload(0x40)\n      dup1\n      swap2\n      sub\n      swap1\n      return\n        /* \"health.sol\":103:136  address public healthcareProvider */\n    tag_3:\n      callvalue\n      dup1\n      iszero\n      tag_20\n      jumpi\n      0x00\n      dup1\n      revert\n    tag_20:\n      pop\n      tag_21\n      tag_22\n      jump\t// in\n    tag_21:\n      mload(0x40)\n      tag_23\n      swap2\n      swap1\n      tag_24\n      jump\t// in\n    tag_23:\n      mload(0x40)\n      dup1\n      swap2\n      sub\n      swap1\n      return\n        /* \"health.sol\":3287:3693  function addNewTreatment(... */\n    tag_4:\n      callvalue\n      dup1\n      iszero\n      tag_25\n      jumpi\n      0x00\n      dup1\n      revert\n    tag_25:\n      pop\n      tag_26\n      0x04\n      dup1\n      calldatasize\n      sub\n      dup2\n      add\n      swap1\n      tag_27\n      swap2\n      swap1\n      tag_28\n      jump\t// in\n    tag_27:\n      tag_29\n      jump\t// in\n    tag_26:\n      stop\n        /* \"health.sol\":2570:3196  function updatePatientData(... */\n    tag_5:\n      callvalue\n      dup1\n      iszero\n      tag_30\n      jumpi\n      0x00\n      dup1\n      revert\n    tag_30:\n      pop\n      tag_31\n      0x04\n      dup1\n      calldatasize\n      sub\n      dup2\n      add\n      swap1\n      tag_32\n      swap2\n      swap1\n      tag_33\n      jump\t// in\n    tag_32:\n      tag_34\n      jump\t// in\n    tag_31:\n      stop\n        /* \"health.sol\":754:805  mapping(uint256 => TreatmentTypes) public treatment */\n    tag_6:\n      callvalue\n      dup1\n      iszero\n      tag_35\n      jumpi\n      0x00\n      dup1\n      revert\n    tag_35:\n      pop\n      tag_36\n      0x04\n      dup1\n      calldatasize\n      sub\n      dup2\n      add\n      swap1\n      tag_37\n      swap2\n      swap1\n      tag_38\n      jump\t// in\n    tag_37:\n      tag_39\n      jump\t// in\n    tag_36:\n      mload(0x40)\n      tag_40\n      swap3\n      swap2\n      swap1\n      tag_41\n      jump\t// in\n    tag_40:\n      mload(0x40)\n      dup1\n      swap2\n      sub\n      swap1\n      return\n        /* \"health.sol\":5011:5551  function getTreatmentType(uint256 _treatmentID)... */\n    tag_7:\n      callvalue\n      dup1\n      iszero\n      tag_42\n      jumpi\n      0x00\n      dup1\n      revert\n    tag_42:\n      pop\n      tag_43\n      0x04\n      dup1\n      calldatasize\n      sub\n      dup2\n      add\n      swap1\n      tag_44\n      swap2\n      swap1\n      tag_38\n      jump\t// in\n    tag_44:\n      tag_45\n      jump\t// in\n    tag_43:\n      mload(0x40)\n      tag_46\n      swap3\n      swap2\n      swap1\n      tag_41\n      jump\t// in\n    tag_46:\n      mload(0x40)\n      dup1\n      swap2\n      sub\n      swap1\n      return\n        /* \"health.sol\":4685:4950  function chargePayment() public onlyHealthcareProvider {... */\n    tag_8:\n      callvalue\n      dup1\n      iszero\n      tag_47\n      jumpi\n      0x00\n      dup1\n      revert\n    tag_47:\n      pop\n      tag_48\n      tag_49\n      jump\t// in\n    tag_48:\n      stop\n        /* \"health.sol\":1887:2488  function addNewPatient(... */\n    tag_9:\n      callvalue\n      dup1\n      iszero\n      tag_50\n      jumpi\n      0x00\n      dup1\n      revert\n    tag_50:\n      pop\n      tag_51\n      0x04\n      dup1\n      calldatasize\n      sub\n      dup2\n      add\n      swap1\n      tag_52\n      swap2\n      swap1\n      tag_53\n      jump\t// in\n    tag_52:\n      tag_54\n      jump\t// in\n    tag_51:\n      stop\n        /* \"health.sol\":931:978  mapping(uint256 => PatientData) public patients */\n    tag_10:\n      callvalue\n      dup1\n      iszero\n      tag_55\n      jumpi\n      0x00\n      dup1\n      revert\n    tag_55:\n      pop\n      tag_56\n      0x04\n      dup1\n      calldatasize\n      sub\n      dup2\n      add\n      swap1\n      tag_57\n      swap2\n      swap1\n      tag_38\n      jump\t// in\n    tag_57:\n      tag_58\n      jump\t// in\n    tag_56:\n      mload(0x40)\n      tag_59\n      swap7\n      swap6\n      swap5\n      swap4\n      swap3\n      swap2\n      swap1\n      tag_60\n      jump\t// in\n    tag_59:\n      mload(0x40)\n      dup1\n      swap2\n      sub\n      swap1\n      return\n        /* \"health.sol\":985:1012  uint256 public patientCount */\n    tag_11:\n      callvalue\n      dup1\n      iszero\n      tag_61\n      jumpi\n      0x00\n      dup1\n      revert\n    tag_61:\n      pop\n      tag_62\n      tag_63\n      jump\t// in\n    tag_62:\n      mload(0x40)\n      tag_64\n      swap2\n      swap1\n      tag_19\n      jump\t// in\n    tag_64:\n      mload(0x40)\n      dup1\n      swap2\n      sub\n      swap1\n      return\n        /* \"health.sol\":812:845  uint256 public treatmentTypeCount */\n    tag_12:\n      callvalue\n      dup1\n      iszero\n      tag_65\n      jumpi\n      0x00\n      dup1\n      revert\n    tag_65:\n      pop\n      tag_66\n      tag_67\n      jump\t// in\n    tag_66:\n      mload(0x40)\n      tag_68\n      swap2\n      swap1\n      tag_19\n      jump\t// in\n    tag_68:\n      mload(0x40)\n      dup1\n      swap2\n      sub\n      swap1\n      return\n        /* \"health.sol\":3778:4596  function getTreatment(uint256 _treatmentID) public payable {... */\n    tag_13:\n      tag_69\n      0x04\n      dup1\n      calldatasize\n      sub\n      dup2\n      add\n      swap1\n      tag_70\n      swap2\n      swap1\n      tag_38\n      jump\t// in\n    tag_70:\n      tag_71\n      jump\t// in\n    tag_69:\n      stop\n        /* \"health.sol\":188:222  uint256 public totalPaymentCharged */\n    tag_17:\n      sload(0x01)\n      dup2\n      jump\t// out\n        /* \"health.sol\":103:136  address public healthcareProvider */\n    tag_22:\n      0x00\n      dup1\n      sload\n      swap1\n      0x0100\n      exp\n      swap1\n      div\n      0xffffffffffffffffffffffffffffffffffffffff\n      and\n      dup2\n      jump\t// out\n        /* \"health.sol\":3287:3693  function addNewTreatment(... */\n    tag_29:\n        /* \"health.sol\":1510:1528  healthcareProvider */\n      0x00\n      dup1\n      sload\n      swap1\n      0x0100\n      exp\n      swap1\n      div\n      0xffffffffffffffffffffffffffffffffffffffff\n      and\n        /* \"health.sol\":1496:1528  msg.sender == healthcareProvider */\n      0xffffffffffffffffffffffffffffffffffffffff\n      and\n        /* \"health.sol\":1496:1506  msg.sender */\n      caller\n        /* \"health.sol\":1496:1528  msg.sender == healthcareProvider */\n      0xffffffffffffffffffffffffffffffffffffffff\n      and\n      eq\n        /* \"health.sol\":1474:1609  require(... */\n      tag_73\n      jumpi\n      mload(0x40)\n      0x08c379a000000000000000000000000000000000000000000000000000000000\n      dup2\n      mstore\n      0x04\n      add\n      tag_74\n      swap1\n      tag_75\n      jump\t// in\n    tag_74:\n      mload(0x40)\n      dup1\n      swap2\n      sub\n      swap1\n      revert\n    tag_73:\n        /* \"health.sol\":3527:3611  TreatmentTypes(... */\n      mload(0x40)\n      dup1\n      0x40\n      add\n      0x40\n      mstore\n      dup1\n        /* \"health.sol\":3556:3570  _treatmentType */\n      dup4\n        /* \"health.sol\":3527:3611  TreatmentTypes(... */\n      dup2\n      mstore\n      0x20\n      add\n        /* \"health.sol\":3585:3600  _treatmentPrice */\n      dup3\n        /* \"health.sol\":3527:3611  TreatmentTypes(... */\n      dup2\n      mstore\n      pop\n        /* \"health.sol\":3495:3504  treatment */\n      0x02\n        /* \"health.sol\":3495:3524  treatment[treatmentTypeCount] */\n      0x00\n        /* \"health.sol\":3505:3523  treatmentTypeCount */\n      sload(0x03)\n        /* \"health.sol\":3495:3524  treatment[treatmentTypeCount] */\n      dup2\n      mstore\n      0x20\n      add\n      swap1\n      dup2\n      mstore\n      0x20\n      add\n      0x00\n      keccak256\n        /* \"health.sol\":3495:3611  treatment[treatmentTypeCount] = TreatmentTypes(... */\n      0x00\n      dup3\n      add\n      mload\n      dup2\n      0x00\n      add\n      swap1\n      dup2\n      tag_77\n      swap2\n      swap1\n      tag_78\n      jump\t// in\n    tag_77:\n      pop\n      0x20\n      dup3\n      add\n      mload\n      dup2\n      0x01\n      add\n      sstore\n      swap1\n      pop\n      pop\n        /* \"health.sol\":3622:3640  treatmentTypeCount */\n      0x03\n      0x00\n        /* \"health.sol\":3622:3642  treatmentTypeCount++ */\n      dup2\n      sload\n      dup1\n      swap3\n      swap2\n      swap1\n      tag_79\n      swap1\n      tag_80\n      jump\t// in\n    tag_79:\n      swap2\n      swap1\n      pop\n      sstore\n      pop\n        /* \"health.sol\":3287:3693  function addNewTreatment(... */\n      pop\n      pop\n      jump\t// out\n        /* \"health.sol\":2570:3196  function updatePatientData(... */\n    tag_34:\n        /* \"health.sol\":1510:1528  healthcareProvider */\n      0x00\n      dup1\n      sload\n      swap1\n      0x0100\n      exp\n      swap1\n      div\n      0xffffffffffffffffffffffffffffffffffffffff\n      and\n        /* \"health.sol\":1496:1528  msg.sender == healthcareProvider */\n      0xffffffffffffffffffffffffffffffffffffffff\n      and\n        /* \"health.sol\":1496:1506  msg.sender */\n      caller\n        /* \"health.sol\":1496:1528  msg.sender == healthcareProvider */\n      0xffffffffffffffffffffffffffffffffffffffff\n      and\n      eq\n        /* \"health.sol\":1474:1609  require(... */\n      tag_82\n      jumpi\n      mload(0x40)\n      0x08c379a000000000000000000000000000000000000000000000000000000000\n      dup2\n      mstore\n      0x04\n      add\n      tag_83\n      swap1\n      tag_75\n      jump\t// in\n    tag_83:\n      mload(0x40)\n      dup1\n      swap2\n      sub\n      swap1\n      revert\n    tag_82:\n        /* \"health.sol\":2896:2908  patientCount */\n      sload(0x05)\n        /* \"health.sol\":2883:2893  _patientID */\n      dup8\n        /* \"health.sol\":2883:2908  _patientID < patientCount */\n      lt\n        /* \"health.sol\":2875:2936  require(_patientID < patientCount, \"Patient does not exist.\") */\n      tag_85\n      jumpi\n      mload(0x40)\n      0x08c379a000000000000000000000000000000000000000000000000000000000\n      dup2\n      mstore\n      0x04\n      add\n      tag_86\n      swap1\n      tag_87\n      jump\t// in\n    tag_86:\n      mload(0x40)\n      dup1\n      swap2\n      sub\n      swap1\n      revert\n    tag_85:\n        /* \"health.sol\":3019:3188  PatientData(... */\n      mload(0x40)\n      dup1\n      0xc0\n      add\n      0x40\n      mstore\n      dup1\n        /* \"health.sol\":3045:3050  _name */\n      dup8\n        /* \"health.sol\":3019:3188  PatientData(... */\n      dup2\n      mstore\n      0x20\n      add\n        /* \"health.sol\":3065:3073  _surname */\n      dup7\n        /* \"health.sol\":3019:3188  PatientData(... */\n      dup2\n      mstore\n      0x20\n      add\n        /* \"health.sol\":3088:3100  _dateOfBirth */\n      dup6\n        /* \"health.sol\":3019:3188  PatientData(... */\n      dup2\n      mstore\n      0x20\n      add\n        /* \"health.sol\":3115:3130  _documentNumber */\n      dup5\n        /* \"health.sol\":3019:3188  PatientData(... */\n      dup2\n      mstore\n      0x20\n      add\n        /* \"health.sol\":3145:3152  _gender */\n      dup4\n        /* \"health.sol\":3019:3188  PatientData(... */\n      dup2\n      mstore\n      0x20\n      add\n        /* \"health.sol\":3167:3177  _bloodType */\n      dup3\n        /* \"health.sol\":3019:3188  PatientData(... */\n      dup2\n      mstore\n      pop\n        /* \"health.sol\":2996:3004  patients */\n      0x04\n        /* \"health.sol\":2996:3016  patients[_patientID] */\n      0x00\n        /* \"health.sol\":3005:3015  _patientID */\n      dup10\n        /* \"health.sol\":2996:3016  patients[_patientID] */\n      dup2\n      mstore\n      0x20\n      add\n      swap1\n      dup2\n      mstore\n      0x20\n      add\n      0x00\n      keccak256\n        /* \"health.sol\":2996:3188  patients[_patientID] = PatientData(... */\n      0x00\n      dup3\n      add\n      mload\n      dup2\n      0x00\n      add\n      swap1\n      dup2\n      tag_88\n      swap2\n      swap1\n      tag_78\n      jump\t// in\n    tag_88:\n      pop\n      0x20\n      dup3\n      add\n      mload\n      dup2\n      0x01\n      add\n      swap1\n      dup2\n      tag_89\n      swap2\n      swap1\n      tag_78\n      jump\t// in\n    tag_89:\n      pop\n      0x40\n      dup3\n      add\n      mload\n      dup2\n      0x02\n      add\n      swap1\n      dup2\n      tag_90\n      swap2\n      swap1\n      tag_78\n      jump\t// in\n    tag_90:\n      pop\n      0x60\n      dup3\n      add\n      mload\n      dup2\n      0x03\n      add\n      sstore\n      0x80\n      dup3\n      add\n      mload\n      dup2\n      0x04\n      add\n      swap1\n      dup2\n      tag_91\n      swap2\n      swap1\n      tag_78\n      jump\t// in\n    tag_91:\n      pop\n      0xa0\n      dup3\n      add\n      mload\n      dup2\n      0x05\n      add\n      swap1\n      dup2\n      tag_92\n      swap2\n      swap1\n      tag_78\n      jump\t// in\n    tag_92:\n      pop\n      swap1\n      pop\n      pop\n        /* \"health.sol\":2570:3196  function updatePatientData(... */\n      pop\n      pop\n      pop\n      pop\n      pop\n      pop\n      pop\n      jump\t// out\n        /* \"health.sol\":754:805  mapping(uint256 => TreatmentTypes) public treatment */\n    tag_39:\n      mstore(0x20, 0x02)\n      dup1\n      0x00\n      mstore\n      keccak256(0x00, 0x40)\n      0x00\n      swap2\n      pop\n      swap1\n      pop\n      dup1\n      0x00\n      add\n      dup1\n      sload\n      tag_93\n      swap1\n      tag_94\n      jump\t// in\n    tag_93:\n      dup1\n      0x1f\n      add\n      0x20\n      dup1\n      swap2\n      div\n      mul\n      0x20\n      add\n      mload(0x40)\n      swap1\n      dup2\n      add\n      0x40\n      mstore\n      dup1\n      swap3\n      swap2\n      swap1\n      dup2\n      dup2\n      mstore\n      0x20\n      add\n      dup3\n      dup1\n      sload\n      tag_95\n      swap1\n      tag_94\n      jump\t// in\n    tag_95:\n      dup1\n      iszero\n      tag_96\n      jumpi\n      dup1\n      0x1f\n      lt\n      tag_97\n      jumpi\n      0x0100\n      dup1\n      dup4\n      sload\n      div\n      mul\n      dup4\n      mstore\n      swap2\n      0x20\n      add\n      swap2\n      jump(tag_96)\n    tag_97:\n      dup3\n      add\n      swap2\n      swap1\n      0x00\n      mstore\n      keccak256(0x00, 0x20)\n      swap1\n    tag_98:\n      dup2\n      sload\n      dup2\n      mstore\n      swap1\n      0x01\n      add\n      swap1\n      0x20\n      add\n      dup1\n      dup4\n      gt\n      tag_98\n      jumpi\n      dup3\n      swap1\n      sub\n      0x1f\n      and\n      dup3\n      add\n      swap2\n    tag_96:\n      pop\n      pop\n      pop\n      pop\n      pop\n      swap1\n      dup1\n      0x01\n      add\n      sload\n      swap1\n      pop\n      dup3\n      jump\t// out\n        /* \"health.sol\":5011:5551  function getTreatmentType(uint256 _treatmentID)... */\n    tag_45:\n        /* \"health.sol\":5107:5134  string memory treatmentType */\n      0x60\n        /* \"health.sol\":5136:5158  uint256 treatmentPrice */\n      0x00\n        /* \"health.sol\":5244:5262  treatmentTypeCount */\n      sload(0x03)\n        /* \"health.sol\":5229:5241  _treatmentID */\n      dup4\n        /* \"health.sol\":5229:5262  _treatmentID < treatmentTypeCount */\n      lt\n        /* \"health.sol\":5221:5288  require(_treatmentID < treatmentTypeCount, \"Invalid treatment ID.\") */\n      tag_100\n      jumpi\n      mload(0x40)\n      0x08c379a000000000000000000000000000000000000000000000000000000000\n      dup2\n      mstore\n      0x04\n      add\n      tag_101\n      swap1\n      tag_102\n      jump\t// in\n    tag_101:\n      mload(0x40)\n      dup1\n      swap2\n      sub\n      swap1\n      revert\n    tag_100:\n        /* \"health.sol\":5356:5395  TreatmentTypes memory selectedTreatment */\n      0x00\n        /* \"health.sol\":5398:5407  treatment */\n      0x02\n        /* \"health.sol\":5398:5421  treatment[_treatmentID] */\n      0x00\n        /* \"health.sol\":5408:5420  _treatmentID */\n      dup6\n        /* \"health.sol\":5398:5421  treatment[_treatmentID] */\n      dup2\n      mstore\n      0x20\n      add\n      swap1\n      dup2\n      mstore\n      0x20\n      add\n      0x00\n      keccak256\n        /* \"health.sol\":5356:5421  TreatmentTypes memory selectedTreatment = treatment[_treatmentID] */\n      mload(0x40)\n      dup1\n      0x40\n      add\n      0x40\n      mstore\n      swap1\n      dup2\n      0x00\n      dup3\n      add\n      dup1\n      sload\n      tag_103\n      swap1\n      tag_94\n      jump\t// in\n    tag_103:\n      dup1\n      0x1f\n      add\n      0x20\n      dup1\n      swap2\n      div\n      mul\n      0x20\n      add\n      mload(0x40)\n      swap1\n      dup2\n      add\n      0x40\n      mstore\n      dup1\n      swap3\n      swap2\n      swap1\n      dup2\n      dup2\n      mstore\n      0x20\n      add\n      dup3\n      dup1\n      sload\n      tag_104\n      swap1\n      tag_94\n      jump\t// in\n    tag_104:\n      dup1\n      iszero\n      tag_105\n      jumpi\n      dup1\n      0x1f\n      lt\n      tag_106\n      jumpi\n      0x0100\n      dup1\n      dup4\n      sload\n      div\n      mul\n      dup4\n      mstore\n      swap2\n      0x20\n      add\n      swap2\n      jump(tag_105)\n    tag_106:\n      dup3\n      add\n      swap2\n      swap1\n      0x00\n      mstore\n      keccak256(0x00, 0x20)\n      swap1\n    tag_107:\n      dup2\n      sload\n      dup2\n      mstore\n      swap1\n      0x01\n      add\n      swap1\n      0x20\n      add\n      dup1\n      dup4\n      gt\n      tag_107\n      jumpi\n      dup3\n      swap1\n      sub\n      0x1f\n      and\n      dup3\n      add\n      swap2\n    tag_105:\n      pop\n      pop\n      pop\n      pop\n      pop\n      dup2\n      mstore\n      0x20\n      add\n      0x01\n      dup3\n      add\n      sload\n      dup2\n      mstore\n      pop\n      pop\n      swap1\n      pop\n        /* \"health.sol\":5454:5471  selectedTreatment */\n      dup1\n        /* \"health.sol\":5454:5485  selectedTreatment.treatmentType */\n      0x00\n      add\n      mload\n        /* \"health.sol\":5500:5517  selectedTreatment */\n      dup2\n        /* \"health.sol\":5500:5532  selectedTreatment.treatmentprice */\n      0x20\n      add\n      mload\n        /* \"health.sol\":5432:5543  return (... */\n      swap3\n      pop\n      swap3\n      pop\n      pop\n        /* \"health.sol\":5011:5551  function getTreatmentType(uint256 _treatmentID)... */\n      swap2\n      pop\n      swap2\n      jump\t// out\n        /* \"health.sol\":4685:4950  function chargePayment() public onlyHealthcareProvider {... */\n    tag_49:\n        /* \"health.sol\":1510:1528  healthcareProvider */\n      0x00\n      dup1\n      sload\n      swap1\n      0x0100\n      exp\n      swap1\n      div\n      0xffffffffffffffffffffffffffffffffffffffff\n      and\n        /* \"health.sol\":1496:1528  msg.sender == healthcareProvider */\n      0xffffffffffffffffffffffffffffffffffffffff\n      and\n        /* \"health.sol\":1496:1506  msg.sender */\n      caller\n        /* \"health.sol\":1496:1528  msg.sender == healthcareProvider */\n      0xffffffffffffffffffffffffffffffffffffffff\n      and\n      eq\n        /* \"health.sol\":1474:1609  require(... */\n      tag_109\n      jumpi\n      mload(0x40)\n      0x08c379a000000000000000000000000000000000000000000000000000000000\n      dup2\n      mstore\n      0x04\n      add\n      tag_110\n      swap1\n      tag_75\n      jump\t// in\n    tag_110:\n      mload(0x40)\n      dup1\n      swap2\n      sub\n      swap1\n      revert\n    tag_109:\n        /* \"health.sol\":4751:4762  uint amount */\n      0x00\n        /* \"health.sol\":4765:4784  totalPaymentCharged */\n      sload(0x01)\n        /* \"health.sol\":4751:4784  uint amount = totalPaymentCharged */\n      swap1\n      pop\n        /* \"health.sol\":4817:4818  0 */\n      0x00\n        /* \"health.sol\":4795:4814  totalPaymentCharged */\n      0x01\n        /* \"health.sol\":4795:4818  totalPaymentCharged = 0 */\n      dup2\n      swap1\n      sstore\n      pop\n        /* \"health.sol\":4872:4890  healthcareProvider */\n      0x00\n      dup1\n      sload\n      swap1\n      0x0100\n      exp\n      swap1\n      div\n      0xffffffffffffffffffffffffffffffffffffffff\n      and\n        /* \"health.sol\":4864:4900  payable(healthcareProvider).transfer */\n      0xffffffffffffffffffffffffffffffffffffffff\n      and\n        /* \"health.sol\":4864:4908  payable(healthcareProvider).transfer(amount) */\n      0x08fc\n        /* \"health.sol\":4901:4907  amount */\n      dup3\n        /* \"health.sol\":4864:4908  payable(healthcareProvider).transfer(amount) */\n      swap1\n      dup2\n      iszero\n      mul\n      swap1\n      mload(0x40)\n      0x00\n      mload(0x40)\n      dup1\n      dup4\n      sub\n      dup2\n      dup6\n      dup9\n      dup9\n      call\n      swap4\n      pop\n      pop\n      pop\n      pop\n      iszero\n      dup1\n      iszero\n      tag_113\n      jumpi\n      returndatasize\n      0x00\n      dup1\n      returndatacopy\n      revert(0x00, returndatasize)\n    tag_113:\n      pop\n        /* \"health.sol\":4740:4950  {... */\n      pop\n        /* \"health.sol\":4685:4950  function chargePayment() public onlyHealthcareProvider {... */\n      jump\t// out\n        /* \"health.sol\":1887:2488  function addNewPatient(... */\n    tag_54:\n        /* \"health.sol\":1510:1528  healthcareProvider */\n      0x00\n      dup1\n      sload\n      swap1\n      0x0100\n      exp\n      swap1\n      div\n      0xffffffffffffffffffffffffffffffffffffffff\n      and\n        /* \"health.sol\":1496:1528  msg.sender == healthcareProvider */\n      0xffffffffffffffffffffffffffffffffffffffff\n      and\n        /* \"health.sol\":1496:1506  msg.sender */\n      caller\n        /* \"health.sol\":1496:1528  msg.sender == healthcareProvider */\n      0xffffffffffffffffffffffffffffffffffffffff\n      and\n      eq\n        /* \"health.sol\":1474:1609  require(... */\n      tag_115\n      jumpi\n      mload(0x40)\n      0x08c379a000000000000000000000000000000000000000000000000000000000\n      dup2\n      mstore\n      0x04\n      add\n      tag_116\n      swap1\n      tag_75\n      jump\t// in\n    tag_116:\n      mload(0x40)\n      dup1\n      swap2\n      sub\n      swap1\n      revert\n    tag_115:\n        /* \"health.sol\":2243:2412  PatientData(... */\n      mload(0x40)\n      dup1\n      0xc0\n      add\n      0x40\n      mstore\n      dup1\n        /* \"health.sol\":2269:2274  _name */\n      dup8\n        /* \"health.sol\":2243:2412  PatientData(... */\n      dup2\n      mstore\n      0x20\n      add\n        /* \"health.sol\":2289:2297  _surname */\n      dup7\n        /* \"health.sol\":2243:2412  PatientData(... */\n      dup2\n      mstore\n      0x20\n      add\n        /* \"health.sol\":2312:2324  _dateOfBirth */\n      dup6\n        /* \"health.sol\":2243:2412  PatientData(... */\n      dup2\n      mstore\n      0x20\n      add\n        /* \"health.sol\":2339:2354  _documentNumber */\n      dup5\n        /* \"health.sol\":2243:2412  PatientData(... */\n      dup2\n      mstore\n      0x20\n      add\n        /* \"health.sol\":2369:2376  _gender */\n      dup4\n        /* \"health.sol\":2243:2412  PatientData(... */\n      dup2\n      mstore\n      0x20\n      add\n        /* \"health.sol\":2391:2401  _bloodType */\n      dup3\n        /* \"health.sol\":2243:2412  PatientData(... */\n      dup2\n      mstore\n      pop\n        /* \"health.sol\":2218:2226  patients */\n      0x04\n        /* \"health.sol\":2218:2240  patients[patientCount] */\n      0x00\n        /* \"health.sol\":2227:2239  patientCount */\n      sload(0x05)\n        /* \"health.sol\":2218:2240  patients[patientCount] */\n      dup2\n      mstore\n      0x20\n      add\n      swap1\n      dup2\n      mstore\n      0x20\n      add\n      0x00\n      keccak256\n        /* \"health.sol\":2218:2412  patients[patientCount] = PatientData(... */\n      0x00\n      dup3\n      add\n      mload\n      dup2\n      0x00\n      add\n      swap1\n      dup2\n      tag_118\n      swap2\n      swap1\n      tag_78\n      jump\t// in\n    tag_118:\n      pop\n      0x20\n      dup3\n      add\n      mload\n      dup2\n      0x01\n      add\n      swap1\n      dup2\n      tag_119\n      swap2\n      swap1\n      tag_78\n      jump\t// in\n    tag_119:\n      pop\n      0x40\n      dup3\n      add\n      mload\n      dup2\n      0x02\n      add\n      swap1\n      dup2\n      tag_120\n      swap2\n      swap1\n      tag_78\n      jump\t// in\n    tag_120:\n      pop\n      0x60\n      dup3\n      add\n      mload\n      dup2\n      0x03\n      add\n      sstore\n      0x80\n      dup3\n      add\n      mload\n      dup2\n      0x04\n      add\n      swap1\n      dup2\n      tag_121\n      swap2\n      swap1\n      tag_78\n      jump\t// in\n    tag_121:\n      pop\n      0xa0\n      dup3\n      add\n      mload\n      dup2\n      0x05\n      add\n      swap1\n      dup2\n      tag_122\n      swap2\n      swap1\n      tag_78\n      jump\t// in\n    tag_122:\n      pop\n      swap1\n      pop\n      pop\n        /* \"health.sol\":2425:2437  patientCount */\n      0x05\n      0x00\n        /* \"health.sol\":2425:2439  patientCount++ */\n      dup2\n      sload\n      dup1\n      swap3\n      swap2\n      swap1\n      tag_123\n      swap1\n      tag_80\n      jump\t// in\n    tag_123:\n      swap2\n      swap1\n      pop\n      sstore\n      pop\n        /* \"health.sol\":1887:2488  function addNewPatient(... */\n      pop\n      pop\n      pop\n      pop\n      pop\n      pop\n      jump\t// out\n        /* \"health.sol\":931:978  mapping(uint256 => PatientData) public patients */\n    tag_58:\n      mstore(0x20, 0x04)\n      dup1\n      0x00\n      mstore\n      keccak256(0x00, 0x40)\n      0x00\n      swap2\n      pop\n      swap1\n      pop\n      dup1\n      0x00\n      add\n      dup1\n      sload\n      tag_124\n      swap1\n      tag_94\n      jump\t// in\n    tag_124:\n      dup1\n      0x1f\n      add\n      0x20\n      dup1\n      swap2\n      div\n      mul\n      0x20\n      add\n      mload(0x40)\n      swap1\n      dup2\n      add\n      0x40\n      mstore\n      dup1\n      swap3\n      swap2\n      swap1\n      dup2\n      dup2\n      mstore\n      0x20\n      add\n      dup3\n      dup1\n      sload\n      tag_125\n      swap1\n      tag_94\n      jump\t// in\n    tag_125:\n      dup1\n      iszero\n      tag_126\n      jumpi\n      dup1\n      0x1f\n      lt\n      tag_127\n      jumpi\n      0x0100\n      dup1\n      dup4\n      sload\n      div\n      mul\n      dup4\n      mstore\n      swap2\n      0x20\n      add\n      swap2\n      jump(tag_126)\n    tag_127:\n      dup3\n      add\n      swap2\n      swap1\n      0x00\n      mstore\n      keccak256(0x00, 0x20)\n      swap1\n    tag_128:\n      dup2\n      sload\n      dup2\n      mstore\n      swap1\n      0x01\n      add\n      swap1\n      0x20\n      add\n      dup1\n      dup4\n      gt\n      tag_128\n      jumpi\n      dup3\n      swap1\n      sub\n      0x1f\n      and\n      dup3\n      add\n      swap2\n    tag_126:\n      pop\n      pop\n      pop\n      pop\n      pop\n      swap1\n      dup1\n      0x01\n      add\n      dup1\n      sload\n      tag_129\n      swap1\n      tag_94\n      jump\t// in\n    tag_129:\n      dup1\n      0x1f\n      add\n      0x20\n      dup1\n      swap2\n      div\n      mul\n      0x20\n      add\n      mload(0x40)\n      swap1\n      dup2\n      add\n      0x40\n      mstore\n      dup1\n      swap3\n      swap2\n      swap1\n      dup2\n      dup2\n      mstore\n      0x20\n      add\n      dup3\n      dup1\n      sload\n      tag_130\n      swap1\n      tag_94\n      jump\t// in\n    tag_130:\n      dup1\n      iszero\n      tag_131\n      jumpi\n      dup1\n      0x1f\n      lt\n      tag_132\n      jumpi\n      0x0100\n      dup1\n      dup4\n      sload\n      div\n      mul\n      dup4\n      mstore\n      swap2\n      0x20\n      add\n      swap2\n      jump(tag_131)\n    tag_132:\n      dup3\n      add\n      swap2\n      swap1\n      0x00\n      mstore\n      keccak256(0x00, 0x20)\n      swap1\n    tag_133:\n      dup2\n      sload\n      dup2\n      mstore\n      swap1\n      0x01\n      add\n      swap1\n      0x20\n      add\n      dup1\n      dup4\n      gt\n      tag_133\n      jumpi\n      dup3\n      swap1\n      sub\n      0x1f\n      and\n      dup3\n      add\n      swap2\n    tag_131:\n      pop\n      pop\n      pop\n      pop\n      pop\n      swap1\n      dup1\n      0x02\n      add\n      dup1\n      sload\n      tag_134\n      swap1\n      tag_94\n      jump\t// in\n    tag_134:\n      dup1\n      0x1f\n      add\n      0x20\n      dup1\n      swap2\n      div\n      mul\n      0x20\n      add\n      mload(0x40)\n      swap1\n      dup2\n      add\n      0x40\n      mstore\n      dup1\n      swap3\n      swap2\n      swap1\n      dup2\n      dup2\n      mstore\n      0x20\n      add\n      dup3\n      dup1\n      sload\n      tag_135\n      swap1\n      tag_94\n      jump\t// in\n    tag_135:\n      dup1\n      iszero\n      tag_136\n      jumpi\n      dup1\n      0x1f\n      lt\n      tag_137\n      jumpi\n      0x0100\n      dup1\n      dup4\n      sload\n      div\n      mul\n      dup4\n      mstore\n      swap2\n      0x20\n      add\n      swap2\n      jump(tag_136)\n    tag_137:\n      dup3\n      add\n      swap2\n      swap1\n      0x00\n      mstore\n      keccak256(0x00, 0x20)\n      swap1\n    tag_138:\n      dup2\n      sload\n      dup2\n      mstore\n      swap1\n      0x01\n      add\n      swap1\n      0x20\n      add\n      dup1\n      dup4\n      gt\n      tag_138\n      jumpi\n      dup3\n      swap1\n      sub\n      0x1f\n      and\n      dup3\n      add\n      swap2\n    tag_136:\n      pop\n      pop\n      pop\n      pop\n      pop\n      swap1\n      dup1\n      0x03\n      add\n      sload\n      swap1\n      dup1\n      0x04\n      add\n      dup1\n      sload\n      tag_139\n      swap1\n      tag_94\n      jump\t// in\n    tag_139:\n      dup1\n      0x1f\n      add\n      0x20\n      dup1\n      swap2\n      div\n      mul\n      0x20\n      add\n      mload(0x40)\n      swap1\n      dup2\n      add\n      0x40\n      mstore\n      dup1\n      swap3\n      swap2\n      swap1\n      dup2\n      dup2\n      mstore\n      0x20\n      add\n      dup3\n      dup1\n      sload\n      tag_140\n      swap1\n      tag_94\n      jump\t// in\n    tag_140:\n      dup1\n      iszero\n      tag_141\n      jumpi\n      dup1\n      0x1f\n      lt\n      tag_142\n      jumpi\n      0x0100\n      dup1\n      dup4\n      sload\n      div\n      mul\n      dup4\n      mstore\n      swap2\n      0x20\n      add\n      swap2\n      jump(tag_141)\n    tag_142:\n      dup3\n      add\n      swap2\n      swap1\n      0x00\n      mstore\n      keccak256(0x00, 0x20)\n      swap1\n    tag_143:\n      dup2\n      sload\n      dup2\n      mstore\n      swap1\n      0x01\n      add\n      swap1\n      0x20\n      add\n      dup1\n      dup4\n      gt\n      tag_143\n      jumpi\n      dup3\n      swap1\n      sub\n      0x1f\n      and\n      dup3\n      add\n      swap2\n    tag_141:\n      pop\n      pop\n      pop\n      pop\n      pop\n      swap1\n      dup1\n      0x05\n      add\n      dup1\n      sload\n      tag_144\n      swap1\n      tag_94\n      jump\t// in\n    tag_144:\n      dup1\n      0x1f\n      add\n      0x20\n      dup1\n      swap2\n      div\n      mul\n      0x20\n      add\n      mload(0x40)\n      swap1\n      dup2\n      add\n      0x40\n      mstore\n      dup1\n      swap3\n      swap2\n      swap1\n      dup2\n      dup2\n      mstore\n      0x20\n      add\n      dup3\n      dup1\n      sload\n      tag_145\n      swap1\n      tag_94\n      jump\t// in\n    tag_145:\n      dup1\n      iszero\n      tag_146\n      jumpi\n      dup1\n      0x1f\n      lt\n      tag_147\n      jumpi\n      0x0100\n      dup1\n      dup4\n      sload\n      div\n      mul\n      dup4\n      mstore\n      swap2\n      0x20\n      add\n      swap2\n      jump(tag_146)\n    tag_147:\n      dup3\n      add\n      swap2\n      swap1\n      0x00\n      mstore\n      keccak256(0x00, 0x20)\n      swap1\n    tag_148:\n      dup2\n      sload\n      dup2\n      mstore\n      swap1\n      0x01\n      add\n      swap1\n      0x20\n      add\n      dup1\n      dup4\n      gt\n      tag_148\n      jumpi\n      dup3\n      swap1\n      sub\n      0x1f\n      and\n      dup3\n      add\n      swap2\n    tag_146:\n      pop\n      pop\n      pop\n      pop\n      pop\n      swap1\n      pop\n      dup7\n      jump\t// out\n        /* \"health.sol\":985:1012  uint256 public patientCount */\n    tag_63:\n      sload(0x05)\n      dup2\n      jump\t// out\n        /* \"health.sol\":812:845  uint256 public treatmentTypeCount */\n    tag_67:\n      sload(0x03)\n      dup2\n      jump\t// out\n        /* \"health.sol\":3778:4596  function getTreatment(uint256 _treatmentID) public payable {... */\n    tag_71:\n        /* \"health.sol\":3916:3934  treatmentTypeCount */\n      sload(0x03)\n        /* \"health.sol\":3901:3913  _treatmentID */\n      dup2\n        /* \"health.sol\":3901:3934  _treatmentID < treatmentTypeCount */\n      lt\n        /* \"health.sol\":3893:3960  require(_treatmentID < treatmentTypeCount, \"Invalid treatment ID.\") */\n      tag_150\n      jumpi\n      mload(0x40)\n      0x08c379a000000000000000000000000000000000000000000000000000000000\n      dup2\n      mstore\n      0x04\n      add\n      tag_151\n      swap1\n      tag_102\n      jump\t// in\n    tag_151:\n      mload(0x40)\n      dup1\n      swap2\n      sub\n      swap1\n      revert\n    tag_150:\n        /* \"health.sol\":4021:4060  TreatmentTypes memory selectedTreatment */\n      0x00\n        /* \"health.sol\":4063:4072  treatment */\n      0x02\n        /* \"health.sol\":4063:4086  treatment[_treatmentID] */\n      0x00\n        /* \"health.sol\":4073:4085  _treatmentID */\n      dup4\n        /* \"health.sol\":4063:4086  treatment[_treatmentID] */\n      dup2\n      mstore\n      0x20\n      add\n      swap1\n      dup2\n      mstore\n      0x20\n      add\n      0x00\n      keccak256\n        /* \"health.sol\":4021:4086  TreatmentTypes memory selectedTreatment = treatment[_treatmentID] */\n      mload(0x40)\n      dup1\n      0x40\n      add\n      0x40\n      mstore\n      swap1\n      dup2\n      0x00\n      dup3\n      add\n      dup1\n      sload\n      tag_152\n      swap1\n      tag_94\n      jump\t// in\n    tag_152:\n      dup1\n      0x1f\n      add\n      0x20\n      dup1\n      swap2\n      div\n      mul\n      0x20\n      add\n      mload(0x40)\n      swap1\n      dup2\n      add\n      0x40\n      mstore\n      dup1\n      swap3\n      swap2\n      swap1\n      dup2\n      dup2\n      mstore\n      0x20\n      add\n      dup3\n      dup1\n      sload\n      tag_153\n      swap1\n      tag_94\n      jump\t// in\n    tag_153:\n      dup1\n      iszero\n      tag_154\n      jumpi\n      dup1\n      0x1f\n      lt\n      tag_155\n      jumpi\n      0x0100\n      dup1\n      dup4\n      sload\n      div\n      mul\n      dup4\n      mstore\n      swap2\n      0x20\n      add\n      swap2\n      jump(tag_154)\n    tag_155:\n      dup3\n      add\n      swap2\n      swap1\n      0x00\n      mstore\n      keccak256(0x00, 0x20)\n      swap1\n    tag_156:\n      dup2\n      sload\n      dup2\n      mstore\n      swap1\n      0x01\n      add\n      swap1\n      0x20\n      add\n      dup1\n      dup4\n      gt\n      tag_156\n      jumpi\n      dup3\n      swap1\n      sub\n      0x1f\n      and\n      dup3\n      add\n      swap2\n    tag_154:\n      pop\n      pop\n      pop\n      pop\n      pop\n      dup2\n      mstore\n      0x20\n      add\n      0x01\n      dup3\n      add\n      sload\n      dup2\n      mstore\n      pop\n      pop\n      swap1\n      pop\n        /* \"health.sol\":4097:4118  uint256 treatmentCost */\n      0x00\n        /* \"health.sol\":4121:4138  selectedTreatment */\n      dup2\n        /* \"health.sol\":4121:4153  selectedTreatment.treatmentprice */\n      0x20\n      add\n      mload\n        /* \"health.sol\":4097:4153  uint256 treatmentCost = selectedTreatment.treatmentprice */\n      swap1\n      pop\n        /* \"health.sol\":4247:4260  treatmentCost */\n      dup1\n        /* \"health.sol\":4234:4243  msg.value */\n      callvalue\n        /* \"health.sol\":4234:4260  msg.value == treatmentCost */\n      eq\n        /* \"health.sol\":4226:4290  require(msg.value == treatmentCost, \"Incorrect payment amount.\") */\n      tag_157\n      jumpi\n      mload(0x40)\n      0x08c379a000000000000000000000000000000000000000000000000000000000\n      dup2\n      mstore\n      0x04\n      add\n      tag_158\n      swap1\n      tag_159\n      jump\t// in\n    tag_158:\n      mload(0x40)\n      dup1\n      swap2\n      sub\n      swap1\n      revert\n    tag_157:\n        /* \"health.sol\":4382:4391  msg.value */\n      callvalue\n        /* \"health.sol\":4359:4378  totalPaymentCharged */\n      0x01\n      0x00\n        /* \"health.sol\":4359:4391  totalPaymentCharged += msg.value */\n      dup3\n      dup3\n      sload\n      tag_160\n      swap2\n      swap1\n      tag_161\n      jump\t// in\n    tag_160:\n      swap3\n      pop\n      pop\n      dup2\n      swap1\n      sstore\n      pop\n        /* \"health.sol\":4478:4534  treatmentChosen(msg.sender, _treatmentID, treatmentCost) */\n      0x1043881dbbf263d8baa2517a839cebf6c342c6000321b5ca43b96040d90d240c\n        /* \"health.sol\":4494:4504  msg.sender */\n      caller\n        /* \"health.sol\":4506:4518  _treatmentID */\n      dup5\n        /* \"health.sol\":4520:4533  treatmentCost */\n      dup4\n        /* \"health.sol\":4478:4534  treatmentChosen(msg.sender, _treatmentID, treatmentCost) */\n      mload(0x40)\n      tag_162\n      swap4\n      swap3\n      swap2\n      swap1\n      tag_163\n      jump\t// in\n    tag_162:\n      mload(0x40)\n      dup1\n      swap2\n      sub\n      swap1\n      log1\n        /* \"health.sol\":4550:4588  PaymentReceived(msg.sender, msg.value) */\n      0x6ef95f06320e7a25a04a175ca677b7052bdd97131872c2192525a629f51be770\n        /* \"health.sol\":4566:4576  msg.sender */\n      caller\n        /* \"health.sol\":4578:4587  msg.value */\n      callvalue\n        /* \"health.sol\":4550:4588  PaymentReceived(msg.sender, msg.value) */\n      mload(0x40)\n      tag_164\n      swap3\n      swap2\n      swap1\n      tag_165\n      jump\t// in\n    tag_164:\n      mload(0x40)\n      dup1\n      swap2\n      sub\n      swap1\n      log1\n        /* \"health.sol\":3837:4596  {... */\n      pop\n      pop\n        /* \"health.sol\":3778:4596  function getTreatment(uint256 _treatmentID) public payable {... */\n      pop\n      jump\t// out\n        /* \"#utility.yul\":7:84   */\n    tag_166:\n        /* \"#utility.yul\":44:51   */\n      0x00\n        /* \"#utility.yul\":73:78   */\n      dup2\n        /* \"#utility.yul\":62:78   */\n      swap1\n      pop\n        /* \"#utility.yul\":7:84   */\n      swap2\n      swap1\n      pop\n      jump\t// out\n        /* \"#utility.yul\":90:208   */\n    tag_167:\n        /* \"#utility.yul\":177:201   */\n      tag_218\n        /* \"#utility.yul\":195:200   */\n      dup2\n        /* \"#utility.yul\":177:201   */\n      tag_166\n      jump\t// in\n    tag_218:\n        /* \"#utility.yul\":172:175   */\n      dup3\n        /* \"#utility.yul\":165:202   */\n      mstore\n        /* \"#utility.yul\":90:208   */\n      pop\n      pop\n      jump\t// out\n        /* \"#utility.yul\":214:436   */\n    tag_19:\n        /* \"#utility.yul\":307:311   */\n      0x00\n        /* \"#utility.yul\":345:347   */\n      0x20\n        /* \"#utility.yul\":334:343   */\n      dup3\n        /* \"#utility.yul\":330:348   */\n      add\n        /* \"#utility.yul\":322:348   */\n      swap1\n      pop\n        /* \"#utility.yul\":358:429   */\n      tag_220\n        /* \"#utility.yul\":426:427   */\n      0x00\n        /* \"#utility.yul\":415:424   */\n      dup4\n        /* \"#utility.yul\":411:428   */\n      add\n        /* \"#utility.yul\":402:408   */\n      dup5\n        /* \"#utility.yul\":358:429   */\n      tag_167\n      jump\t// in\n    tag_220:\n        /* \"#utility.yul\":214:436   */\n      swap3\n      swap2\n      pop\n      pop\n      jump\t// out\n        /* \"#utility.yul\":442:568   */\n    tag_168:\n        /* \"#utility.yul\":479:486   */\n      0x00\n        /* \"#utility.yul\":519:561   */\n      0xffffffffffffffffffffffffffffffffffffffff\n        /* \"#utility.yul\":512:517   */\n      dup3\n        /* \"#utility.yul\":508:562   */\n      and\n        /* \"#utility.yul\":497:562   */\n      swap1\n      pop\n        /* \"#utility.yul\":442:568   */\n      swap2\n      swap1\n      pop\n      jump\t// out\n        /* \"#utility.yul\":574:670   */\n    tag_169:\n        /* \"#utility.yul\":611:618   */\n      0x00\n        /* \"#utility.yul\":640:664   */\n      tag_223\n        /* \"#utility.yul\":658:663   */\n      dup3\n        /* \"#utility.yul\":640:664   */\n      tag_168\n      jump\t// in\n    tag_223:\n        /* \"#utility.yul\":629:664   */\n      swap1\n      pop\n        /* \"#utility.yul\":574:670   */\n      swap2\n      swap1\n      pop\n      jump\t// out\n        /* \"#utility.yul\":676:794   */\n    tag_170:\n        /* \"#utility.yul\":763:787   */\n      tag_225\n        /* \"#utility.yul\":781:786   */\n      dup2\n        /* \"#utility.yul\":763:787   */\n      tag_169\n      jump\t// in\n    tag_225:\n        /* \"#utility.yul\":758:761   */\n      dup3\n        /* \"#utility.yul\":751:788   */\n      mstore\n        /* \"#utility.yul\":676:794   */\n      pop\n      pop\n      jump\t// out\n        /* \"#utility.yul\":800:1022   */\n    tag_24:\n        /* \"#utility.yul\":893:897   */\n      0x00\n        /* \"#utility.yul\":931:933   */\n      0x20\n        /* \"#utility.yul\":920:929   */\n      dup3\n        /* \"#utility.yul\":916:934   */\n      add\n        /* \"#utility.yul\":908:934   */\n      swap1\n      pop\n        /* \"#utility.yul\":944:1015   */\n      tag_227\n        /* \"#utility.yul\":1012:1013   */\n      0x00\n        /* \"#utility.yul\":1001:1010   */\n      dup4\n        /* \"#utility.yul\":997:1014   */\n      add\n        /* \"#utility.yul\":988:994   */\n      dup5\n        /* \"#utility.yul\":944:1015   */\n      tag_170\n      jump\t// in\n    tag_227:\n        /* \"#utility.yul\":800:1022   */\n      swap3\n      swap2\n      pop\n      pop\n      jump\t// out\n        /* \"#utility.yul\":1028:1103   */\n    tag_171:\n        /* \"#utility.yul\":1061:1067   */\n      0x00\n        /* \"#utility.yul\":1094:1096   */\n      0x40\n        /* \"#utility.yul\":1088:1097   */\n      mload\n        /* \"#utility.yul\":1078:1097   */\n      swap1\n      pop\n        /* \"#utility.yul\":1028:1103   */\n      swap1\n      jump\t// out\n        /* \"#utility.yul\":1109:1226   */\n    tag_172:\n        /* \"#utility.yul\":1218:1219   */\n      0x00\n        /* \"#utility.yul\":1215:1216   */\n      dup1\n        /* \"#utility.yul\":1208:1220   */\n      revert\n        /* \"#utility.yul\":1232:1349   */\n    tag_173:\n        /* \"#utility.yul\":1341:1342   */\n      0x00\n        /* \"#utility.yul\":1338:1339   */\n      dup1\n        /* \"#utility.yul\":1331:1343   */\n      revert\n        /* \"#utility.yul\":1355:1472   */\n    tag_174:\n        /* \"#utility.yul\":1464:1465   */\n      0x00\n        /* \"#utility.yul\":1461:1462   */\n      dup1\n        /* \"#utility.yul\":1454:1466   */\n      revert\n        /* \"#utility.yul\":1478:1595   */\n    tag_175:\n        /* \"#utility.yul\":1587:1588   */\n      0x00\n        /* \"#utility.yul\":1584:1585   */\n      dup1\n        /* \"#utility.yul\":1577:1589   */\n      revert\n        /* \"#utility.yul\":1601:1703   */\n    tag_176:\n        /* \"#utility.yul\":1642:1648   */\n      0x00\n        /* \"#utility.yul\":1693:1695   */\n      0x1f\n        /* \"#utility.yul\":1689:1696   */\n      not\n        /* \"#utility.yul\":1684:1686   */\n      0x1f\n        /* \"#utility.yul\":1677:1682   */\n      dup4\n        /* \"#utility.yul\":1673:1687   */\n      add\n        /* \"#utility.yul\":1669:1697   */\n      and\n        /* \"#utility.yul\":1659:1697   */\n      swap1\n      pop\n        /* \"#utility.yul\":1601:1703   */\n      swap2\n      swap1\n      pop\n      jump\t// out\n        /* \"#utility.yul\":1709:1889   */\n    tag_177:\n        /* \"#utility.yul\":1757:1834   */\n      0x4e487b7100000000000000000000000000000000000000000000000000000000\n        /* \"#utility.yul\":1754:1755   */\n      0x00\n        /* \"#utility.yul\":1747:1835   */\n      mstore\n        /* \"#utility.yul\":1854:1858   */\n      0x41\n        /* \"#utility.yul\":1851:1852   */\n      0x04\n        /* \"#utility.yul\":1844:1859   */\n      mstore\n        /* \"#utility.yul\":1878:1882   */\n      0x24\n        /* \"#utility.yul\":1875:1876   */\n      0x00\n        /* \"#utility.yul\":1868:1883   */\n      revert\n        /* \"#utility.yul\":1895:2176   */\n    tag_178:\n        /* \"#utility.yul\":1978:2005   */\n      tag_236\n        /* \"#utility.yul\":2000:2004   */\n      dup3\n        /* \"#utility.yul\":1978:2005   */\n      tag_176\n      jump\t// in\n    tag_236:\n        /* \"#utility.yul\":1970:1976   */\n      dup2\n        /* \"#utility.yul\":1966:2006   */\n      add\n        /* \"#utility.yul\":2108:2114   */\n      dup2\n        /* \"#utility.yul\":2096:2106   */\n      dup2\n        /* \"#utility.yul\":2093:2115   */\n      lt\n        /* \"#utility.yul\":2072:2090   */\n      0xffffffffffffffff\n        /* \"#utility.yul\":2060:2070   */\n      dup3\n        /* \"#utility.yul\":2057:2091   */\n      gt\n        /* \"#utility.yul\":2054:2116   */\n      or\n        /* \"#utility.yul\":2051:2139   */\n      iszero\n      tag_237\n      jumpi\n        /* \"#utility.yul\":2119:2137   */\n      tag_238\n      tag_177\n      jump\t// in\n    tag_238:\n        /* \"#utility.yul\":2051:2139   */\n    tag_237:\n        /* \"#utility.yul\":2159:2169   */\n      dup1\n        /* \"#utility.yul\":2155:2157   */\n      0x40\n        /* \"#utility.yul\":2148:2170   */\n      mstore\n        /* \"#utility.yul\":1938:2176   */\n      pop\n        /* \"#utility.yul\":1895:2176   */\n      pop\n      pop\n      jump\t// out\n        /* \"#utility.yul\":2182:2311   */\n    tag_179:\n        /* \"#utility.yul\":2216:2222   */\n      0x00\n        /* \"#utility.yul\":2243:2263   */\n      tag_240\n      tag_171\n      jump\t// in\n    tag_240:\n        /* \"#utility.yul\":2233:2263   */\n      swap1\n      pop\n        /* \"#utility.yul\":2272:2305   */\n      tag_241\n        /* \"#utility.yul\":2300:2304   */\n      dup3\n        /* \"#utility.yul\":2292:2298   */\n      dup3\n        /* \"#utility.yul\":2272:2305   */\n      tag_178\n      jump\t// in\n    tag_241:\n        /* \"#utility.yul\":2182:2311   */\n      swap2\n      swap1\n      pop\n      jump\t// out\n        /* \"#utility.yul\":2317:2625   */\n    tag_180:\n        /* \"#utility.yul\":2379:2383   */\n      0x00\n        /* \"#utility.yul\":2469:2487   */\n      0xffffffffffffffff\n        /* \"#utility.yul\":2461:2467   */\n      dup3\n        /* \"#utility.yul\":2458:2488   */\n      gt\n        /* \"#utility.yul\":2455:2511   */\n      iszero\n      tag_243\n      jumpi\n        /* \"#utility.yul\":2491:2509   */\n      tag_244\n      tag_177\n      jump\t// in\n    tag_244:\n        /* \"#utility.yul\":2455:2511   */\n    tag_243:\n        /* \"#utility.yul\":2529:2558   */\n      tag_245\n        /* \"#utility.yul\":2551:2557   */\n      dup3\n        /* \"#utility.yul\":2529:2558   */\n      tag_176\n      jump\t// in\n    tag_245:\n        /* \"#utility.yul\":2521:2558   */\n      swap1\n      pop\n        /* \"#utility.yul\":2613:2617   */\n      0x20\n        /* \"#utility.yul\":2607:2611   */\n      dup2\n        /* \"#utility.yul\":2603:2618   */\n      add\n        /* \"#utility.yul\":2595:2618   */\n      swap1\n      pop\n        /* \"#utility.yul\":2317:2625   */\n      swap2\n      swap1\n      pop\n      jump\t// out\n        /* \"#utility.yul\":2631:2779   */\n    tag_181:\n        /* \"#utility.yul\":2729:2735   */\n      dup3\n        /* \"#utility.yul\":2724:2727   */\n      dup2\n        /* \"#utility.yul\":2719:2722   */\n      dup4\n        /* \"#utility.yul\":2706:2736   */\n      calldatacopy\n        /* \"#utility.yul\":2770:2771   */\n      0x00\n        /* \"#utility.yul\":2761:2767   */\n      dup4\n        /* \"#utility.yul\":2756:2759   */\n      dup4\n        /* \"#utility.yul\":2752:2768   */\n      add\n        /* \"#utility.yul\":2745:2772   */\n      mstore\n        /* \"#utility.yul\":2631:2779   */\n      pop\n      pop\n      pop\n      jump\t// out\n        /* \"#utility.yul\":2785:3210   */\n    tag_182:\n        /* \"#utility.yul\":2863:2868   */\n      0x00\n        /* \"#utility.yul\":2888:2954   */\n      tag_248\n        /* \"#utility.yul\":2904:2953   */\n      tag_249\n        /* \"#utility.yul\":2946:2952   */\n      dup5\n        /* \"#utility.yul\":2904:2953   */\n      tag_180\n      jump\t// in\n    tag_249:\n        /* \"#utility.yul\":2888:2954   */\n      tag_179\n      jump\t// in\n    tag_248:\n        /* \"#utility.yul\":2879:2954   */\n      swap1\n      pop\n        /* \"#utility.yul\":2977:2983   */\n      dup3\n        /* \"#utility.yul\":2970:2975   */\n      dup2\n        /* \"#utility.yul\":2963:2984   */\n      mstore\n        /* \"#utility.yul\":3015:3019   */\n      0x20\n        /* \"#utility.yul\":3008:3013   */\n      dup2\n        /* \"#utility.yul\":3004:3020   */\n      add\n        /* \"#utility.yul\":3053:3056   */\n      dup5\n        /* \"#utility.yul\":3044:3050   */\n      dup5\n        /* \"#utility.yul\":3039:3042   */\n      dup5\n        /* \"#utility.yul\":3035:3051   */\n      add\n        /* \"#utility.yul\":3032:3057   */\n      gt\n        /* \"#utility.yul\":3029:3141   */\n      iszero\n      tag_250\n      jumpi\n        /* \"#utility.yul\":3060:3139   */\n      tag_251\n      tag_175\n      jump\t// in\n    tag_251:\n        /* \"#utility.yul\":3029:3141   */\n    tag_250:\n        /* \"#utility.yul\":3150:3204   */\n      tag_252\n        /* \"#utility.yul\":3197:3203   */\n      dup5\n        /* \"#utility.yul\":3192:3195   */\n      dup3\n        /* \"#utility.yul\":3187:3190   */\n      dup6\n        /* \"#utility.yul\":3150:3204   */\n      tag_181\n      jump\t// in\n    tag_252:\n        /* \"#utility.yul\":2869:3210   */\n      pop\n        /* \"#utility.yul\":2785:3210   */\n      swap4\n      swap3\n      pop\n      pop\n      pop\n      jump\t// out\n        /* \"#utility.yul\":3230:3570   */\n    tag_183:\n        /* \"#utility.yul\":3286:3291   */\n      0x00\n        /* \"#utility.yul\":3335:3338   */\n      dup3\n        /* \"#utility.yul\":3328:3332   */\n      0x1f\n        /* \"#utility.yul\":3320:3326   */\n      dup4\n        /* \"#utility.yul\":3316:3333   */\n      add\n        /* \"#utility.yul\":3312:3339   */\n      slt\n        /* \"#utility.yul\":3302:3424   */\n      tag_254\n      jumpi\n        /* \"#utility.yul\":3343:3422   */\n      tag_255\n      tag_174\n      jump\t// in\n    tag_255:\n        /* \"#utility.yul\":3302:3424   */\n    tag_254:\n        /* \"#utility.yul\":3460:3466   */\n      dup2\n        /* \"#utility.yul\":3447:3467   */\n      calldataload\n        /* \"#utility.yul\":3485:3564   */\n      tag_256\n        /* \"#utility.yul\":3560:3563   */\n      dup5\n        /* \"#utility.yul\":3552:3558   */\n      dup3\n        /* \"#utility.yul\":3545:3549   */\n      0x20\n        /* \"#utility.yul\":3537:3543   */\n      dup7\n        /* \"#utility.yul\":3533:3550   */\n      add\n        /* \"#utility.yul\":3485:3564   */\n      tag_182\n      jump\t// in\n    tag_256:\n        /* \"#utility.yul\":3476:3564   */\n      swap2\n      pop\n        /* \"#utility.yul\":3292:3570   */\n      pop\n        /* \"#utility.yul\":3230:3570   */\n      swap3\n      swap2\n      pop\n      pop\n      jump\t// out\n        /* \"#utility.yul\":3576:3698   */\n    tag_184:\n        /* \"#utility.yul\":3649:3673   */\n      tag_258\n        /* \"#utility.yul\":3667:3672   */\n      dup2\n        /* \"#utility.yul\":3649:3673   */\n      tag_166\n      jump\t// in\n    tag_258:\n        /* \"#utility.yul\":3642:3647   */\n      dup2\n        /* \"#utility.yul\":3639:3674   */\n      eq\n        /* \"#utility.yul\":3629:3692   */\n      tag_259\n      jumpi\n        /* \"#utility.yul\":3688:3689   */\n      0x00\n        /* \"#utility.yul\":3685:3686   */\n      dup1\n        /* \"#utility.yul\":3678:3690   */\n      revert\n        /* \"#utility.yul\":3629:3692   */\n    tag_259:\n        /* \"#utility.yul\":3576:3698   */\n      pop\n      jump\t// out\n        /* \"#utility.yul\":3704:3843   */\n    tag_185:\n        /* \"#utility.yul\":3750:3755   */\n      0x00\n        /* \"#utility.yul\":3788:3794   */\n      dup2\n        /* \"#utility.yul\":3775:3795   */\n      calldataload\n        /* \"#utility.yul\":3766:3795   */\n      swap1\n      pop\n        /* \"#utility.yul\":3804:3837   */\n      tag_261\n        /* \"#utility.yul\":3831:3836   */\n      dup2\n        /* \"#utility.yul\":3804:3837   */\n      tag_184\n      jump\t// in\n    tag_261:\n        /* \"#utility.yul\":3704:3843   */\n      swap3\n      swap2\n      pop\n      pop\n      jump\t// out\n        /* \"#utility.yul\":3849:4503   */\n    tag_28:\n        /* \"#utility.yul\":3927:3933   */\n      0x00\n        /* \"#utility.yul\":3935:3941   */\n      dup1\n        /* \"#utility.yul\":3984:3986   */\n      0x40\n        /* \"#utility.yul\":3972:3981   */\n      dup4\n        /* \"#utility.yul\":3963:3970   */\n      dup6\n        /* \"#utility.yul\":3959:3982   */\n      sub\n        /* \"#utility.yul\":3955:3987   */\n      slt\n        /* \"#utility.yul\":3952:4071   */\n      iszero\n      tag_263\n      jumpi\n        /* \"#utility.yul\":3990:4069   */\n      tag_264\n      tag_172\n      jump\t// in\n    tag_264:\n        /* \"#utility.yul\":3952:4071   */\n    tag_263:\n        /* \"#utility.yul\":4138:4139   */\n      0x00\n        /* \"#utility.yul\":4127:4136   */\n      dup4\n        /* \"#utility.yul\":4123:4140   */\n      add\n        /* \"#utility.yul\":4110:4141   */\n      calldataload\n        /* \"#utility.yul\":4168:4186   */\n      0xffffffffffffffff\n        /* \"#utility.yul\":4160:4166   */\n      dup2\n        /* \"#utility.yul\":4157:4187   */\n      gt\n        /* \"#utility.yul\":4154:4271   */\n      iszero\n      tag_265\n      jumpi\n        /* \"#utility.yul\":4190:4269   */\n      tag_266\n      tag_173\n      jump\t// in\n    tag_266:\n        /* \"#utility.yul\":4154:4271   */\n    tag_265:\n        /* \"#utility.yul\":4295:4358   */\n      tag_267\n        /* \"#utility.yul\":4350:4357   */\n      dup6\n        /* \"#utility.yul\":4341:4347   */\n      dup3\n        /* \"#utility.yul\":4330:4339   */\n      dup7\n        /* \"#utility.yul\":4326:4348   */\n      add\n        /* \"#utility.yul\":4295:4358   */\n      tag_183\n      jump\t// in\n    tag_267:\n        /* \"#utility.yul\":4285:4358   */\n      swap3\n      pop\n        /* \"#utility.yul\":4081:4368   */\n      pop\n        /* \"#utility.yul\":4407:4409   */\n      0x20\n        /* \"#utility.yul\":4433:4486   */\n      tag_268\n        /* \"#utility.yul\":4478:4485   */\n      dup6\n        /* \"#utility.yul\":4469:4475   */\n      dup3\n        /* \"#utility.yul\":4458:4467   */\n      dup7\n        /* \"#utility.yul\":4454:4476   */\n      add\n        /* \"#utility.yul\":4433:4486   */\n      tag_185\n      jump\t// in\n    tag_268:\n        /* \"#utility.yul\":4423:4486   */\n      swap2\n      pop\n        /* \"#utility.yul\":4378:4496   */\n      pop\n        /* \"#utility.yul\":3849:4503   */\n      swap3\n      pop\n      swap3\n      swap1\n      pop\n      jump\t// out\n        /* \"#utility.yul\":4509:6612   */\n    tag_33:\n        /* \"#utility.yul\":4672:4678   */\n      0x00\n        /* \"#utility.yul\":4680:4686   */\n      dup1\n        /* \"#utility.yul\":4688:4694   */\n      0x00\n        /* \"#utility.yul\":4696:4702   */\n      dup1\n        /* \"#utility.yul\":4704:4710   */\n      0x00\n        /* \"#utility.yul\":4712:4718   */\n      dup1\n        /* \"#utility.yul\":4720:4726   */\n      0x00\n        /* \"#utility.yul\":4769:4772   */\n      0xe0\n        /* \"#utility.yul\":4757:4766   */\n      dup9\n        /* \"#utility.yul\":4748:4755   */\n      dup11\n        /* \"#utility.yul\":4744:4767   */\n      sub\n        /* \"#utility.yul\":4740:4773   */\n      slt\n        /* \"#utility.yul\":4737:4857   */\n      iszero\n      tag_270\n      jumpi\n        /* \"#utility.yul\":4776:4855   */\n      tag_271\n      tag_172\n      jump\t// in\n    tag_271:\n        /* \"#utility.yul\":4737:4857   */\n    tag_270:\n        /* \"#utility.yul\":4896:4897   */\n      0x00\n        /* \"#utility.yul\":4921:4974   */\n      tag_272\n        /* \"#utility.yul\":4966:4973   */\n      dup11\n        /* \"#utility.yul\":4957:4963   */\n      dup3\n        /* \"#utility.yul\":4946:4955   */\n      dup12\n        /* \"#utility.yul\":4942:4964   */\n      add\n        /* \"#utility.yul\":4921:4974   */\n      tag_185\n      jump\t// in\n    tag_272:\n        /* \"#utility.yul\":4911:4974   */\n      swap8\n      pop\n        /* \"#utility.yul\":4867:4984   */\n      pop\n        /* \"#utility.yul\":5051:5053   */\n      0x20\n        /* \"#utility.yul\":5040:5049   */\n      dup9\n        /* \"#utility.yul\":5036:5054   */\n      add\n        /* \"#utility.yul\":5023:5055   */\n      calldataload\n        /* \"#utility.yul\":5082:5100   */\n      0xffffffffffffffff\n        /* \"#utility.yul\":5074:5080   */\n      dup2\n        /* \"#utility.yul\":5071:5101   */\n      gt\n        /* \"#utility.yul\":5068:5185   */\n      iszero\n      tag_273\n      jumpi\n        /* \"#utility.yul\":5104:5183   */\n      tag_274\n      tag_173\n      jump\t// in\n    tag_274:\n        /* \"#utility.yul\":5068:5185   */\n    tag_273:\n        /* \"#utility.yul\":5209:5272   */\n      tag_275\n        /* \"#utility.yul\":5264:5271   */\n      dup11\n        /* \"#utility.yul\":5255:5261   */\n      dup3\n        /* \"#utility.yul\":5244:5253   */\n      dup12\n        /* \"#utility.yul\":5240:5262   */\n      add\n        /* \"#utility.yul\":5209:5272   */\n      tag_183\n      jump\t// in\n    tag_275:\n        /* \"#utility.yul\":5199:5272   */\n      swap7\n      pop\n        /* \"#utility.yul\":4994:5282   */\n      pop\n        /* \"#utility.yul\":5349:5351   */\n      0x40\n        /* \"#utility.yul\":5338:5347   */\n      dup9\n        /* \"#utility.yul\":5334:5352   */\n      add\n        /* \"#utility.yul\":5321:5353   */\n      calldataload\n        /* \"#utility.yul\":5380:5398   */\n      0xffffffffffffffff\n        /* \"#utility.yul\":5372:5378   */\n      dup2\n        /* \"#utility.yul\":5369:5399   */\n      gt\n        /* \"#utility.yul\":5366:5483   */\n      iszero\n      tag_276\n      jumpi\n        /* \"#utility.yul\":5402:5481   */\n      tag_277\n      tag_173\n      jump\t// in\n    tag_277:\n        /* \"#utility.yul\":5366:5483   */\n    tag_276:\n        /* \"#utility.yul\":5507:5570   */\n      tag_278\n        /* \"#utility.yul\":5562:5569   */\n      dup11\n        /* \"#utility.yul\":5553:5559   */\n      dup3\n        /* \"#utility.yul\":5542:5551   */\n      dup12\n        /* \"#utility.yul\":5538:5560   */\n      add\n        /* \"#utility.yul\":5507:5570   */\n      tag_183\n      jump\t// in\n    tag_278:\n        /* \"#utility.yul\":5497:5570   */\n      swap6\n      pop\n        /* \"#utility.yul\":5292:5580   */\n      pop\n        /* \"#utility.yul\":5647:5649   */\n      0x60\n        /* \"#utility.yul\":5636:5645   */\n      dup9\n        /* \"#utility.yul\":5632:5650   */\n      add\n        /* \"#utility.yul\":5619:5651   */\n      calldataload\n        /* \"#utility.yul\":5678:5696   */\n      0xffffffffffffffff\n        /* \"#utility.yul\":5670:5676   */\n      dup2\n        /* \"#utility.yul\":5667:5697   */\n      gt\n        /* \"#utility.yul\":5664:5781   */\n      iszero\n      tag_279\n      jumpi\n        /* \"#utility.yul\":5700:5779   */\n      tag_280\n      tag_173\n      jump\t// in\n    tag_280:\n        /* \"#utility.yul\":5664:5781   */\n    tag_279:\n        /* \"#utility.yul\":5805:5868   */\n      tag_281\n        /* \"#utility.yul\":5860:5867   */\n      dup11\n        /* \"#utility.yul\":5851:5857   */\n      dup3\n        /* \"#utility.yul\":5840:5849   */\n      dup12\n        /* \"#utility.yul\":5836:5858   */\n      add\n        /* \"#utility.yul\":5805:5868   */\n      tag_183\n      jump\t// in\n    tag_281:\n        /* \"#utility.yul\":5795:5868   */\n      swap5\n      pop\n        /* \"#utility.yul\":5590:5878   */\n      pop\n        /* \"#utility.yul\":5917:5920   */\n      0x80\n        /* \"#utility.yul\":5944:5997   */\n      tag_282\n        /* \"#utility.yul\":5989:5996   */\n      dup11\n        /* \"#utility.yul\":5980:5986   */\n      dup3\n        /* \"#utility.yul\":5969:5978   */\n      dup12\n        /* \"#utility.yul\":5965:5987   */\n      add\n        /* \"#utility.yul\":5944:5997   */\n      tag_185\n      jump\t// in\n    tag_282:\n        /* \"#utility.yul\":5934:5997   */\n      swap4\n      pop\n        /* \"#utility.yul\":5888:6007   */\n      pop\n        /* \"#utility.yul\":6074:6077   */\n      0xa0\n        /* \"#utility.yul\":6063:6072   */\n      dup9\n        /* \"#utility.yul\":6059:6078   */\n      add\n        /* \"#utility.yul\":6046:6079   */\n      calldataload\n        /* \"#utility.yul\":6106:6124   */\n      0xffffffffffffffff\n        /* \"#utility.yul\":6098:6104   */\n      dup2\n        /* \"#utility.yul\":6095:6125   */\n      gt\n        /* \"#utility.yul\":6092:6209   */\n      iszero\n      tag_283\n      jumpi\n        /* \"#utility.yul\":6128:6207   */\n      tag_284\n      tag_173\n      jump\t// in\n    tag_284:\n        /* \"#utility.yul\":6092:6209   */\n    tag_283:\n        /* \"#utility.yul\":6233:6296   */\n      tag_285\n        /* \"#utility.yul\":6288:6295   */\n      dup11\n        /* \"#utility.yul\":6279:6285   */\n      dup3\n        /* \"#utility.yul\":6268:6277   */\n      dup12\n        /* \"#utility.yul\":6264:6286   */\n      add\n        /* \"#utility.yul\":6233:6296   */\n      tag_183\n      jump\t// in\n    tag_285:\n        /* \"#utility.yul\":6223:6296   */\n      swap3\n      pop\n        /* \"#utility.yul\":6017:6306   */\n      pop\n        /* \"#utility.yul\":6373:6376   */\n      0xc0\n        /* \"#utility.yul\":6362:6371   */\n      dup9\n        /* \"#utility.yul\":6358:6377   */\n      add\n        /* \"#utility.yul\":6345:6378   */\n      calldataload\n        /* \"#utility.yul\":6405:6423   */\n      0xffffffffffffffff\n        /* \"#utility.yul\":6397:6403   */\n      dup2\n        /* \"#utility.yul\":6394:6424   */\n      gt\n        /* \"#utility.yul\":6391:6508   */\n      iszero\n      tag_286\n      jumpi\n        /* \"#utility.yul\":6427:6506   */\n      tag_287\n      tag_173\n      jump\t// in\n    tag_287:\n        /* \"#utility.yul\":6391:6508   */\n    tag_286:\n        /* \"#utility.yul\":6532:6595   */\n      tag_288\n        /* \"#utility.yul\":6587:6594   */\n      dup11\n        /* \"#utility.yul\":6578:6584   */\n      dup3\n        /* \"#utility.yul\":6567:6576   */\n      dup12\n        /* \"#utility.yul\":6563:6585   */\n      add\n        /* \"#utility.yul\":6532:6595   */\n      tag_183\n      jump\t// in\n    tag_288:\n        /* \"#utility.yul\":6522:6595   */\n      swap2\n      pop\n        /* \"#utility.yul\":6316:6605   */\n      pop\n        /* \"#utility.yul\":4509:6612   */\n      swap3\n      swap6\n      swap9\n      swap2\n      swap5\n      swap8\n      pop\n      swap3\n      swap6\n      pop\n      jump\t// out\n        /* \"#utility.yul\":6618:6947   */\n    tag_38:\n        /* \"#utility.yul\":6677:6683   */\n      0x00\n        /* \"#utility.yul\":6726:6728   */\n      0x20\n        /* \"#utility.yul\":6714:6723   */\n      dup3\n        /* \"#utility.yul\":6705:6712   */\n      dup5\n        /* \"#utility.yul\":6701:6724   */\n      sub\n        /* \"#utility.yul\":6697:6729   */\n      slt\n        /* \"#utility.yul\":6694:6813   */\n      iszero\n      tag_290\n      jumpi\n        /* \"#utility.yul\":6732:6811   */\n      tag_291\n      tag_172\n      jump\t// in\n    tag_291:\n        /* \"#utility.yul\":6694:6813   */\n    tag_290:\n        /* \"#utility.yul\":6852:6853   */\n      0x00\n        /* \"#utility.yul\":6877:6930   */\n      tag_292\n        /* \"#utility.yul\":6922:6929   */\n      dup5\n        /* \"#utility.yul\":6913:6919   */\n      dup3\n        /* \"#utility.yul\":6902:6911   */\n      dup6\n        /* \"#utility.yul\":6898:6920   */\n      add\n        /* \"#utility.yul\":6877:6930   */\n      tag_185\n      jump\t// in\n    tag_292:\n        /* \"#utility.yul\":6867:6930   */\n      swap2\n      pop\n        /* \"#utility.yul\":6823:6940   */\n      pop\n        /* \"#utility.yul\":6618:6947   */\n      swap3\n      swap2\n      pop\n      pop\n      jump\t// out\n        /* \"#utility.yul\":6953:7052   */\n    tag_186:\n        /* \"#utility.yul\":7005:7011   */\n      0x00\n        /* \"#utility.yul\":7039:7044   */\n      dup2\n        /* \"#utility.yul\":7033:7045   */\n      mload\n        /* \"#utility.yul\":7023:7045   */\n      swap1\n      pop\n        /* \"#utility.yul\":6953:7052   */\n      swap2\n      swap1\n      pop\n      jump\t// out\n        /* \"#utility.yul\":7058:7227   */\n    tag_187:\n        /* \"#utility.yul\":7142:7153   */\n      0x00\n        /* \"#utility.yul\":7176:7182   */\n      dup3\n        /* \"#utility.yul\":7171:7174   */\n      dup3\n        /* \"#utility.yul\":7164:7183   */\n      mstore\n        /* \"#utility.yul\":7216:7220   */\n      0x20\n        /* \"#utility.yul\":7211:7214   */\n      dup3\n        /* \"#utility.yul\":7207:7221   */\n      add\n        /* \"#utility.yul\":7192:7221   */\n      swap1\n      pop\n        /* \"#utility.yul\":7058:7227   */\n      swap3\n      swap2\n      pop\n      pop\n      jump\t// out\n        /* \"#utility.yul\":7233:7372   */\n    tag_188:\n        /* \"#utility.yul\":7322:7328   */\n      dup3\n        /* \"#utility.yul\":7317:7320   */\n      dup2\n        /* \"#utility.yul\":7312:7315   */\n      dup4\n        /* \"#utility.yul\":7306:7329   */\n      mcopy\n        /* \"#utility.yul\":7363:7364   */\n      0x00\n        /* \"#utility.yul\":7354:7360   */\n      dup4\n        /* \"#utility.yul\":7349:7352   */\n      dup4\n        /* \"#utility.yul\":7345:7361   */\n      add\n        /* \"#utility.yul\":7338:7365   */\n      mstore\n        /* \"#utility.yul\":7233:7372   */\n      pop\n      pop\n      pop\n      jump\t// out\n        /* \"#utility.yul\":7378:7755   */\n    tag_189:\n        /* \"#utility.yul\":7466:7469   */\n      0x00\n        /* \"#utility.yul\":7494:7533   */\n      tag_297\n        /* \"#utility.yul\":7527:7532   */\n      dup3\n        /* \"#utility.yul\":7494:7533   */\n      tag_186\n      jump\t// in\n    tag_297:\n        /* \"#utility.yul\":7549:7620   */\n      tag_298\n        /* \"#utility.yul\":7613:7619   */\n      dup2\n        /* \"#utility.yul\":7608:7611   */\n      dup6\n        /* \"#utility.yul\":7549:7620   */\n      tag_187\n      jump\t// in\n    tag_298:\n        /* \"#utility.yul\":7542:7620   */\n      swap4\n      pop\n        /* \"#utility.yul\":7629:7694   */\n      tag_299\n        /* \"#utility.yul\":7687:7693   */\n      dup2\n        /* \"#utility.yul\":7682:7685   */\n      dup6\n        /* \"#utility.yul\":7675:7679   */\n      0x20\n        /* \"#utility.yul\":7668:7673   */\n      dup7\n        /* \"#utility.yul\":7664:7680   */\n      add\n        /* \"#utility.yul\":7629:7694   */\n      tag_188\n      jump\t// in\n    tag_299:\n        /* \"#utility.yul\":7719:7748   */\n      tag_300\n        /* \"#utility.yul\":7741:7747   */\n      dup2\n        /* \"#utility.yul\":7719:7748   */\n      tag_176\n      jump\t// in\n    tag_300:\n        /* \"#utility.yul\":7714:7717   */\n      dup5\n        /* \"#utility.yul\":7710:7749   */\n      add\n        /* \"#utility.yul\":7703:7749   */\n      swap2\n      pop\n        /* \"#utility.yul\":7470:7755   */\n      pop\n        /* \"#utility.yul\":7378:7755   */\n      swap3\n      swap2\n      pop\n      pop\n      jump\t// out\n        /* \"#utility.yul\":7761:8184   */\n    tag_41:\n        /* \"#utility.yul\":7902:7906   */\n      0x00\n        /* \"#utility.yul\":7940:7942   */\n      0x40\n        /* \"#utility.yul\":7929:7938   */\n      dup3\n        /* \"#utility.yul\":7925:7943   */\n      add\n        /* \"#utility.yul\":7917:7943   */\n      swap1\n      pop\n        /* \"#utility.yul\":7989:7998   */\n      dup2\n        /* \"#utility.yul\":7983:7987   */\n      dup2\n        /* \"#utility.yul\":7979:7999   */\n      sub\n        /* \"#utility.yul\":7975:7976   */\n      0x00\n        /* \"#utility.yul\":7964:7973   */\n      dup4\n        /* \"#utility.yul\":7960:7977   */\n      add\n        /* \"#utility.yul\":7953:8000   */\n      mstore\n        /* \"#utility.yul\":8017:8095   */\n      tag_302\n        /* \"#utility.yul\":8090:8094   */\n      dup2\n        /* \"#utility.yul\":8081:8087   */\n      dup6\n        /* \"#utility.yul\":8017:8095   */\n      tag_189\n      jump\t// in\n    tag_302:\n        /* \"#utility.yul\":8009:8095   */\n      swap1\n      pop\n        /* \"#utility.yul\":8105:8177   */\n      tag_303\n        /* \"#utility.yul\":8173:8175   */\n      0x20\n        /* \"#utility.yul\":8162:8171   */\n      dup4\n        /* \"#utility.yul\":8158:8176   */\n      add\n        /* \"#utility.yul\":8149:8155   */\n      dup5\n        /* \"#utility.yul\":8105:8177   */\n      tag_167\n      jump\t// in\n    tag_303:\n        /* \"#utility.yul\":7761:8184   */\n      swap4\n      swap3\n      pop\n      pop\n      pop\n      jump\t// out\n        /* \"#utility.yul\":8190:10147   */\n    tag_53:\n        /* \"#utility.yul\":8344:8350   */\n      0x00\n        /* \"#utility.yul\":8352:8358   */\n      dup1\n        /* \"#utility.yul\":8360:8366   */\n      0x00\n        /* \"#utility.yul\":8368:8374   */\n      dup1\n        /* \"#utility.yul\":8376:8382   */\n      0x00\n        /* \"#utility.yul\":8384:8390   */\n      dup1\n        /* \"#utility.yul\":8433:8436   */\n      0xc0\n        /* \"#utility.yul\":8421:8430   */\n      dup8\n        /* \"#utility.yul\":8412:8419   */\n      dup10\n        /* \"#utility.yul\":8408:8431   */\n      sub\n        /* \"#utility.yul\":8404:8437   */\n      slt\n        /* \"#utility.yul\":8401:8521   */\n      iszero\n      tag_305\n      jumpi\n        /* \"#utility.yul\":8440:8519   */\n      tag_306\n      tag_172\n      jump\t// in\n    tag_306:\n        /* \"#utility.yul\":8401:8521   */\n    tag_305:\n        /* \"#utility.yul\":8588:8589   */\n      0x00\n        /* \"#utility.yul\":8577:8586   */\n      dup8\n        /* \"#utility.yul\":8573:8590   */\n      add\n        /* \"#utility.yul\":8560:8591   */\n      calldataload\n        /* \"#utility.yul\":8618:8636   */\n      0xffffffffffffffff\n        /* \"#utility.yul\":8610:8616   */\n      dup2\n        /* \"#utility.yul\":8607:8637   */\n      gt\n        /* \"#utility.yul\":8604:8721   */\n      iszero\n      tag_307\n      jumpi\n        /* \"#utility.yul\":8640:8719   */\n      tag_308\n      tag_173\n      jump\t// in\n    tag_308:\n        /* \"#utility.yul\":8604:8721   */\n    tag_307:\n        /* \"#utility.yul\":8745:8808   */\n      tag_309\n        /* \"#utility.yul\":8800:8807   */\n      dup10\n        /* \"#utility.yul\":8791:8797   */\n      dup3\n        /* \"#utility.yul\":8780:8789   */\n      dup11\n        /* \"#utility.yul\":8776:8798   */\n      add\n        /* \"#utility.yul\":8745:8808   */\n      tag_183\n      jump\t// in\n    tag_309:\n        /* \"#utility.yul\":8735:8808   */\n      swap7\n      pop\n        /* \"#utility.yul\":8531:8818   */\n      pop\n        /* \"#utility.yul\":8885:8887   */\n      0x20\n        /* \"#utility.yul\":8874:8883   */\n      dup8\n        /* \"#utility.yul\":8870:8888   */\n      add\n        /* \"#utility.yul\":8857:8889   */\n      calldataload\n        /* \"#utility.yul\":8916:8934   */\n      0xffffffffffffffff\n        /* \"#utility.yul\":8908:8914   */\n      dup2\n        /* \"#utility.yul\":8905:8935   */\n      gt\n        /* \"#utility.yul\":8902:9019   */\n      iszero\n      tag_310\n      jumpi\n        /* \"#utility.yul\":8938:9017   */\n      tag_311\n      tag_173\n      jump\t// in\n    tag_311:\n        /* \"#utility.yul\":8902:9019   */\n    tag_310:\n        /* \"#utility.yul\":9043:9106   */\n      tag_312\n        /* \"#utility.yul\":9098:9105   */\n      dup10\n        /* \"#utility.yul\":9089:9095   */\n      dup3\n        /* \"#utility.yul\":9078:9087   */\n      dup11\n        /* \"#utility.yul\":9074:9096   */\n      add\n        /* \"#utility.yul\":9043:9106   */\n      tag_183\n      jump\t// in\n    tag_312:\n        /* \"#utility.yul\":9033:9106   */\n      swap6\n      pop\n        /* \"#utility.yul\":8828:9116   */\n      pop\n        /* \"#utility.yul\":9183:9185   */\n      0x40\n        /* \"#utility.yul\":9172:9181   */\n      dup8\n        /* \"#utility.yul\":9168:9186   */\n      add\n        /* \"#utility.yul\":9155:9187   */\n      calldataload\n        /* \"#utility.yul\":9214:9232   */\n      0xffffffffffffffff\n        /* \"#utility.yul\":9206:9212   */\n      dup2\n        /* \"#utility.yul\":9203:9233   */\n      gt\n        /* \"#utility.yul\":9200:9317   */\n      iszero\n      tag_313\n      jumpi\n        /* \"#utility.yul\":9236:9315   */\n      tag_314\n      tag_173\n      jump\t// in\n    tag_314:\n        /* \"#utility.yul\":9200:9317   */\n    tag_313:\n        /* \"#utility.yul\":9341:9404   */\n      tag_315\n        /* \"#utility.yul\":9396:9403   */\n      dup10\n        /* \"#utility.yul\":9387:9393   */\n      dup3\n        /* \"#utility.yul\":9376:9385   */\n      dup11\n        /* \"#utility.yul\":9372:9394   */\n      add\n        /* \"#utility.yul\":9341:9404   */\n      tag_183\n      jump\t// in\n    tag_315:\n        /* \"#utility.yul\":9331:9404   */\n      swap5\n      pop\n        /* \"#utility.yul\":9126:9414   */\n      pop\n        /* \"#utility.yul\":9453:9455   */\n      0x60\n        /* \"#utility.yul\":9479:9532   */\n      tag_316\n        /* \"#utility.yul\":9524:9531   */\n      dup10\n        /* \"#utility.yul\":9515:9521   */\n      dup3\n        /* \"#utility.yul\":9504:9513   */\n      dup11\n        /* \"#utility.yul\":9500:9522   */\n      add\n        /* \"#utility.yul\":9479:9532   */\n      tag_185\n      jump\t// in\n    tag_316:\n        /* \"#utility.yul\":9469:9532   */\n      swap4\n      pop\n        /* \"#utility.yul\":9424:9542   */\n      pop\n        /* \"#utility.yul\":9609:9612   */\n      0x80\n        /* \"#utility.yul\":9598:9607   */\n      dup8\n        /* \"#utility.yul\":9594:9613   */\n      add\n        /* \"#utility.yul\":9581:9614   */\n      calldataload\n        /* \"#utility.yul\":9641:9659   */\n      0xffffffffffffffff\n        /* \"#utility.yul\":9633:9639   */\n      dup2\n        /* \"#utility.yul\":9630:9660   */\n      gt\n        /* \"#utility.yul\":9627:9744   */\n      iszero\n      tag_317\n      jumpi\n        /* \"#utility.yul\":9663:9742   */\n      tag_318\n      tag_173\n      jump\t// in\n    tag_318:\n        /* \"#utility.yul\":9627:9744   */\n    tag_317:\n        /* \"#utility.yul\":9768:9831   */\n      tag_319\n        /* \"#utility.yul\":9823:9830   */\n      dup10\n        /* \"#utility.yul\":9814:9820   */\n      dup3\n        /* \"#utility.yul\":9803:9812   */\n      dup11\n        /* \"#utility.yul\":9799:9821   */\n      add\n        /* \"#utility.yul\":9768:9831   */\n      tag_183\n      jump\t// in\n    tag_319:\n        /* \"#utility.yul\":9758:9831   */\n      swap3\n      pop\n        /* \"#utility.yul\":9552:9841   */\n      pop\n        /* \"#utility.yul\":9908:9911   */\n      0xa0\n        /* \"#utility.yul\":9897:9906   */\n      dup8\n        /* \"#utility.yul\":9893:9912   */\n      add\n        /* \"#utility.yul\":9880:9913   */\n      calldataload\n        /* \"#utility.yul\":9940:9958   */\n      0xffffffffffffffff\n        /* \"#utility.yul\":9932:9938   */\n      dup2\n        /* \"#utility.yul\":9929:9959   */\n      gt\n        /* \"#utility.yul\":9926:10043   */\n      iszero\n      tag_320\n      jumpi\n        /* \"#utility.yul\":9962:10041   */\n      tag_321\n      tag_173\n      jump\t// in\n    tag_321:\n        /* \"#utility.yul\":9926:10043   */\n    tag_320:\n        /* \"#utility.yul\":10067:10130   */\n      tag_322\n        /* \"#utility.yul\":10122:10129   */\n      dup10\n        /* \"#utility.yul\":10113:10119   */\n      dup3\n        /* \"#utility.yul\":10102:10111   */\n      dup11\n        /* \"#utility.yul\":10098:10120   */\n      add\n        /* \"#utility.yul\":10067:10130   */\n      tag_183\n      jump\t// in\n    tag_322:\n        /* \"#utility.yul\":10057:10130   */\n      swap2\n      pop\n        /* \"#utility.yul\":9851:10140   */\n      pop\n        /* \"#utility.yul\":8190:10147   */\n      swap3\n      swap6\n      pop\n      swap3\n      swap6\n      pop\n      swap3\n      swap6\n      jump\t// out\n        /* \"#utility.yul\":10153:11383   */\n    tag_60:\n        /* \"#utility.yul\":10486:10490   */\n      0x00\n        /* \"#utility.yul\":10524:10527   */\n      0xc0\n        /* \"#utility.yul\":10513:10522   */\n      dup3\n        /* \"#utility.yul\":10509:10528   */\n      add\n        /* \"#utility.yul\":10501:10528   */\n      swap1\n      pop\n        /* \"#utility.yul\":10574:10583   */\n      dup2\n        /* \"#utility.yul\":10568:10572   */\n      dup2\n        /* \"#utility.yul\":10564:10584   */\n      sub\n        /* \"#utility.yul\":10560:10561   */\n      0x00\n        /* \"#utility.yul\":10549:10558   */\n      dup4\n        /* \"#utility.yul\":10545:10562   */\n      add\n        /* \"#utility.yul\":10538:10585   */\n      mstore\n        /* \"#utility.yul\":10602:10680   */\n      tag_324\n        /* \"#utility.yul\":10675:10679   */\n      dup2\n        /* \"#utility.yul\":10666:10672   */\n      dup10\n        /* \"#utility.yul\":10602:10680   */\n      tag_189\n      jump\t// in\n    tag_324:\n        /* \"#utility.yul\":10594:10680   */\n      swap1\n      pop\n        /* \"#utility.yul\":10727:10736   */\n      dup2\n        /* \"#utility.yul\":10721:10725   */\n      dup2\n        /* \"#utility.yul\":10717:10737   */\n      sub\n        /* \"#utility.yul\":10712:10714   */\n      0x20\n        /* \"#utility.yul\":10701:10710   */\n      dup4\n        /* \"#utility.yul\":10697:10715   */\n      add\n        /* \"#utility.yul\":10690:10738   */\n      mstore\n        /* \"#utility.yul\":10755:10833   */\n      tag_325\n        /* \"#utility.yul\":10828:10832   */\n      dup2\n        /* \"#utility.yul\":10819:10825   */\n      dup9\n        /* \"#utility.yul\":10755:10833   */\n      tag_189\n      jump\t// in\n    tag_325:\n        /* \"#utility.yul\":10747:10833   */\n      swap1\n      pop\n        /* \"#utility.yul\":10880:10889   */\n      dup2\n        /* \"#utility.yul\":10874:10878   */\n      dup2\n        /* \"#utility.yul\":10870:10890   */\n      sub\n        /* \"#utility.yul\":10865:10867   */\n      0x40\n        /* \"#utility.yul\":10854:10863   */\n      dup4\n        /* \"#utility.yul\":10850:10868   */\n      add\n        /* \"#utility.yul\":10843:10891   */\n      mstore\n        /* \"#utility.yul\":10908:10986   */\n      tag_326\n        /* \"#utility.yul\":10981:10985   */\n      dup2\n        /* \"#utility.yul\":10972:10978   */\n      dup8\n        /* \"#utility.yul\":10908:10986   */\n      tag_189\n      jump\t// in\n    tag_326:\n        /* \"#utility.yul\":10900:10986   */\n      swap1\n      pop\n        /* \"#utility.yul\":10996:11068   */\n      tag_327\n        /* \"#utility.yul\":11064:11066   */\n      0x60\n        /* \"#utility.yul\":11053:11062   */\n      dup4\n        /* \"#utility.yul\":11049:11067   */\n      add\n        /* \"#utility.yul\":11040:11046   */\n      dup7\n        /* \"#utility.yul\":10996:11068   */\n      tag_167\n      jump\t// in\n    tag_327:\n        /* \"#utility.yul\":11116:11125   */\n      dup2\n        /* \"#utility.yul\":11110:11114   */\n      dup2\n        /* \"#utility.yul\":11106:11126   */\n      sub\n        /* \"#utility.yul\":11100:11103   */\n      0x80\n        /* \"#utility.yul\":11089:11098   */\n      dup4\n        /* \"#utility.yul\":11085:11104   */\n      add\n        /* \"#utility.yul\":11078:11127   */\n      mstore\n        /* \"#utility.yul\":11144:11222   */\n      tag_328\n        /* \"#utility.yul\":11217:11221   */\n      dup2\n        /* \"#utility.yul\":11208:11214   */\n      dup6\n        /* \"#utility.yul\":11144:11222   */\n      tag_189\n      jump\t// in\n    tag_328:\n        /* \"#utility.yul\":11136:11222   */\n      swap1\n      pop\n        /* \"#utility.yul\":11270:11279   */\n      dup2\n        /* \"#utility.yul\":11264:11268   */\n      dup2\n        /* \"#utility.yul\":11260:11280   */\n      sub\n        /* \"#utility.yul\":11254:11257   */\n      0xa0\n        /* \"#utility.yul\":11243:11252   */\n      dup4\n        /* \"#utility.yul\":11239:11258   */\n      add\n        /* \"#utility.yul\":11232:11281   */\n      mstore\n        /* \"#utility.yul\":11298:11376   */\n      tag_329\n        /* \"#utility.yul\":11371:11375   */\n      dup2\n        /* \"#utility.yul\":11362:11368   */\n      dup5\n        /* \"#utility.yul\":11298:11376   */\n      tag_189\n      jump\t// in\n    tag_329:\n        /* \"#utility.yul\":11290:11376   */\n      swap1\n      pop\n        /* \"#utility.yul\":10153:11383   */\n      swap8\n      swap7\n      pop\n      pop\n      pop\n      pop\n      pop\n      pop\n      pop\n      jump\t// out\n        /* \"#utility.yul\":11389:11629   */\n    tag_190:\n        /* \"#utility.yul\":11529:11563   */\n      0x4f6e6c7920746865204865616c7468636172652050726f76696465722063616e\n        /* \"#utility.yul\":11525:11526   */\n      0x00\n        /* \"#utility.yul\":11517:11523   */\n      dup3\n        /* \"#utility.yul\":11513:11527   */\n      add\n        /* \"#utility.yul\":11506:11564   */\n      mstore\n        /* \"#utility.yul\":11598:11621   */\n      0x20706572666f726d207468697320616374696f6e2e0000000000000000000000\n        /* \"#utility.yul\":11593:11595   */\n      0x20\n        /* \"#utility.yul\":11585:11591   */\n      dup3\n        /* \"#utility.yul\":11581:11596   */\n      add\n        /* \"#utility.yul\":11574:11622   */\n      mstore\n        /* \"#utility.yul\":11389:11629   */\n      pop\n      jump\t// out\n        /* \"#utility.yul\":11635:12001   */\n    tag_191:\n        /* \"#utility.yul\":11777:11780   */\n      0x00\n        /* \"#utility.yul\":11798:11865   */\n      tag_332\n        /* \"#utility.yul\":11862:11864   */\n      0x35\n        /* \"#utility.yul\":11857:11860   */\n      dup4\n        /* \"#utility.yul\":11798:11865   */\n      tag_187\n      jump\t// in\n    tag_332:\n        /* \"#utility.yul\":11791:11865   */\n      swap2\n      pop\n        /* \"#utility.yul\":11874:11967   */\n      tag_333\n        /* \"#utility.yul\":11963:11966   */\n      dup3\n        /* \"#utility.yul\":11874:11967   */\n      tag_190\n      jump\t// in\n    tag_333:\n        /* \"#utility.yul\":11992:11994   */\n      0x40\n        /* \"#utility.yul\":11987:11990   */\n      dup3\n        /* \"#utility.yul\":11983:11995   */\n      add\n        /* \"#utility.yul\":11976:11995   */\n      swap1\n      pop\n        /* \"#utility.yul\":11635:12001   */\n      swap2\n      swap1\n      pop\n      jump\t// out\n        /* \"#utility.yul\":12007:12426   */\n    tag_75:\n        /* \"#utility.yul\":12173:12177   */\n      0x00\n        /* \"#utility.yul\":12211:12213   */\n      0x20\n        /* \"#utility.yul\":12200:12209   */\n      dup3\n        /* \"#utility.yul\":12196:12214   */\n      add\n        /* \"#utility.yul\":12188:12214   */\n      swap1\n      pop\n        /* \"#utility.yul\":12260:12269   */\n      dup2\n        /* \"#utility.yul\":12254:12258   */\n      dup2\n        /* \"#utility.yul\":12250:12270   */\n      sub\n        /* \"#utility.yul\":12246:12247   */\n      0x00\n        /* \"#utility.yul\":12235:12244   */\n      dup4\n        /* \"#utility.yul\":12231:12248   */\n      add\n        /* \"#utility.yul\":12224:12271   */\n      mstore\n        /* \"#utility.yul\":12288:12419   */\n      tag_335\n        /* \"#utility.yul\":12414:12418   */\n      dup2\n        /* \"#utility.yul\":12288:12419   */\n      tag_191\n      jump\t// in\n    tag_335:\n        /* \"#utility.yul\":12280:12419   */\n      swap1\n      pop\n        /* \"#utility.yul\":12007:12426   */\n      swap2\n      swap1\n      pop\n      jump\t// out\n        /* \"#utility.yul\":12432:12612   */\n    tag_192:\n        /* \"#utility.yul\":12480:12557   */\n      0x4e487b7100000000000000000000000000000000000000000000000000000000\n        /* \"#utility.yul\":12477:12478   */\n      0x00\n        /* \"#utility.yul\":12470:12558   */\n      mstore\n        /* \"#utility.yul\":12577:12581   */\n      0x22\n        /* \"#utility.yul\":12574:12575   */\n      0x04\n        /* \"#utility.yul\":12567:12582   */\n      mstore\n        /* \"#utility.yul\":12601:12605   */\n      0x24\n        /* \"#utility.yul\":12598:12599   */\n      0x00\n        /* \"#utility.yul\":12591:12606   */\n      revert\n        /* \"#utility.yul\":12618:12938   */\n    tag_94:\n        /* \"#utility.yul\":12662:12668   */\n      0x00\n        /* \"#utility.yul\":12699:12700   */\n      0x02\n        /* \"#utility.yul\":12693:12697   */\n      dup3\n        /* \"#utility.yul\":12689:12701   */\n      div\n        /* \"#utility.yul\":12679:12701   */\n      swap1\n      pop\n        /* \"#utility.yul\":12746:12747   */\n      0x01\n        /* \"#utility.yul\":12740:12744   */\n      dup3\n        /* \"#utility.yul\":12736:12748   */\n      and\n        /* \"#utility.yul\":12767:12785   */\n      dup1\n        /* \"#utility.yul\":12757:12838   */\n      tag_338\n      jumpi\n        /* \"#utility.yul\":12823:12827   */\n      0x7f\n        /* \"#utility.yul\":12815:12821   */\n      dup3\n        /* \"#utility.yul\":12811:12828   */\n      and\n        /* \"#utility.yul\":12801:12828   */\n      swap2\n      pop\n        /* \"#utility.yul\":12757:12838   */\n    tag_338:\n        /* \"#utility.yul\":12885:12887   */\n      0x20\n        /* \"#utility.yul\":12877:12883   */\n      dup3\n        /* \"#utility.yul\":12874:12888   */\n      lt\n        /* \"#utility.yul\":12854:12872   */\n      dup2\n        /* \"#utility.yul\":12851:12889   */\n      sub\n        /* \"#utility.yul\":12848:12932   */\n      tag_339\n      jumpi\n        /* \"#utility.yul\":12904:12922   */\n      tag_340\n      tag_192\n      jump\t// in\n    tag_340:\n        /* \"#utility.yul\":12848:12932   */\n    tag_339:\n        /* \"#utility.yul\":12669:12938   */\n      pop\n        /* \"#utility.yul\":12618:12938   */\n      swap2\n      swap1\n      pop\n      jump\t// out\n        /* \"#utility.yul\":12944:13085   */\n    tag_193:\n        /* \"#utility.yul\":12993:12997   */\n      0x00\n        /* \"#utility.yul\":13016:13019   */\n      dup2\n        /* \"#utility.yul\":13008:13019   */\n      swap1\n      pop\n        /* \"#utility.yul\":13039:13042   */\n      dup2\n        /* \"#utility.yul\":13036:13037   */\n      0x00\n        /* \"#utility.yul\":13029:13043   */\n      mstore\n        /* \"#utility.yul\":13073:13077   */\n      0x20\n        /* \"#utility.yul\":13070:13071   */\n      0x00\n        /* \"#utility.yul\":13060:13078   */\n      keccak256\n        /* \"#utility.yul\":13052:13078   */\n      swap1\n      pop\n        /* \"#utility.yul\":12944:13085   */\n      swap2\n      swap1\n      pop\n      jump\t// out\n        /* \"#utility.yul\":13091:13184   */\n    tag_194:\n        /* \"#utility.yul\":13128:13134   */\n      0x00\n        /* \"#utility.yul\":13175:13177   */\n      0x20\n        /* \"#utility.yul\":13170:13172   */\n      0x1f\n        /* \"#utility.yul\":13163:13168   */\n      dup4\n        /* \"#utility.yul\":13159:13173   */\n      add\n        /* \"#utility.yul\":13155:13178   */\n      div\n        /* \"#utility.yul\":13145:13178   */\n      swap1\n      pop\n        /* \"#utility.yul\":13091:13184   */\n      swap2\n      swap1\n      pop\n      jump\t// out\n        /* \"#utility.yul\":13190:13297   */\n    tag_195:\n        /* \"#utility.yul\":13234:13242   */\n      0x00\n        /* \"#utility.yul\":13284:13289   */\n      dup3\n        /* \"#utility.yul\":13278:13282   */\n      dup3\n        /* \"#utility.yul\":13274:13290   */\n      shl\n        /* \"#utility.yul\":13253:13290   */\n      swap1\n      pop\n        /* \"#utility.yul\":13190:13297   */\n      swap3\n      swap2\n      pop\n      pop\n      jump\t// out\n        /* \"#utility.yul\":13303:13696   */\n    tag_196:\n        /* \"#utility.yul\":13372:13378   */\n      0x00\n        /* \"#utility.yul\":13422:13423   */\n      0x08\n        /* \"#utility.yul\":13410:13420   */\n      dup4\n        /* \"#utility.yul\":13406:13424   */\n      mul\n        /* \"#utility.yul\":13445:13542   */\n      tag_345\n        /* \"#utility.yul\":13475:13541   */\n      0xffffffffffffffffffffffffffffffffffffffffffffffffffffffffffffffff\n        /* \"#utility.yul\":13464:13473   */\n      dup3\n        /* \"#utility.yul\":13445:13542   */\n      tag_195\n      jump\t// in\n    tag_345:\n        /* \"#utility.yul\":13563:13602   */\n      tag_346\n        /* \"#utility.yul\":13593:13601   */\n      dup7\n        /* \"#utility.yul\":13582:13591   */\n      dup4\n        /* \"#utility.yul\":13563:13602   */\n      tag_195\n      jump\t// in\n    tag_346:\n        /* \"#utility.yul\":13551:13602   */\n      swap6\n      pop\n        /* \"#utility.yul\":13635:13639   */\n      dup1\n        /* \"#utility.yul\":13631:13640   */\n      not\n        /* \"#utility.yul\":13624:13629   */\n      dup5\n        /* \"#utility.yul\":13620:13641   */\n      and\n        /* \"#utility.yul\":13611:13641   */\n      swap4\n      pop\n        /* \"#utility.yul\":13684:13688   */\n      dup1\n        /* \"#utility.yul\":13674:13682   */\n      dup7\n        /* \"#utility.yul\":13670:13689   */\n      and\n        /* \"#utility.yul\":13663:13668   */\n      dup5\n        /* \"#utility.yul\":13660:13690   */\n      or\n        /* \"#utility.yul\":13650:13690   */\n      swap3\n      pop\n        /* \"#utility.yul\":13379:13696   */\n      pop\n      pop\n        /* \"#utility.yul\":13303:13696   */\n      swap4\n      swap3\n      pop\n      pop\n      pop\n      jump\t// out\n        /* \"#utility.yul\":13702:13762   */\n    tag_197:\n        /* \"#utility.yul\":13730:13733   */\n      0x00\n        /* \"#utility.yul\":13751:13756   */\n      dup2\n        /* \"#utility.yul\":13744:13756   */\n      swap1\n      pop\n        /* \"#utility.yul\":13702:13762   */\n      swap2\n      swap1\n      pop\n      jump\t// out\n        /* \"#utility.yul\":13768:13910   */\n    tag_198:\n        /* \"#utility.yul\":13818:13827   */\n      0x00\n        /* \"#utility.yul\":13851:13904   */\n      tag_349\n        /* \"#utility.yul\":13869:13903   */\n      tag_350\n        /* \"#utility.yul\":13878:13902   */\n      tag_351\n        /* \"#utility.yul\":13896:13901   */\n      dup5\n        /* \"#utility.yul\":13878:13902   */\n      tag_166\n      jump\t// in\n    tag_351:\n        /* \"#utility.yul\":13869:13903   */\n      tag_197\n      jump\t// in\n    tag_350:\n        /* \"#utility.yul\":13851:13904   */\n      tag_166\n      jump\t// in\n    tag_349:\n        /* \"#utility.yul\":13838:13904   */\n      swap1\n      pop\n        /* \"#utility.yul\":13768:13910   */\n      swap2\n      swap1\n      pop\n      jump\t// out\n        /* \"#utility.yul\":13916:13991   */\n    tag_199:\n        /* \"#utility.yul\":13959:13962   */\n      0x00\n        /* \"#utility.yul\":13980:13985   */\n      dup2\n        /* \"#utility.yul\":13973:13985   */\n      swap1\n      pop\n        /* \"#utility.yul\":13916:13991   */\n      swap2\n      swap1\n      pop\n      jump\t// out\n        /* \"#utility.yul\":13997:14266   */\n    tag_200:\n        /* \"#utility.yul\":14107:14146   */\n      tag_354\n        /* \"#utility.yul\":14138:14145   */\n      dup4\n        /* \"#utility.yul\":14107:14146   */\n      tag_198\n      jump\t// in\n    tag_354:\n        /* \"#utility.yul\":14168:14259   */\n      tag_355\n        /* \"#utility.yul\":14217:14258   */\n      tag_356\n        /* \"#utility.yul\":14241:14257   */\n      dup3\n        /* \"#utility.yul\":14217:14258   */\n      tag_199\n      jump\t// in\n    tag_356:\n        /* \"#utility.yul\":14209:14215   */\n      dup5\n        /* \"#utility.yul\":14202:14206   */\n      dup5\n        /* \"#utility.yul\":14196:14207   */\n      sload\n        /* \"#utility.yul\":14168:14259   */\n      tag_196\n      jump\t// in\n    tag_355:\n        /* \"#utility.yul\":14162:14166   */\n      dup3\n        /* \"#utility.yul\":14155:14260   */\n      sstore\n        /* \"#utility.yul\":14073:14266   */\n      pop\n        /* \"#utility.yul\":13997:14266   */\n      pop\n      pop\n      pop\n      jump\t// out\n        /* \"#utility.yul\":14272:14345   */\n    tag_201:\n        /* \"#utility.yul\":14317:14320   */\n      0x00\n        /* \"#utility.yul\":14272:14345   */\n      swap1\n      jump\t// out\n        /* \"#utility.yul\":14351:14540   */\n    tag_202:\n        /* \"#utility.yul\":14428:14460   */\n      tag_359\n      tag_201\n      jump\t// in\n    tag_359:\n        /* \"#utility.yul\":14469:14534   */\n      tag_360\n        /* \"#utility.yul\":14527:14533   */\n      dup2\n        /* \"#utility.yul\":14519:14525   */\n      dup5\n        /* \"#utility.yul\":14513:14517   */\n      dup5\n        /* \"#utility.yul\":14469:14534   */\n      tag_200\n      jump\t// in\n    tag_360:\n        /* \"#utility.yul\":14404:14540   */\n      pop\n        /* \"#utility.yul\":14351:14540   */\n      pop\n      pop\n      jump\t// out\n        /* \"#utility.yul\":14546:14732   */\n    tag_203:\n        /* \"#utility.yul\":14606:14726   */\n    tag_362:\n        /* \"#utility.yul\":14623:14626   */\n      dup2\n        /* \"#utility.yul\":14616:14621   */\n      dup2\n        /* \"#utility.yul\":14613:14627   */\n      lt\n        /* \"#utility.yul\":14606:14726   */\n      iszero\n      tag_364\n      jumpi\n        /* \"#utility.yul\":14677:14716   */\n      tag_365\n        /* \"#utility.yul\":14714:14715   */\n      0x00\n        /* \"#utility.yul\":14707:14712   */\n      dup3\n        /* \"#utility.yul\":14677:14716   */\n      tag_202\n      jump\t// in\n    tag_365:\n        /* \"#utility.yul\":14650:14651   */\n      0x01\n        /* \"#utility.yul\":14643:14648   */\n      dup2\n        /* \"#utility.yul\":14639:14652   */\n      add\n        /* \"#utility.yul\":14630:14652   */\n      swap1\n      pop\n        /* \"#utility.yul\":14606:14726   */\n      jump(tag_362)\n    tag_364:\n        /* \"#utility.yul\":14546:14732   */\n      pop\n      pop\n      jump\t// out\n        /* \"#utility.yul\":14738:15281   */\n    tag_204:\n        /* \"#utility.yul\":14839:14841   */\n      0x1f\n        /* \"#utility.yul\":14834:14837   */\n      dup3\n        /* \"#utility.yul\":14831:14842   */\n      gt\n        /* \"#utility.yul\":14828:15274   */\n      iszero\n      tag_367\n      jumpi\n        /* \"#utility.yul\":14873:14911   */\n      tag_368\n        /* \"#utility.yul\":14905:14910   */\n      dup2\n        /* \"#utility.yul\":14873:14911   */\n      tag_193\n      jump\t// in\n    tag_368:\n        /* \"#utility.yul\":14957:14986   */\n      tag_369\n        /* \"#utility.yul\":14975:14985   */\n      dup5\n        /* \"#utility.yul\":14957:14986   */\n      tag_194\n      jump\t// in\n    tag_369:\n        /* \"#utility.yul\":14947:14955   */\n      dup2\n        /* \"#utility.yul\":14943:14987   */\n      add\n        /* \"#utility.yul\":15140:15142   */\n      0x20\n        /* \"#utility.yul\":15128:15138   */\n      dup6\n        /* \"#utility.yul\":15125:15143   */\n      lt\n        /* \"#utility.yul\":15122:15171   */\n      iszero\n      tag_370\n      jumpi\n        /* \"#utility.yul\":15161:15169   */\n      dup2\n        /* \"#utility.yul\":15146:15169   */\n      swap1\n      pop\n        /* \"#utility.yul\":15122:15171   */\n    tag_370:\n        /* \"#utility.yul\":15184:15264   */\n      tag_371\n        /* \"#utility.yul\":15240:15262   */\n      tag_372\n        /* \"#utility.yul\":15258:15261   */\n      dup6\n        /* \"#utility.yul\":15240:15262   */\n      tag_194\n      jump\t// in\n    tag_372:\n        /* \"#utility.yul\":15230:15238   */\n      dup4\n        /* \"#utility.yul\":15226:15263   */\n      add\n        /* \"#utility.yul\":15213:15224   */\n      dup3\n        /* \"#utility.yul\":15184:15264   */\n      tag_203\n      jump\t// in\n    tag_371:\n        /* \"#utility.yul\":14843:15274   */\n      pop\n      pop\n        /* \"#utility.yul\":14828:15274   */\n    tag_367:\n        /* \"#utility.yul\":14738:15281   */\n      pop\n      pop\n      pop\n      jump\t// out\n        /* \"#utility.yul\":15287:15404   */\n    tag_205:\n        /* \"#utility.yul\":15341:15349   */\n      0x00\n        /* \"#utility.yul\":15391:15396   */\n      dup3\n        /* \"#utility.yul\":15385:15389   */\n      dup3\n        /* \"#utility.yul\":15381:15397   */\n      shr\n        /* \"#utility.yul\":15360:15397   */\n      swap1\n      pop\n        /* \"#utility.yul\":15287:15404   */\n      swap3\n      swap2\n      pop\n      pop\n      jump\t// out\n        /* \"#utility.yul\":15410:15579   */\n    tag_206:\n        /* \"#utility.yul\":15454:15460   */\n      0x00\n        /* \"#utility.yul\":15487:15538   */\n      tag_375\n        /* \"#utility.yul\":15535:15536   */\n      0x00\n        /* \"#utility.yul\":15531:15537   */\n      not\n        /* \"#utility.yul\":15523:15528   */\n      dup5\n        /* \"#utility.yul\":15520:15521   */\n      0x08\n        /* \"#utility.yul\":15516:15529   */\n      mul\n        /* \"#utility.yul\":15487:15538   */\n      tag_205\n      jump\t// in\n    tag_375:\n        /* \"#utility.yul\":15483:15539   */\n      not\n        /* \"#utility.yul\":15568:15572   */\n      dup1\n        /* \"#utility.yul\":15562:15566   */\n      dup4\n        /* \"#utility.yul\":15558:15573   */\n      and\n        /* \"#utility.yul\":15548:15573   */\n      swap2\n      pop\n        /* \"#utility.yul\":15461:15579   */\n      pop\n        /* \"#utility.yul\":15410:15579   */\n      swap3\n      swap2\n      pop\n      pop\n      jump\t// out\n        /* \"#utility.yul\":15584:15879   */\n    tag_207:\n        /* \"#utility.yul\":15660:15664   */\n      0x00\n        /* \"#utility.yul\":15806:15835   */\n      tag_377\n        /* \"#utility.yul\":15831:15834   */\n      dup4\n        /* \"#utility.yul\":15825:15829   */\n      dup4\n        /* \"#utility.yul\":15806:15835   */\n      tag_206\n      jump\t// in\n    tag_377:\n        /* \"#utility.yul\":15798:15835   */\n      swap2\n      pop\n        /* \"#utility.yul\":15868:15871   */\n      dup3\n        /* \"#utility.yul\":15865:15866   */\n      0x02\n        /* \"#utility.yul\":15861:15872   */\n      mul\n        /* \"#utility.yul\":15855:15859   */\n      dup3\n        /* \"#utility.yul\":15852:15873   */\n      or\n        /* \"#utility.yul\":15844:15873   */\n      swap1\n      pop\n        /* \"#utility.yul\":15584:15879   */\n      swap3\n      swap2\n      pop\n      pop\n      jump\t// out\n        /* \"#utility.yul\":15884:17279   */\n    tag_78:\n        /* \"#utility.yul\":16001:16038   */\n      tag_379\n        /* \"#utility.yul\":16034:16037   */\n      dup3\n        /* \"#utility.yul\":16001:16038   */\n      tag_186\n      jump\t// in\n    tag_379:\n        /* \"#utility.yul\":16103:16121   */\n      0xffffffffffffffff\n        /* \"#utility.yul\":16095:16101   */\n      dup2\n        /* \"#utility.yul\":16092:16122   */\n      gt\n        /* \"#utility.yul\":16089:16145   */\n      iszero\n      tag_380\n      jumpi\n        /* \"#utility.yul\":16125:16143   */\n      tag_381\n      tag_177\n      jump\t// in\n    tag_381:\n        /* \"#utility.yul\":16089:16145   */\n    tag_380:\n        /* \"#utility.yul\":16169:16207   */\n      tag_382\n        /* \"#utility.yul\":16201:16205   */\n      dup3\n        /* \"#utility.yul\":16195:16206   */\n      sload\n        /* \"#utility.yul\":16169:16207   */\n      tag_94\n      jump\t// in\n    tag_382:\n        /* \"#utility.yul\":16254:16321   */\n      tag_383\n        /* \"#utility.yul\":16314:16320   */\n      dup3\n        /* \"#utility.yul\":16306:16312   */\n      dup3\n        /* \"#utility.yul\":16300:16304   */\n      dup6\n        /* \"#utility.yul\":16254:16321   */\n      tag_204\n      jump\t// in\n    tag_383:\n        /* \"#utility.yul\":16348:16349   */\n      0x00\n        /* \"#utility.yul\":16372:16376   */\n      0x20\n        /* \"#utility.yul\":16359:16376   */\n      swap1\n      pop\n        /* \"#utility.yul\":16404:16406   */\n      0x1f\n        /* \"#utility.yul\":16396:16402   */\n      dup4\n        /* \"#utility.yul\":16393:16407   */\n      gt\n        /* \"#utility.yul\":16421:16422   */\n      0x01\n        /* \"#utility.yul\":16416:17034   */\n      dup2\n      eq\n      tag_385\n      jumpi\n        /* \"#utility.yul\":17078:17079   */\n      0x00\n        /* \"#utility.yul\":17095:17101   */\n      dup5\n        /* \"#utility.yul\":17092:17169   */\n      iszero\n      tag_386\n      jumpi\n        /* \"#utility.yul\":17144:17153   */\n      dup3\n        /* \"#utility.yul\":17139:17142   */\n      dup8\n        /* \"#utility.yul\":17135:17154   */\n      add\n        /* \"#utility.yul\":17129:17155   */\n      mload\n        /* \"#utility.yul\":17120:17155   */\n      swap1\n      pop\n        /* \"#utility.yul\":17092:17169   */\n    tag_386:\n        /* \"#utility.yul\":17195:17262   */\n      tag_387\n        /* \"#utility.yul\":17255:17261   */\n      dup6\n        /* \"#utility.yul\":17248:17253   */\n      dup3\n        /* \"#utility.yul\":17195:17262   */\n      tag_207\n      jump\t// in\n    tag_387:\n        /* \"#utility.yul\":17189:17193   */\n      dup7\n        /* \"#utility.yul\":17182:17263   */\n      sstore\n        /* \"#utility.yul\":17051:17273   */\n      pop\n        /* \"#utility.yul\":16386:17273   */\n      jump(tag_384)\n        /* \"#utility.yul\":16416:17034   */\n    tag_385:\n        /* \"#utility.yul\":16468:16472   */\n      0x1f\n        /* \"#utility.yul\":16464:16473   */\n      not\n        /* \"#utility.yul\":16456:16462   */\n      dup5\n        /* \"#utility.yul\":16452:16474   */\n      and\n        /* \"#utility.yul\":16502:16539   */\n      tag_388\n        /* \"#utility.yul\":16534:16538   */\n      dup7\n        /* \"#utility.yul\":16502:16539   */\n      tag_193\n      jump\t// in\n    tag_388:\n        /* \"#utility.yul\":16561:16562   */\n      0x00\n        /* \"#utility.yul\":16575:16783   */\n    tag_389:\n        /* \"#utility.yul\":16589:16596   */\n      dup3\n        /* \"#utility.yul\":16586:16587   */\n      dup2\n        /* \"#utility.yul\":16583:16597   */\n      lt\n        /* \"#utility.yul\":16575:16783   */\n      iszero\n      tag_391\n      jumpi\n        /* \"#utility.yul\":16668:16677   */\n      dup5\n        /* \"#utility.yul\":16663:16666   */\n      dup10\n        /* \"#utility.yul\":16659:16678   */\n      add\n        /* \"#utility.yul\":16653:16679   */\n      mload\n        /* \"#utility.yul\":16645:16651   */\n      dup3\n        /* \"#utility.yul\":16638:16680   */\n      sstore\n        /* \"#utility.yul\":16719:16720   */\n      0x01\n        /* \"#utility.yul\":16711:16717   */\n      dup3\n        /* \"#utility.yul\":16707:16721   */\n      add\n        /* \"#utility.yul\":16697:16721   */\n      swap2\n      pop\n        /* \"#utility.yul\":16766:16768   */\n      0x20\n        /* \"#utility.yul\":16755:16764   */\n      dup6\n        /* \"#utility.yul\":16751:16769   */\n      add\n        /* \"#utility.yul\":16738:16769   */\n      swap5\n      pop\n        /* \"#utility.yul\":16612:16616   */\n      0x20\n        /* \"#utility.yul\":16609:16610   */\n      dup2\n        /* \"#utility.yul\":16605:16617   */\n      add\n        /* \"#utility.yul\":16600:16617   */\n      swap1\n      pop\n        /* \"#utility.yul\":16575:16783   */\n      jump(tag_389)\n    tag_391:\n        /* \"#utility.yul\":16811:16817   */\n      dup7\n        /* \"#utility.yul\":16802:16809   */\n      dup4\n        /* \"#utility.yul\":16799:16818   */\n      lt\n        /* \"#utility.yul\":16796:16975   */\n      iszero\n      tag_392\n      jumpi\n        /* \"#utility.yul\":16869:16878   */\n      dup5\n        /* \"#utility.yul\":16864:16867   */\n      dup10\n        /* \"#utility.yul\":16860:16879   */\n      add\n        /* \"#utility.yul\":16854:16880   */\n      mload\n        /* \"#utility.yul\":16912:16960   */\n      tag_393\n        /* \"#utility.yul\":16954:16958   */\n      0x1f\n        /* \"#utility.yul\":16946:16952   */\n      dup10\n        /* \"#utility.yul\":16942:16959   */\n      and\n        /* \"#utility.yul\":16931:16940   */\n      dup3\n        /* \"#utility.yul\":16912:16960   */\n      tag_206\n      jump\t// in\n    tag_393:\n        /* \"#utility.yul\":16904:16910   */\n      dup4\n        /* \"#utility.yul\":16897:16961   */\n      sstore\n        /* \"#utility.yul\":16819:16975   */\n      pop\n        /* \"#utility.yul\":16796:16975   */\n    tag_392:\n        /* \"#utility.yul\":17021:17022   */\n      0x01\n        /* \"#utility.yul\":17017:17018   */\n      0x02\n        /* \"#utility.yul\":17009:17015   */\n      dup9\n        /* \"#utility.yul\":17005:17019   */\n      mul\n        /* \"#utility.yul\":17001:17023   */\n      add\n        /* \"#utility.yul\":16995:16999   */\n      dup9\n        /* \"#utility.yul\":16988:17024   */\n      sstore\n        /* \"#utility.yul\":16423:17034   */\n      pop\n      pop\n      pop\n        /* \"#utility.yul\":16386:17273   */\n    tag_384:\n      pop\n        /* \"#utility.yul\":15976:17279   */\n      pop\n      pop\n      pop\n        /* \"#utility.yul\":15884:17279   */\n      pop\n      pop\n      jump\t// out\n        /* \"#utility.yul\":17285:17465   */\n    tag_208:\n        /* \"#utility.yul\":17333:17410   */\n      0x4e487b7100000000000000000000000000000000000000000000000000000000\n        /* \"#utility.yul\":17330:17331   */\n      0x00\n        /* \"#utility.yul\":17323:17411   */\n      mstore\n        /* \"#utility.yul\":17430:17434   */\n      0x11\n        /* \"#utility.yul\":17427:17428   */\n      0x04\n        /* \"#utility.yul\":17420:17435   */\n      mstore\n        /* \"#utility.yul\":17454:17458   */\n      0x24\n        /* \"#utility.yul\":17451:17452   */\n      0x00\n        /* \"#utility.yul\":17444:17459   */\n      revert\n        /* \"#utility.yul\":17471:17704   */\n    tag_80:\n        /* \"#utility.yul\":17510:17513   */\n      0x00\n        /* \"#utility.yul\":17533:17557   */\n      tag_396\n        /* \"#utility.yul\":17551:17556   */\n      dup3\n        /* \"#utility.yul\":17533:17557   */\n      tag_166\n      jump\t// in\n    tag_396:\n        /* \"#utility.yul\":17524:17557   */\n      swap2\n      pop\n        /* \"#utility.yul\":17579:17645   */\n      0xffffffffffffffffffffffffffffffffffffffffffffffffffffffffffffffff\n        /* \"#utility.yul\":17572:17577   */\n      dup3\n        /* \"#utility.yul\":17569:17646   */\n      sub\n        /* \"#utility.yul\":17566:17669   */\n      tag_397\n      jumpi\n        /* \"#utility.yul\":17649:17667   */\n      tag_398\n      tag_208\n      jump\t// in\n    tag_398:\n        /* \"#utility.yul\":17566:17669   */\n    tag_397:\n        /* \"#utility.yul\":17696:17697   */\n      0x01\n        /* \"#utility.yul\":17689:17694   */\n      dup3\n        /* \"#utility.yul\":17685:17698   */\n      add\n        /* \"#utility.yul\":17678:17698   */\n      swap1\n      pop\n        /* \"#utility.yul\":17471:17704   */\n      swap2\n      swap1\n      pop\n      jump\t// out\n        /* \"#utility.yul\":17710:17883   */\n    tag_209:\n        /* \"#utility.yul\":17850:17875   */\n      0x50617469656e7420646f6573206e6f742065786973742e000000000000000000\n        /* \"#utility.yul\":17846:17847   */\n      0x00\n        /* \"#utility.yul\":17838:17844   */\n      dup3\n        /* \"#utility.yul\":17834:17848   */\n      add\n        /* \"#utility.yul\":17827:17876   */\n      mstore\n        /* \"#utility.yul\":17710:17883   */\n      pop\n      jump\t// out\n        /* \"#utility.yul\":17889:18255   */\n    tag_210:\n        /* \"#utility.yul\":18031:18034   */\n      0x00\n        /* \"#utility.yul\":18052:18119   */\n      tag_401\n        /* \"#utility.yul\":18116:18118   */\n      0x17\n        /* \"#utility.yul\":18111:18114   */\n      dup4\n        /* \"#utility.yul\":18052:18119   */\n      tag_187\n      jump\t// in\n    tag_401:\n        /* \"#utility.yul\":18045:18119   */\n      swap2\n      pop\n        /* \"#utility.yul\":18128:18221   */\n      tag_402\n        /* \"#utility.yul\":18217:18220   */\n      dup3\n        /* \"#utility.yul\":18128:18221   */\n      tag_209\n      jump\t// in\n    tag_402:\n        /* \"#utility.yul\":18246:18248   */\n      0x20\n        /* \"#utility.yul\":18241:18244   */\n      dup3\n        /* \"#utility.yul\":18237:18249   */\n      add\n        /* \"#utility.yul\":18230:18249   */\n      swap1\n      pop\n        /* \"#utility.yul\":17889:18255   */\n      swap2\n      swap1\n      pop\n      jump\t// out\n        /* \"#utility.yul\":18261:18680   */\n    tag_87:\n        /* \"#utility.yul\":18427:18431   */\n      0x00\n        /* \"#utility.yul\":18465:18467   */\n      0x20\n        /* \"#utility.yul\":18454:18463   */\n      dup3\n        /* \"#utility.yul\":18450:18468   */\n      add\n        /* \"#utility.yul\":18442:18468   */\n      swap1\n      pop\n        /* \"#utility.yul\":18514:18523   */\n      dup2\n        /* \"#utility.yul\":18508:18512   */\n      dup2\n        /* \"#utility.yul\":18504:18524   */\n      sub\n        /* \"#utility.yul\":18500:18501   */\n      0x00\n        /* \"#utility.yul\":18489:18498   */\n      dup4\n        /* \"#utility.yul\":18485:18502   */\n      add\n        /* \"#utility.yul\":18478:18525   */\n      mstore\n        /* \"#utility.yul\":18542:18673   */\n      tag_404\n        /* \"#utility.yul\":18668:18672   */\n      dup2\n        /* \"#utility.yul\":18542:18673   */\n      tag_210\n      jump\t// in\n    tag_404:\n        /* \"#utility.yul\":18534:18673   */\n      swap1\n      pop\n        /* \"#utility.yul\":18261:18680   */\n      swap2\n      swap1\n      pop\n      jump\t// out\n        /* \"#utility.yul\":18686:18857   */\n    tag_211:\n        /* \"#utility.yul\":18826:18849   */\n      0x496e76616c69642074726561746d656e742049442e0000000000000000000000\n        /* \"#utility.yul\":18822:18823   */\n      0x00\n        /* \"#utility.yul\":18814:18820   */\n      dup3\n        /* \"#utility.yul\":18810:18824   */\n      add\n        /* \"#utility.yul\":18803:18850   */\n      mstore\n        /* \"#utility.yul\":18686:18857   */\n      pop\n      jump\t// out\n        /* \"#utility.yul\":18863:19229   */\n    tag_212:\n        /* \"#utility.yul\":19005:19008   */\n      0x00\n        /* \"#utility.yul\":19026:19093   */\n      tag_407\n        /* \"#utility.yul\":19090:19092   */\n      0x15\n        /* \"#utility.yul\":19085:19088   */\n      dup4\n        /* \"#utility.yul\":19026:19093   */\n      tag_187\n      jump\t// in\n    tag_407:\n        /* \"#utility.yul\":19019:19093   */\n      swap2\n      pop\n        /* \"#utility.yul\":19102:19195   */\n      tag_408\n        /* \"#utility.yul\":19191:19194   */\n      dup3\n        /* \"#utility.yul\":19102:19195   */\n      tag_211\n      jump\t// in\n    tag_408:\n        /* \"#utility.yul\":19220:19222   */\n      0x20\n        /* \"#utility.yul\":19215:19218   */\n      dup3\n        /* \"#utility.yul\":19211:19223   */\n      add\n        /* \"#utility.yul\":19204:19223   */\n      swap1\n      pop\n        /* \"#utility.yul\":18863:19229   */\n      swap2\n      swap1\n      pop\n      jump\t// out\n        /* \"#utility.yul\":19235:19654   */\n    tag_102:\n        /* \"#utility.yul\":19401:19405   */\n      0x00\n        /* \"#utility.yul\":19439:19441   */\n      0x20\n        /* \"#utility.yul\":19428:19437   */\n      dup3\n        /* \"#utility.yul\":19424:19442   */\n      add\n        /* \"#utility.yul\":19416:19442   */\n      swap1\n      pop\n        /* \"#utility.yul\":19488:19497   */\n      dup2\n        /* \"#utility.yul\":19482:19486   */\n      dup2\n        /* \"#utility.yul\":19478:19498   */\n      sub\n        /* \"#utility.yul\":19474:19475   */\n      0x00\n        /* \"#utility.yul\":19463:19472   */\n      dup4\n        /* \"#utility.yul\":19459:19476   */\n      add\n        /* \"#utility.yul\":19452:19499   */\n      mstore\n        /* \"#utility.yul\":19516:19647   */\n      tag_410\n        /* \"#utility.yul\":19642:19646   */\n      dup2\n        /* \"#utility.yul\":19516:19647   */\n      tag_212\n      jump\t// in\n    tag_410:\n        /* \"#utility.yul\":19508:19647   */\n      swap1\n      pop\n        /* \"#utility.yul\":19235:19654   */\n      swap2\n      swap1\n      pop\n      jump\t// out\n        /* \"#utility.yul\":19660:19835   */\n    tag_213:\n        /* \"#utility.yul\":19800:19827   */\n      0x496e636f7272656374207061796d656e7420616d6f756e742e00000000000000\n        /* \"#utility.yul\":19796:19797   */\n      0x00\n        /* \"#utility.yul\":19788:19794   */\n      dup3\n        /* \"#utility.yul\":19784:19798   */\n      add\n        /* \"#utility.yul\":19777:19828   */\n      mstore\n        /* \"#utility.yul\":19660:19835   */\n      pop\n      jump\t// out\n        /* \"#utility.yul\":19841:20207   */\n    tag_214:\n        /* \"#utility.yul\":19983:19986   */\n      0x00\n        /* \"#utility.yul\":20004:20071   */\n      tag_413\n        /* \"#utility.yul\":20068:20070   */\n      0x19\n        /* \"#utility.yul\":20063:20066   */\n      dup4\n        /* \"#utility.yul\":20004:20071   */\n      tag_187\n      jump\t// in\n    tag_413:\n        /* \"#utility.yul\":19997:20071   */\n      swap2\n      pop\n        /* \"#utility.yul\":20080:20173   */\n      tag_414\n        /* \"#utility.yul\":20169:20172   */\n      dup3\n        /* \"#utility.yul\":20080:20173   */\n      tag_213\n      jump\t// in\n    tag_414:\n        /* \"#utility.yul\":20198:20200   */\n      0x20\n        /* \"#utility.yul\":20193:20196   */\n      dup3\n        /* \"#utility.yul\":20189:20201   */\n      add\n        /* \"#utility.yul\":20182:20201   */\n      swap1\n      pop\n        /* \"#utility.yul\":19841:20207   */\n      swap2\n      swap1\n      pop\n      jump\t// out\n        /* \"#utility.yul\":20213:20632   */\n    tag_159:\n        /* \"#utility.yul\":20379:20383   */\n      0x00\n        /* \"#utility.yul\":20417:20419   */\n      0x20\n        /* \"#utility.yul\":20406:20415   */\n      dup3\n        /* \"#utility.yul\":20402:20420   */\n      add\n        /* \"#utility.yul\":20394:20420   */\n      swap1\n      pop\n        /* \"#utility.yul\":20466:20475   */\n      dup2\n        /* \"#utility.yul\":20460:20464   */\n      dup2\n        /* \"#utility.yul\":20456:20476   */\n      sub\n        /* \"#utility.yul\":20452:20453   */\n      0x00\n        /* \"#utility.yul\":20441:20450   */\n      dup4\n        /* \"#utility.yul\":20437:20454   */\n      add\n        /* \"#utility.yul\":20430:20477   */\n      mstore\n        /* \"#utility.yul\":20494:20625   */\n      tag_416\n        /* \"#utility.yul\":20620:20624   */\n      dup2\n        /* \"#utility.yul\":20494:20625   */\n      tag_214\n      jump\t// in\n    tag_416:\n        /* \"#utility.yul\":20486:20625   */\n      swap1\n      pop\n        /* \"#utility.yul\":20213:20632   */\n      swap2\n      swap1\n      pop\n      jump\t// out\n        /* \"#utility.yul\":20638:20829   */\n    tag_161:\n        /* \"#utility.yul\":20678:20681   */\n      0x00\n        /* \"#utility.yul\":20697:20717   */\n      tag_418\n        /* \"#utility.yul\":20715:20716   */\n      dup3\n        /* \"#utility.yul\":20697:20717   */\n      tag_166\n      jump\t// in\n    tag_418:\n        /* \"#utility.yul\":20692:20717   */\n      swap2\n      pop\n        /* \"#utility.yul\":20731:20751   */\n      tag_419\n        /* \"#utility.yul\":20749:20750   */\n      dup4\n        /* \"#utility.yul\":20731:20751   */\n      tag_166\n      jump\t// in\n    tag_419:\n        /* \"#utility.yul\":20726:20751   */\n      swap3\n      pop\n        /* \"#utility.yul\":20774:20775   */\n      dup3\n        /* \"#utility.yul\":20771:20772   */\n      dup3\n        /* \"#utility.yul\":20767:20776   */\n      add\n        /* \"#utility.yul\":20760:20776   */\n      swap1\n      pop\n        /* \"#utility.yul\":20795:20798   */\n      dup1\n        /* \"#utility.yul\":20792:20793   */\n      dup3\n        /* \"#utility.yul\":20789:20799   */\n      gt\n        /* \"#utility.yul\":20786:20822   */\n      iszero\n      tag_420\n      jumpi\n        /* \"#utility.yul\":20802:20820   */\n      tag_421\n      tag_208\n      jump\t// in\n    tag_421:\n        /* \"#utility.yul\":20786:20822   */\n    tag_420:\n        /* \"#utility.yul\":20638:20829   */\n      swap3\n      swap2\n      pop\n      pop\n      jump\t// out\n        /* \"#utility.yul\":20835:21277   */\n    tag_163:\n        /* \"#utility.yul\":20984:20988   */\n      0x00\n        /* \"#utility.yul\":21022:21024   */\n      0x60\n        /* \"#utility.yul\":21011:21020   */\n      dup3\n        /* \"#utility.yul\":21007:21025   */\n      add\n        /* \"#utility.yul\":20999:21025   */\n      swap1\n      pop\n        /* \"#utility.yul\":21035:21106   */\n      tag_423\n        /* \"#utility.yul\":21103:21104   */\n      0x00\n        /* \"#utility.yul\":21092:21101   */\n      dup4\n        /* \"#utility.yul\":21088:21105   */\n      add\n        /* \"#utility.yul\":21079:21085   */\n      dup7\n        /* \"#utility.yul\":21035:21106   */\n      tag_170\n      jump\t// in\n    tag_423:\n        /* \"#utility.yul\":21116:21188   */\n      tag_424\n        /* \"#utility.yul\":21184:21186   */\n      0x20\n        /* \"#utility.yul\":21173:21182   */\n      dup4\n        /* \"#utility.yul\":21169:21187   */\n      add\n        /* \"#utility.yul\":21160:21166   */\n      dup6\n        /* \"#utility.yul\":21116:21188   */\n      tag_167\n      jump\t// in\n    tag_424:\n        /* \"#utility.yul\":21198:21270   */\n      tag_425\n        /* \"#utility.yul\":21266:21268   */\n      0x40\n        /* \"#utility.yul\":21255:21264   */\n      dup4\n        /* \"#utility.yul\":21251:21269   */\n      add\n        /* \"#utility.yul\":21242:21248   */\n      dup5\n        /* \"#utility.yul\":21198:21270   */\n      tag_167\n      jump\t// in\n    tag_425:\n        /* \"#utility.yul\":20835:21277   */\n      swap5\n      swap4\n      pop\n      pop\n      pop\n      pop\n      jump\t// out\n        /* \"#utility.yul\":21283:21615   */\n    tag_165:\n        /* \"#utility.yul\":21404:21408   */\n      0x00\n        /* \"#utility.yul\":21442:21444   */\n      0x40\n        /* \"#utility.yul\":21431:21440   */\n      dup3\n        /* \"#utility.yul\":21427:21445   */\n      add\n        /* \"#utility.yul\":21419:21445   */\n      swap1\n      pop\n        /* \"#utility.yul\":21455:21526   */\n      tag_427\n        /* \"#utility.yul\":21523:21524   */\n      0x00\n        /* \"#utility.yul\":21512:21521   */\n      dup4\n        /* \"#utility.yul\":21508:21525   */\n      add\n        /* \"#utility.yul\":21499:21505   */\n      dup6\n        /* \"#utility.yul\":21455:21526   */\n      tag_170\n      jump\t// in\n    tag_427:\n        /* \"#utility.yul\":21536:21608   */\n      tag_428\n        /* \"#utility.yul\":21604:21606   */\n      0x20\n        /* \"#utility.yul\":21593:21602   */\n      dup4\n        /* \"#utility.yul\":21589:21607   */\n      add\n        /* \"#utility.yul\":21580:21586   */\n      dup5\n        /* \"#utility.yul\":21536:21608   */\n      tag_167\n      jump\t// in\n    tag_428:\n        /* \"#utility.yul\":21283:21615   */\n      swap4\n      swap3\n      pop\n      pop\n      pop\n      jump\t// out\n\n    auxdata: 0xa264697066735822122069bf934d6a011f2df524b69d495c2e17c8a19f3bacf3b23a621bfef6b26dafe264736f6c634300081a0033\n}\n",
				"bytecode": {
					"linkReferences": {},
					"object": "6080604052348015600e575f80fd5b50335f806101000a81548173ffffffffffffffffffffffffffffffffffffffff021916908373ffffffffffffffffffffffffffffffffffffffff1602179055506119d38061005b5f395ff3fe6080604052600436106100a6575f3560e01c8063801f25c811610063578063801f25c8146101c8578063873273e9146101de57806393119a8314610206578063a0303c4114610247578063d075cd8d14610271578063f26c5f5f1461029b576100a6565b806323b1e21a146100aa57806324b285f9146100d457806331df8b0d146100fe5780634917d4e0146101265780635830189c1461014e578063729f1ded1461018b575b5f80fd5b3480156100b5575f80fd5b506100be6102b7565b6040516100cb9190610e50565b60405180910390f35b3480156100df575f80fd5b506100e86102bd565b6040516100f59190610ea8565b60405180910390f35b348015610109575f80fd5b50610124600480360381019061011f9190611038565b6102e0565b005b348015610131575f80fd5b5061014c60048036038101906101479190611092565b6103d1565b005b348015610159575f80fd5b50610174600480360381019061016f91906111bb565b610562565b604051610182929190611246565b60405180910390f35b348015610196575f80fd5b506101b160048036038101906101ac91906111bb565b610608565b6040516101bf929190611246565b60405180910390f35b3480156101d3575f80fd5b506101dc61071a565b005b3480156101e9575f80fd5b5061020460048036038101906101ff9190611274565b61081a565b005b348015610211575f80fd5b5061022c600480360381019061022791906111bb565b61097f565b60405161023e96959493929190611389565b60405180910390f35b348015610252575f80fd5b5061025b610c55565b6040516102689190610e50565b60405180910390f35b34801561027c575f80fd5b50610285610c5b565b6040516102929190610e50565b60405180910390f35b6102b560048036038101906102b091906111bb565b610c61565b005b60015481565b5f8054906101000a900473ffffffffffffffffffffffffffffffffffffffff1681565b5f8054906101000a900473ffffffffffffffffffffffffffffffffffffffff1673ffffffffffffffffffffffffffffffffffffffff163373ffffffffffffffffffffffffffffffffffffffff161461036d576040517f08c379a00000000000000000000000000000000000000000000000000000000081526004016103649061147b565b60405180910390fd5b60405180604001604052808381526020018281525060025f60035481526020019081526020015f205f820151815f0190816103a89190611693565b506020820151816001015590505060035f8154809291906103c89061178f565b91905055505050565b5f8054906101000a900473ffffffffffffffffffffffffffffffffffffffff1673ffffffffffffffffffffffffffffffffffffffff163373ffffffffffffffffffffffffffffffffffffffff161461045e576040517f08c379a00000000000000000000000000000000000000000000000000000000081526004016104559061147b565b60405180910390fd5b60055487106104a2576040517f08c379a000000000000000000000000000000000000000000000000000000000815260040161049990611820565b60405180910390fd5b6040518060c001604052808781526020018681526020018581526020018481526020018381526020018281525060045f8981526020019081526020015f205f820151815f0190816104f39190611693565b5060208201518160010190816105099190611693565b50604082015181600201908161051f9190611693565b5060608201518160030155608082015181600401908161053f9190611693565b5060a08201518160050190816105559190611693565b5090505050505050505050565b6002602052805f5260405f205f91509050805f018054610581906114c6565b80601f01602080910402602001604051908101604052809291908181526020018280546105ad906114c6565b80156105f85780601f106105cf576101008083540402835291602001916105f8565b820191905f5260205f20905b8154815290600101906020018083116105db57829003601f168201915b5050505050908060010154905082565b60605f600354831061064f576040517f08c379a000000000000000000000000000000000000000000000000000000000815260040161064690611888565b60405180910390fd5b5f60025f8581526020019081526020015f206040518060400160405290815f8201805461067b906114c6565b80601f01602080910402602001604051908101604052809291908181526020018280546106a7906114c6565b80156106f25780601f106106c9576101008083540402835291602001916106f2565b820191905f5260205f20905b8154815290600101906020018083116106d557829003601f168201915b505050505081526020016001820154815250509050805f015181602001519250925050915091565b5f8054906101000a900473ffffffffffffffffffffffffffffffffffffffff1673ffffffffffffffffffffffffffffffffffffffff163373ffffffffffffffffffffffffffffffffffffffff16146107a7576040517f08c379a000000000000000000000000000000000000000000000000000000000815260040161079e9061147b565b60405180910390fd5b5f60015490505f6001819055505f8054906101000a900473ffffffffffffffffffffffffffffffffffffffff1673ffffffffffffffffffffffffffffffffffffffff166108fc8290811502906040515f60405180830381858888f19350505050158015610816573d5f803e3d5ffd5b5050565b5f8054906101000a900473ffffffffffffffffffffffffffffffffffffffff1673ffffffffffffffffffffffffffffffffffffffff163373ffffffffffffffffffffffffffffffffffffffff16146108a7576040517f08c379a000000000000000000000000000000000000000000000000000000000815260040161089e9061147b565b60405180910390fd5b6040518060c001604052808781526020018681526020018581526020018481526020018381526020018281525060045f60055481526020019081526020015f205f820151815f0190816108fa9190611693565b5060208201518160010190816109109190611693565b5060408201518160020190816109269190611693565b506060820151816003015560808201518160040190816109469190611693565b5060a082015181600501908161095c9190611693565b5090505060055f8154809291906109729061178f565b9190505550505050505050565b6004602052805f5260405f205f91509050805f01805461099e906114c6565b80601f01602080910402602001604051908101604052809291908181526020018280546109ca906114c6565b8015610a155780601f106109ec57610100808354040283529160200191610a15565b820191905f5260205f20905b8154815290600101906020018083116109f857829003601f168201915b505050505090806001018054610a2a906114c6565b80601f0160208091040260200160405190810160405280929190818152602001828054610a56906114c6565b8015610aa15780601f10610a7857610100808354040283529160200191610aa1565b820191905f5260205f20905b815481529060010190602001808311610a8457829003601f168201915b505050505090806002018054610ab6906114c6565b80601f0160208091040260200160405190810160405280929190818152602001828054610ae2906114c6565b8015610b2d5780601f10610b0457610100808354040283529160200191610b2d565b820191905f5260205f20905b815481529060010190602001808311610b1057829003601f168201915b505050505090806003015490806004018054610b48906114c6565b80601f0160208091040260200160405190810160405280929190818152602001828054610b74906114c6565b8015610bbf5780601f10610b9657610100808354040283529160200191610bbf565b820191905f5260205f20905b815481529060010190602001808311610ba257829003601f168201915b505050505090806005018054610bd4906114c6565b80601f0160208091040260200160405190810160405280929190818152602001828054610c00906114c6565b8015610c4b5780601f10610c2257610100808354040283529160200191610c4b565b820191905f5260205f20905b815481529060010190602001808311610c2e57829003601f168201915b5050505050905086565b60055481565b60035481565b6003548110610ca5576040517f08c379a0000000000000000000000000000000000000000000000000000000008152600401610c9c90611888565b60405180910390fd5b5f60025f8381526020019081526020015f206040518060400160405290815f82018054610cd1906114c6565b80601f0160208091040260200160405190810160405280929190818152602001828054610cfd906114c6565b8015610d485780601f10610d1f57610100808354040283529160200191610d48565b820191905f5260205f20905b815481529060010190602001808311610d2b57829003601f168201915b5050505050815260200160018201548152505090505f81602001519050803414610da7576040517f08c379a0000000000000000000000000000000000000000000000000000000008152600401610d9e906118f0565b60405180910390fd5b3460015f828254610db8919061190e565b925050819055507f1043881dbbf263d8baa2517a839cebf6c342c6000321b5ca43b96040d90d240c338483604051610df293929190611941565b60405180910390a17f6ef95f06320e7a25a04a175ca677b7052bdd97131872c2192525a629f51be7703334604051610e2b929190611976565b60405180910390a1505050565b5f819050919050565b610e4a81610e38565b82525050565b5f602082019050610e635f830184610e41565b92915050565b5f73ffffffffffffffffffffffffffffffffffffffff82169050919050565b5f610e9282610e69565b9050919050565b610ea281610e88565b82525050565b5f602082019050610ebb5f830184610e99565b92915050565b5f604051905090565b5f80fd5b5f80fd5b5f80fd5b5f80fd5b5f601f19601f8301169050919050565b7f4e487b71000000000000000000000000000000000000000000000000000000005f52604160045260245ffd5b610f2082610eda565b810181811067ffffffffffffffff82111715610f3f57610f3e610eea565b5b80604052505050565b5f610f51610ec1565b9050610f5d8282610f17565b919050565b5f67ffffffffffffffff821115610f7c57610f7b610eea565b5b610f8582610eda565b9050602081019050919050565b828183375f83830152505050565b5f610fb2610fad84610f62565b610f48565b905082815260208101848484011115610fce57610fcd610ed6565b5b610fd9848285610f92565b509392505050565b5f82601f830112610ff557610ff4610ed2565b5b8135611005848260208601610fa0565b91505092915050565b61101781610e38565b8114611021575f80fd5b50565b5f813590506110328161100e565b92915050565b5f806040838503121561104e5761104d610eca565b5b5f83013567ffffffffffffffff81111561106b5761106a610ece565b5b61107785828601610fe1565b925050602061108885828601611024565b9150509250929050565b5f805f805f805f60e0888a0312156110ad576110ac610eca565b5b5f6110ba8a828b01611024565b975050602088013567ffffffffffffffff8111156110db576110da610ece565b5b6110e78a828b01610fe1565b965050604088013567ffffffffffffffff81111561110857611107610ece565b5b6111148a828b01610fe1565b955050606088013567ffffffffffffffff81111561113557611134610ece565b5b6111418a828b01610fe1565b94505060806111528a828b01611024565b93505060a088013567ffffffffffffffff81111561117357611172610ece565b5b61117f8a828b01610fe1565b92505060c088013567ffffffffffffffff8111156111a05761119f610ece565b5b6111ac8a828b01610fe1565b91505092959891949750929550565b5f602082840312156111d0576111cf610eca565b5b5f6111dd84828501611024565b91505092915050565b5f81519050919050565b5f82825260208201905092915050565b8281835e5f83830152505050565b5f611218826111e6565b61122281856111f0565b9350611232818560208601611200565b61123b81610eda565b840191505092915050565b5f6040820190508181035f83015261125e818561120e565b905061126d6020830184610e41565b9392505050565b5f805f805f8060c0878903121561128e5761128d610eca565b5b5f87013567ffffffffffffffff8111156112ab576112aa610ece565b5b6112b789828a01610fe1565b965050602087013567ffffffffffffffff8111156112d8576112d7610ece565b5b6112e489828a01610fe1565b955050604087013567ffffffffffffffff81111561130557611304610ece565b5b61131189828a01610fe1565b945050606061132289828a01611024565b935050608087013567ffffffffffffffff81111561134357611342610ece565b5b61134f89828a01610fe1565b92505060a087013567ffffffffffffffff8111156113705761136f610ece565b5b61137c89828a01610fe1565b9150509295509295509295565b5f60c0820190508181035f8301526113a1818961120e565b905081810360208301526113b5818861120e565b905081810360408301526113c9818761120e565b90506113d86060830186610e41565b81810360808301526113ea818561120e565b905081810360a08301526113fe818461120e565b9050979650505050505050565b7f4f6e6c7920746865204865616c7468636172652050726f76696465722063616e5f8201527f20706572666f726d207468697320616374696f6e2e0000000000000000000000602082015250565b5f6114656035836111f0565b91506114708261140b565b604082019050919050565b5f6020820190508181035f83015261149281611459565b9050919050565b7f4e487b71000000000000000000000000000000000000000000000000000000005f52602260045260245ffd5b5f60028204905060018216806114dd57607f821691505b6020821081036114f0576114ef611499565b5b50919050565b5f819050815f5260205f209050919050565b5f6020601f8301049050919050565b5f82821b905092915050565b5f600883026115527fffffffffffffffffffffffffffffffffffffffffffffffffffffffffffffffff82611517565b61155c8683611517565b95508019841693508086168417925050509392505050565b5f819050919050565b5f61159761159261158d84610e38565b611574565b610e38565b9050919050565b5f819050919050565b6115b08361157d565b6115c46115bc8261159e565b848454611523565b825550505050565b5f90565b6115d86115cc565b6115e38184846115a7565b505050565b5b81811015611606576115fb5f826115d0565b6001810190506115e9565b5050565b601f82111561164b5761161c816114f6565b61162584611508565b81016020851015611634578190505b61164861164085611508565b8301826115e8565b50505b505050565b5f82821c905092915050565b5f61166b5f1984600802611650565b1980831691505092915050565b5f611683838361165c565b9150826002028217905092915050565b61169c826111e6565b67ffffffffffffffff8111156116b5576116b4610eea565b5b6116bf82546114c6565b6116ca82828561160a565b5f60209050601f8311600181146116fb575f84156116e9578287015190505b6116f38582611678565b86555061175a565b601f198416611709866114f6565b5f5b828110156117305784890151825560018201915060208501945060208101905061170b565b8683101561174d5784890151611749601f89168261165c565b8355505b6001600288020188555050505b505050505050565b7f4e487b71000000000000000000000000000000000000000000000000000000005f52601160045260245ffd5b5f61179982610e38565b91507fffffffffffffffffffffffffffffffffffffffffffffffffffffffffffffffff82036117cb576117ca611762565b5b600182019050919050565b7f50617469656e7420646f6573206e6f742065786973742e0000000000000000005f82015250565b5f61180a6017836111f0565b9150611815826117d6565b602082019050919050565b5f6020820190508181035f830152611837816117fe565b9050919050565b7f496e76616c69642074726561746d656e742049442e00000000000000000000005f82015250565b5f6118726015836111f0565b915061187d8261183e565b602082019050919050565b5f6020820190508181035f83015261189f81611866565b9050919050565b7f496e636f7272656374207061796d656e7420616d6f756e742e000000000000005f82015250565b5f6118da6019836111f0565b91506118e5826118a6565b602082019050919050565b5f6020820190508181035f830152611907816118ce565b9050919050565b5f61191882610e38565b915061192383610e38565b925082820190508082111561193b5761193a611762565b5b92915050565b5f6060820190506119545f830186610e99565b6119616020830185610e41565b61196e6040830184610e41565b949350505050565b5f6040820190506119895f830185610e99565b6119966020830184610e41565b939250505056fea264697066735822122069bf934d6a011f2df524b69d495c2e17c8a19f3bacf3b23a621bfef6b26dafe264736f6c634300081a0033",
					"opcodes": "PUSH1 0x80 PUSH1 0x40 MSTORE CALLVALUE DUP1 ISZERO PUSH1 0xE JUMPI PUSH0 DUP1 REVERT JUMPDEST POP CALLER PUSH0 DUP1 PUSH2 0x100 EXP DUP2 SLOAD DUP2 PUSH20 0xFFFFFFFFFFFFFFFFFFFFFFFFFFFFFFFFFFFFFFFF MUL NOT AND SWAP1 DUP4 PUSH20 0xFFFFFFFFFFFFFFFFFFFFFFFFFFFFFFFFFFFFFFFF AND MUL OR SWAP1 SSTORE POP PUSH2 0x19D3 DUP1 PUSH2 0x5B PUSH0 CODECOPY PUSH0 RETURN INVALID PUSH1 0x80 PUSH1 0x40 MSTORE PUSH1 0x4 CALLDATASIZE LT PUSH2 0xA6 JUMPI PUSH0 CALLDATALOAD PUSH1 0xE0 SHR DUP1 PUSH4 0x801F25C8 GT PUSH2 0x63 JUMPI DUP1 PUSH4 0x801F25C8 EQ PUSH2 0x1C8 JUMPI DUP1 PUSH4 0x873273E9 EQ PUSH2 0x1DE JUMPI DUP1 PUSH4 0x93119A83 EQ PUSH2 0x206 JUMPI DUP1 PUSH4 0xA0303C41 EQ PUSH2 0x247 JUMPI DUP1 PUSH4 0xD075CD8D EQ PUSH2 0x271 JUMPI DUP1 PUSH4 0xF26C5F5F EQ PUSH2 0x29B JUMPI PUSH2 0xA6 JUMP JUMPDEST DUP1 PUSH4 0x23B1E21A EQ PUSH2 0xAA JUMPI DUP1 PUSH4 0x24B285F9 EQ PUSH2 0xD4 JUMPI DUP1 PUSH4 0x31DF8B0D EQ PUSH2 0xFE JUMPI DUP1 PUSH4 0x4917D4E0 EQ PUSH2 0x126 JUMPI DUP1 PUSH4 0x5830189C EQ PUSH2 0x14E JUMPI DUP1 PUSH4 0x729F1DED EQ PUSH2 0x18B JUMPI JUMPDEST PUSH0 DUP1 REVERT JUMPDEST CALLVALUE DUP1 ISZERO PUSH2 0xB5 JUMPI PUSH0 DUP1 REVERT JUMPDEST POP PUSH2 0xBE PUSH2 0x2B7 JUMP JUMPDEST PUSH1 0x40 MLOAD PUSH2 0xCB SWAP2 SWAP1 PUSH2 0xE50 JUMP JUMPDEST PUSH1 0x40 MLOAD DUP1 SWAP2 SUB SWAP1 RETURN JUMPDEST CALLVALUE DUP1 ISZERO PUSH2 0xDF JUMPI PUSH0 DUP1 REVERT JUMPDEST POP PUSH2 0xE8 PUSH2 0x2BD JUMP JUMPDEST PUSH1 0x40 MLOAD PUSH2 0xF5 SWAP2 SWAP1 PUSH2 0xEA8 JUMP JUMPDEST PUSH1 0x40 MLOAD DUP1 SWAP2 SUB SWAP1 RETURN JUMPDEST CALLVALUE DUP1 ISZERO PUSH2 0x109 JUMPI PUSH0 DUP1 REVERT JUMPDEST POP PUSH2 0x124 PUSH1 0x4 DUP1 CALLDATASIZE SUB DUP2 ADD SWAP1 PUSH2 0x11F SWAP2 SWAP1 PUSH2 0x1038 JUMP JUMPDEST PUSH2 0x2E0 JUMP JUMPDEST STOP JUMPDEST CALLVALUE DUP1 ISZERO PUSH2 0x131 JUMPI PUSH0 DUP1 REVERT JUMPDEST POP PUSH2 0x14C PUSH1 0x4 DUP1 CALLDATASIZE SUB DUP2 ADD SWAP1 PUSH2 0x147 SWAP2 SWAP1 PUSH2 0x1092 JUMP JUMPDEST PUSH2 0x3D1 JUMP JUMPDEST STOP JUMPDEST CALLVALUE DUP1 ISZERO PUSH2 0x159 JUMPI PUSH0 DUP1 REVERT JUMPDEST POP PUSH2 0x174 PUSH1 0x4 DUP1 CALLDATASIZE SUB DUP2 ADD SWAP1 PUSH2 0x16F SWAP2 SWAP1 PUSH2 0x11BB JUMP JUMPDEST PUSH2 0x562 JUMP JUMPDEST PUSH1 0x40 MLOAD PUSH2 0x182 SWAP3 SWAP2 SWAP1 PUSH2 0x1246 JUMP JUMPDEST PUSH1 0x40 MLOAD DUP1 SWAP2 SUB SWAP1 RETURN JUMPDEST CALLVALUE DUP1 ISZERO PUSH2 0x196 JUMPI PUSH0 DUP1 REVERT JUMPDEST POP PUSH2 0x1B1 PUSH1 0x4 DUP1 CALLDATASIZE SUB DUP2 ADD SWAP1 PUSH2 0x1AC SWAP2 SWAP1 PUSH2 0x11BB JUMP JUMPDEST PUSH2 0x608 JUMP JUMPDEST PUSH1 0x40 MLOAD PUSH2 0x1BF SWAP3 SWAP2 SWAP1 PUSH2 0x1246 JUMP JUMPDEST PUSH1 0x40 MLOAD DUP1 SWAP2 SUB SWAP1 RETURN JUMPDEST CALLVALUE DUP1 ISZERO PUSH2 0x1D3 JUMPI PUSH0 DUP1 REVERT JUMPDEST POP PUSH2 0x1DC PUSH2 0x71A JUMP JUMPDEST STOP JUMPDEST CALLVALUE DUP1 ISZERO PUSH2 0x1E9 JUMPI PUSH0 DUP1 REVERT JUMPDEST POP PUSH2 0x204 PUSH1 0x4 DUP1 CALLDATASIZE SUB DUP2 ADD SWAP1 PUSH2 0x1FF SWAP2 SWAP1 PUSH2 0x1274 JUMP JUMPDEST PUSH2 0x81A JUMP JUMPDEST STOP JUMPDEST CALLVALUE DUP1 ISZERO PUSH2 0x211 JUMPI PUSH0 DUP1 REVERT JUMPDEST POP PUSH2 0x22C PUSH1 0x4 DUP1 CALLDATASIZE SUB DUP2 ADD SWAP1 PUSH2 0x227 SWAP2 SWAP1 PUSH2 0x11BB JUMP JUMPDEST PUSH2 0x97F JUMP JUMPDEST PUSH1 0x40 MLOAD PUSH2 0x23E SWAP7 SWAP6 SWAP5 SWAP4 SWAP3 SWAP2 SWAP1 PUSH2 0x1389 JUMP JUMPDEST PUSH1 0x40 MLOAD DUP1 SWAP2 SUB SWAP1 RETURN JUMPDEST CALLVALUE DUP1 ISZERO PUSH2 0x252 JUMPI PUSH0 DUP1 REVERT JUMPDEST POP PUSH2 0x25B PUSH2 0xC55 JUMP JUMPDEST PUSH1 0x40 MLOAD PUSH2 0x268 SWAP2 SWAP1 PUSH2 0xE50 JUMP JUMPDEST PUSH1 0x40 MLOAD DUP1 SWAP2 SUB SWAP1 RETURN JUMPDEST CALLVALUE DUP1 ISZERO PUSH2 0x27C JUMPI PUSH0 DUP1 REVERT JUMPDEST POP PUSH2 0x285 PUSH2 0xC5B JUMP JUMPDEST PUSH1 0x40 MLOAD PUSH2 0x292 SWAP2 SWAP1 PUSH2 0xE50 JUMP JUMPDEST PUSH1 0x40 MLOAD DUP1 SWAP2 SUB SWAP1 RETURN JUMPDEST PUSH2 0x2B5 PUSH1 0x4 DUP1 CALLDATASIZE SUB DUP2 ADD SWAP1 PUSH2 0x2B0 SWAP2 SWAP1 PUSH2 0x11BB JUMP JUMPDEST PUSH2 0xC61 JUMP JUMPDEST STOP JUMPDEST PUSH1 0x1 SLOAD DUP2 JUMP JUMPDEST PUSH0 DUP1 SLOAD SWAP1 PUSH2 0x100 EXP SWAP1 DIV PUSH20 0xFFFFFFFFFFFFFFFFFFFFFFFFFFFFFFFFFFFFFFFF AND DUP2 JUMP JUMPDEST PUSH0 DUP1 SLOAD SWAP1 PUSH2 0x100 EXP SWAP1 DIV PUSH20 0xFFFFFFFFFFFFFFFFFFFFFFFFFFFFFFFFFFFFFFFF AND PUSH20 0xFFFFFFFFFFFFFFFFFFFFFFFFFFFFFFFFFFFFFFFF AND CALLER PUSH20 0xFFFFFFFFFFFFFFFFFFFFFFFFFFFFFFFFFFFFFFFF AND EQ PUSH2 0x36D JUMPI PUSH1 0x40 MLOAD PUSH32 0x8C379A000000000000000000000000000000000000000000000000000000000 DUP2 MSTORE PUSH1 0x4 ADD PUSH2 0x364 SWAP1 PUSH2 0x147B JUMP JUMPDEST PUSH1 0x40 MLOAD DUP1 SWAP2 SUB SWAP1 REVERT JUMPDEST PUSH1 0x40 MLOAD DUP1 PUSH1 0x40 ADD PUSH1 0x40 MSTORE DUP1 DUP4 DUP2 MSTORE PUSH1 0x20 ADD DUP3 DUP2 MSTORE POP PUSH1 0x2 PUSH0 PUSH1 0x3 SLOAD DUP2 MSTORE PUSH1 0x20 ADD SWAP1 DUP2 MSTORE PUSH1 0x20 ADD PUSH0 KECCAK256 PUSH0 DUP3 ADD MLOAD DUP2 PUSH0 ADD SWAP1 DUP2 PUSH2 0x3A8 SWAP2 SWAP1 PUSH2 0x1693 JUMP JUMPDEST POP PUSH1 0x20 DUP3 ADD MLOAD DUP2 PUSH1 0x1 ADD SSTORE SWAP1 POP POP PUSH1 0x3 PUSH0 DUP2 SLOAD DUP1 SWAP3 SWAP2 SWAP1 PUSH2 0x3C8 SWAP1 PUSH2 0x178F JUMP JUMPDEST SWAP2 SWAP1 POP SSTORE POP POP POP JUMP JUMPDEST PUSH0 DUP1 SLOAD SWAP1 PUSH2 0x100 EXP SWAP1 DIV PUSH20 0xFFFFFFFFFFFFFFFFFFFFFFFFFFFFFFFFFFFFFFFF AND PUSH20 0xFFFFFFFFFFFFFFFFFFFFFFFFFFFFFFFFFFFFFFFF AND CALLER PUSH20 0xFFFFFFFFFFFFFFFFFFFFFFFFFFFFFFFFFFFFFFFF AND EQ PUSH2 0x45E JUMPI PUSH1 0x40 MLOAD PUSH32 0x8C379A000000000000000000000000000000000000000000000000000000000 DUP2 MSTORE PUSH1 0x4 ADD PUSH2 0x455 SWAP1 PUSH2 0x147B JUMP JUMPDEST PUSH1 0x40 MLOAD DUP1 SWAP2 SUB SWAP1 REVERT JUMPDEST PUSH1 0x5 SLOAD DUP8 LT PUSH2 0x4A2 JUMPI PUSH1 0x40 MLOAD PUSH32 0x8C379A000000000000000000000000000000000000000000000000000000000 DUP2 MSTORE PUSH1 0x4 ADD PUSH2 0x499 SWAP1 PUSH2 0x1820 JUMP JUMPDEST PUSH1 0x40 MLOAD DUP1 SWAP2 SUB SWAP1 REVERT JUMPDEST PUSH1 0x40 MLOAD DUP1 PUSH1 0xC0 ADD PUSH1 0x40 MSTORE DUP1 DUP8 DUP2 MSTORE PUSH1 0x20 ADD DUP7 DUP2 MSTORE PUSH1 0x20 ADD DUP6 DUP2 MSTORE PUSH1 0x20 ADD DUP5 DUP2 MSTORE PUSH1 0x20 ADD DUP4 DUP2 MSTORE PUSH1 0x20 ADD DUP3 DUP2 MSTORE POP PUSH1 0x4 PUSH0 DUP10 DUP2 MSTORE PUSH1 0x20 ADD SWAP1 DUP2 MSTORE PUSH1 0x20 ADD PUSH0 KECCAK256 PUSH0 DUP3 ADD MLOAD DUP2 PUSH0 ADD SWAP1 DUP2 PUSH2 0x4F3 SWAP2 SWAP1 PUSH2 0x1693 JUMP JUMPDEST POP PUSH1 0x20 DUP3 ADD MLOAD DUP2 PUSH1 0x1 ADD SWAP1 DUP2 PUSH2 0x509 SWAP2 SWAP1 PUSH2 0x1693 JUMP JUMPDEST POP PUSH1 0x40 DUP3 ADD MLOAD DUP2 PUSH1 0x2 ADD SWAP1 DUP2 PUSH2 0x51F SWAP2 SWAP1 PUSH2 0x1693 JUMP JUMPDEST POP PUSH1 0x60 DUP3 ADD MLOAD DUP2 PUSH1 0x3 ADD SSTORE PUSH1 0x80 DUP3 ADD MLOAD DUP2 PUSH1 0x4 ADD SWAP1 DUP2 PUSH2 0x53F SWAP2 SWAP1 PUSH2 0x1693 JUMP JUMPDEST POP PUSH1 0xA0 DUP3 ADD MLOAD DUP2 PUSH1 0x5 ADD SWAP1 DUP2 PUSH2 0x555 SWAP2 SWAP1 PUSH2 0x1693 JUMP JUMPDEST POP SWAP1 POP POP POP POP POP POP POP POP POP JUMP JUMPDEST PUSH1 0x2 PUSH1 0x20 MSTORE DUP1 PUSH0 MSTORE PUSH1 0x40 PUSH0 KECCAK256 PUSH0 SWAP2 POP SWAP1 POP DUP1 PUSH0 ADD DUP1 SLOAD PUSH2 0x581 SWAP1 PUSH2 0x14C6 JUMP JUMPDEST DUP1 PUSH1 0x1F ADD PUSH1 0x20 DUP1 SWAP2 DIV MUL PUSH1 0x20 ADD PUSH1 0x40 MLOAD SWAP1 DUP2 ADD PUSH1 0x40 MSTORE DUP1 SWAP3 SWAP2 SWAP1 DUP2 DUP2 MSTORE PUSH1 0x20 ADD DUP3 DUP1 SLOAD PUSH2 0x5AD SWAP1 PUSH2 0x14C6 JUMP JUMPDEST DUP1 ISZERO PUSH2 0x5F8 JUMPI DUP1 PUSH1 0x1F LT PUSH2 0x5CF JUMPI PUSH2 0x100 DUP1 DUP4 SLOAD DIV MUL DUP4 MSTORE SWAP2 PUSH1 0x20 ADD SWAP2 PUSH2 0x5F8 JUMP JUMPDEST DUP3 ADD SWAP2 SWAP1 PUSH0 MSTORE PUSH1 0x20 PUSH0 KECCAK256 SWAP1 JUMPDEST DUP2 SLOAD DUP2 MSTORE SWAP1 PUSH1 0x1 ADD SWAP1 PUSH1 0x20 ADD DUP1 DUP4 GT PUSH2 0x5DB JUMPI DUP3 SWAP1 SUB PUSH1 0x1F AND DUP3 ADD SWAP2 JUMPDEST POP POP POP POP POP SWAP1 DUP1 PUSH1 0x1 ADD SLOAD SWAP1 POP DUP3 JUMP JUMPDEST PUSH1 0x60 PUSH0 PUSH1 0x3 SLOAD DUP4 LT PUSH2 0x64F JUMPI PUSH1 0x40 MLOAD PUSH32 0x8C379A000000000000000000000000000000000000000000000000000000000 DUP2 MSTORE PUSH1 0x4 ADD PUSH2 0x646 SWAP1 PUSH2 0x1888 JUMP JUMPDEST PUSH1 0x40 MLOAD DUP1 SWAP2 SUB SWAP1 REVERT JUMPDEST PUSH0 PUSH1 0x2 PUSH0 DUP6 DUP2 MSTORE PUSH1 0x20 ADD SWAP1 DUP2 MSTORE PUSH1 0x20 ADD PUSH0 KECCAK256 PUSH1 0x40 MLOAD DUP1 PUSH1 0x40 ADD PUSH1 0x40 MSTORE SWAP1 DUP2 PUSH0 DUP3 ADD DUP1 SLOAD PUSH2 0x67B SWAP1 PUSH2 0x14C6 JUMP JUMPDEST DUP1 PUSH1 0x1F ADD PUSH1 0x20 DUP1 SWAP2 DIV MUL PUSH1 0x20 ADD PUSH1 0x40 MLOAD SWAP1 DUP2 ADD PUSH1 0x40 MSTORE DUP1 SWAP3 SWAP2 SWAP1 DUP2 DUP2 MSTORE PUSH1 0x20 ADD DUP3 DUP1 SLOAD PUSH2 0x6A7 SWAP1 PUSH2 0x14C6 JUMP JUMPDEST DUP1 ISZERO PUSH2 0x6F2 JUMPI DUP1 PUSH1 0x1F LT PUSH2 0x6C9 JUMPI PUSH2 0x100 DUP1 DUP4 SLOAD DIV MUL DUP4 MSTORE SWAP2 PUSH1 0x20 ADD SWAP2 PUSH2 0x6F2 JUMP JUMPDEST DUP3 ADD SWAP2 SWAP1 PUSH0 MSTORE PUSH1 0x20 PUSH0 KECCAK256 SWAP1 JUMPDEST DUP2 SLOAD DUP2 MSTORE SWAP1 PUSH1 0x1 ADD SWAP1 PUSH1 0x20 ADD DUP1 DUP4 GT PUSH2 0x6D5 JUMPI DUP3 SWAP1 SUB PUSH1 0x1F AND DUP3 ADD SWAP2 JUMPDEST POP POP POP POP POP DUP2 MSTORE PUSH1 0x20 ADD PUSH1 0x1 DUP3 ADD SLOAD DUP2 MSTORE POP POP SWAP1 POP DUP1 PUSH0 ADD MLOAD DUP2 PUSH1 0x20 ADD MLOAD SWAP3 POP SWAP3 POP POP SWAP2 POP SWAP2 JUMP JUMPDEST PUSH0 DUP1 SLOAD SWAP1 PUSH2 0x100 EXP SWAP1 DIV PUSH20 0xFFFFFFFFFFFFFFFFFFFFFFFFFFFFFFFFFFFFFFFF AND PUSH20 0xFFFFFFFFFFFFFFFFFFFFFFFFFFFFFFFFFFFFFFFF AND CALLER PUSH20 0xFFFFFFFFFFFFFFFFFFFFFFFFFFFFFFFFFFFFFFFF AND EQ PUSH2 0x7A7 JUMPI PUSH1 0x40 MLOAD PUSH32 0x8C379A000000000000000000000000000000000000000000000000000000000 DUP2 MSTORE PUSH1 0x4 ADD PUSH2 0x79E SWAP1 PUSH2 0x147B JUMP JUMPDEST PUSH1 0x40 MLOAD DUP1 SWAP2 SUB SWAP1 REVERT JUMPDEST PUSH0 PUSH1 0x1 SLOAD SWAP1 POP PUSH0 PUSH1 0x1 DUP2 SWAP1 SSTORE POP PUSH0 DUP1 SLOAD SWAP1 PUSH2 0x100 EXP SWAP1 DIV PUSH20 0xFFFFFFFFFFFFFFFFFFFFFFFFFFFFFFFFFFFFFFFF AND PUSH20 0xFFFFFFFFFFFFFFFFFFFFFFFFFFFFFFFFFFFFFFFF AND PUSH2 0x8FC DUP3 SWAP1 DUP2 ISZERO MUL SWAP1 PUSH1 0x40 MLOAD PUSH0 PUSH1 0x40 MLOAD DUP1 DUP4 SUB DUP2 DUP6 DUP9 DUP9 CALL SWAP4 POP POP POP POP ISZERO DUP1 ISZERO PUSH2 0x816 JUMPI RETURNDATASIZE PUSH0 DUP1 RETURNDATACOPY RETURNDATASIZE PUSH0 REVERT JUMPDEST POP POP JUMP JUMPDEST PUSH0 DUP1 SLOAD SWAP1 PUSH2 0x100 EXP SWAP1 DIV PUSH20 0xFFFFFFFFFFFFFFFFFFFFFFFFFFFFFFFFFFFFFFFF AND PUSH20 0xFFFFFFFFFFFFFFFFFFFFFFFFFFFFFFFFFFFFFFFF AND CALLER PUSH20 0xFFFFFFFFFFFFFFFFFFFFFFFFFFFFFFFFFFFFFFFF AND EQ PUSH2 0x8A7 JUMPI PUSH1 0x40 MLOAD PUSH32 0x8C379A000000000000000000000000000000000000000000000000000000000 DUP2 MSTORE PUSH1 0x4 ADD PUSH2 0x89E SWAP1 PUSH2 0x147B JUMP JUMPDEST PUSH1 0x40 MLOAD DUP1 SWAP2 SUB SWAP1 REVERT JUMPDEST PUSH1 0x40 MLOAD DUP1 PUSH1 0xC0 ADD PUSH1 0x40 MSTORE DUP1 DUP8 DUP2 MSTORE PUSH1 0x20 ADD DUP7 DUP2 MSTORE PUSH1 0x20 ADD DUP6 DUP2 MSTORE PUSH1 0x20 ADD DUP5 DUP2 MSTORE PUSH1 0x20 ADD DUP4 DUP2 MSTORE PUSH1 0x20 ADD DUP3 DUP2 MSTORE POP PUSH1 0x4 PUSH0 PUSH1 0x5 SLOAD DUP2 MSTORE PUSH1 0x20 ADD SWAP1 DUP2 MSTORE PUSH1 0x20 ADD PUSH0 KECCAK256 PUSH0 DUP3 ADD MLOAD DUP2 PUSH0 ADD SWAP1 DUP2 PUSH2 0x8FA SWAP2 SWAP1 PUSH2 0x1693 JUMP JUMPDEST POP PUSH1 0x20 DUP3 ADD MLOAD DUP2 PUSH1 0x1 ADD SWAP1 DUP2 PUSH2 0x910 SWAP2 SWAP1 PUSH2 0x1693 JUMP JUMPDEST POP PUSH1 0x40 DUP3 ADD MLOAD DUP2 PUSH1 0x2 ADD SWAP1 DUP2 PUSH2 0x926 SWAP2 SWAP1 PUSH2 0x1693 JUMP JUMPDEST POP PUSH1 0x60 DUP3 ADD MLOAD DUP2 PUSH1 0x3 ADD SSTORE PUSH1 0x80 DUP3 ADD MLOAD DUP2 PUSH1 0x4 ADD SWAP1 DUP2 PUSH2 0x946 SWAP2 SWAP1 PUSH2 0x1693 JUMP JUMPDEST POP PUSH1 0xA0 DUP3 ADD MLOAD DUP2 PUSH1 0x5 ADD SWAP1 DUP2 PUSH2 0x95C SWAP2 SWAP1 PUSH2 0x1693 JUMP JUMPDEST POP SWAP1 POP POP PUSH1 0x5 PUSH0 DUP2 SLOAD DUP1 SWAP3 SWAP2 SWAP1 PUSH2 0x972 SWAP1 PUSH2 0x178F JUMP JUMPDEST SWAP2 SWAP1 POP SSTORE POP POP POP POP POP POP POP JUMP JUMPDEST PUSH1 0x4 PUSH1 0x20 MSTORE DUP1 PUSH0 MSTORE PUSH1 0x40 PUSH0 KECCAK256 PUSH0 SWAP2 POP SWAP1 POP DUP1 PUSH0 ADD DUP1 SLOAD PUSH2 0x99E SWAP1 PUSH2 0x14C6 JUMP JUMPDEST DUP1 PUSH1 0x1F ADD PUSH1 0x20 DUP1 SWAP2 DIV MUL PUSH1 0x20 ADD PUSH1 0x40 MLOAD SWAP1 DUP2 ADD PUSH1 0x40 MSTORE DUP1 SWAP3 SWAP2 SWAP1 DUP2 DUP2 MSTORE PUSH1 0x20 ADD DUP3 DUP1 SLOAD PUSH2 0x9CA SWAP1 PUSH2 0x14C6 JUMP JUMPDEST DUP1 ISZERO PUSH2 0xA15 JUMPI DUP1 PUSH1 0x1F LT PUSH2 0x9EC JUMPI PUSH2 0x100 DUP1 DUP4 SLOAD DIV MUL DUP4 MSTORE SWAP2 PUSH1 0x20 ADD SWAP2 PUSH2 0xA15 JUMP JUMPDEST DUP3 ADD SWAP2 SWAP1 PUSH0 MSTORE PUSH1 0x20 PUSH0 KECCAK256 SWAP1 JUMPDEST DUP2 SLOAD DUP2 MSTORE SWAP1 PUSH1 0x1 ADD SWAP1 PUSH1 0x20 ADD DUP1 DUP4 GT PUSH2 0x9F8 JUMPI DUP3 SWAP1 SUB PUSH1 0x1F AND DUP3 ADD SWAP2 JUMPDEST POP POP POP POP POP SWAP1 DUP1 PUSH1 0x1 ADD DUP1 SLOAD PUSH2 0xA2A SWAP1 PUSH2 0x14C6 JUMP JUMPDEST DUP1 PUSH1 0x1F ADD PUSH1 0x20 DUP1 SWAP2 DIV MUL PUSH1 0x20 ADD PUSH1 0x40 MLOAD SWAP1 DUP2 ADD PUSH1 0x40 MSTORE DUP1 SWAP3 SWAP2 SWAP1 DUP2 DUP2 MSTORE PUSH1 0x20 ADD DUP3 DUP1 SLOAD PUSH2 0xA56 SWAP1 PUSH2 0x14C6 JUMP JUMPDEST DUP1 ISZERO PUSH2 0xAA1 JUMPI DUP1 PUSH1 0x1F LT PUSH2 0xA78 JUMPI PUSH2 0x100 DUP1 DUP4 SLOAD DIV MUL DUP4 MSTORE SWAP2 PUSH1 0x20 ADD SWAP2 PUSH2 0xAA1 JUMP JUMPDEST DUP3 ADD SWAP2 SWAP1 PUSH0 MSTORE PUSH1 0x20 PUSH0 KECCAK256 SWAP1 JUMPDEST DUP2 SLOAD DUP2 MSTORE SWAP1 PUSH1 0x1 ADD SWAP1 PUSH1 0x20 ADD DUP1 DUP4 GT PUSH2 0xA84 JUMPI DUP3 SWAP1 SUB PUSH1 0x1F AND DUP3 ADD SWAP2 JUMPDEST POP POP POP POP POP SWAP1 DUP1 PUSH1 0x2 ADD DUP1 SLOAD PUSH2 0xAB6 SWAP1 PUSH2 0x14C6 JUMP JUMPDEST DUP1 PUSH1 0x1F ADD PUSH1 0x20 DUP1 SWAP2 DIV MUL PUSH1 0x20 ADD PUSH1 0x40 MLOAD SWAP1 DUP2 ADD PUSH1 0x40 MSTORE DUP1 SWAP3 SWAP2 SWAP1 DUP2 DUP2 MSTORE PUSH1 0x20 ADD DUP3 DUP1 SLOAD PUSH2 0xAE2 SWAP1 PUSH2 0x14C6 JUMP JUMPDEST DUP1 ISZERO PUSH2 0xB2D JUMPI DUP1 PUSH1 0x1F LT PUSH2 0xB04 JUMPI PUSH2 0x100 DUP1 DUP4 SLOAD DIV MUL DUP4 MSTORE SWAP2 PUSH1 0x20 ADD SWAP2 PUSH2 0xB2D JUMP JUMPDEST DUP3 ADD SWAP2 SWAP1 PUSH0 MSTORE PUSH1 0x20 PUSH0 KECCAK256 SWAP1 JUMPDEST DUP2 SLOAD DUP2 MSTORE SWAP1 PUSH1 0x1 ADD SWAP1 PUSH1 0x20 ADD DUP1 DUP4 GT PUSH2 0xB10 JUMPI DUP3 SWAP1 SUB PUSH1 0x1F AND DUP3 ADD SWAP2 JUMPDEST POP POP POP POP POP SWAP1 DUP1 PUSH1 0x3 ADD SLOAD SWAP1 DUP1 PUSH1 0x4 ADD DUP1 SLOAD PUSH2 0xB48 SWAP1 PUSH2 0x14C6 JUMP JUMPDEST DUP1 PUSH1 0x1F ADD PUSH1 0x20 DUP1 SWAP2 DIV MUL PUSH1 0x20 ADD PUSH1 0x40 MLOAD SWAP1 DUP2 ADD PUSH1 0x40 MSTORE DUP1 SWAP3 SWAP2 SWAP1 DUP2 DUP2 MSTORE PUSH1 0x20 ADD DUP3 DUP1 SLOAD PUSH2 0xB74 SWAP1 PUSH2 0x14C6 JUMP JUMPDEST DUP1 ISZERO PUSH2 0xBBF JUMPI DUP1 PUSH1 0x1F LT PUSH2 0xB96 JUMPI PUSH2 0x100 DUP1 DUP4 SLOAD DIV MUL DUP4 MSTORE SWAP2 PUSH1 0x20 ADD SWAP2 PUSH2 0xBBF JUMP JUMPDEST DUP3 ADD SWAP2 SWAP1 PUSH0 MSTORE PUSH1 0x20 PUSH0 KECCAK256 SWAP1 JUMPDEST DUP2 SLOAD DUP2 MSTORE SWAP1 PUSH1 0x1 ADD SWAP1 PUSH1 0x20 ADD DUP1 DUP4 GT PUSH2 0xBA2 JUMPI DUP3 SWAP1 SUB PUSH1 0x1F AND DUP3 ADD SWAP2 JUMPDEST POP POP POP POP POP SWAP1 DUP1 PUSH1 0x5 ADD DUP1 SLOAD PUSH2 0xBD4 SWAP1 PUSH2 0x14C6 JUMP JUMPDEST DUP1 PUSH1 0x1F ADD PUSH1 0x20 DUP1 SWAP2 DIV MUL PUSH1 0x20 ADD PUSH1 0x40 MLOAD SWAP1 DUP2 ADD PUSH1 0x40 MSTORE DUP1 SWAP3 SWAP2 SWAP1 DUP2 DUP2 MSTORE PUSH1 0x20 ADD DUP3 DUP1 SLOAD PUSH2 0xC00 SWAP1 PUSH2 0x14C6 JUMP JUMPDEST DUP1 ISZERO PUSH2 0xC4B JUMPI DUP1 PUSH1 0x1F LT PUSH2 0xC22 JUMPI PUSH2 0x100 DUP1 DUP4 SLOAD DIV MUL DUP4 MSTORE SWAP2 PUSH1 0x20 ADD SWAP2 PUSH2 0xC4B JUMP JUMPDEST DUP3 ADD SWAP2 SWAP1 PUSH0 MSTORE PUSH1 0x20 PUSH0 KECCAK256 SWAP1 JUMPDEST DUP2 SLOAD DUP2 MSTORE SWAP1 PUSH1 0x1 ADD SWAP1 PUSH1 0x20 ADD DUP1 DUP4 GT PUSH2 0xC2E JUMPI DUP3 SWAP1 SUB PUSH1 0x1F AND DUP3 ADD SWAP2 JUMPDEST POP POP POP POP POP SWAP1 POP DUP7 JUMP JUMPDEST PUSH1 0x5 SLOAD DUP2 JUMP JUMPDEST PUSH1 0x3 SLOAD DUP2 JUMP JUMPDEST PUSH1 0x3 SLOAD DUP2 LT PUSH2 0xCA5 JUMPI PUSH1 0x40 MLOAD PUSH32 0x8C379A000000000000000000000000000000000000000000000000000000000 DUP2 MSTORE PUSH1 0x4 ADD PUSH2 0xC9C SWAP1 PUSH2 0x1888 JUMP JUMPDEST PUSH1 0x40 MLOAD DUP1 SWAP2 SUB SWAP1 REVERT JUMPDEST PUSH0 PUSH1 0x2 PUSH0 DUP4 DUP2 MSTORE PUSH1 0x20 ADD SWAP1 DUP2 MSTORE PUSH1 0x20 ADD PUSH0 KECCAK256 PUSH1 0x40 MLOAD DUP1 PUSH1 0x40 ADD PUSH1 0x40 MSTORE SWAP1 DUP2 PUSH0 DUP3 ADD DUP1 SLOAD PUSH2 0xCD1 SWAP1 PUSH2 0x14C6 JUMP JUMPDEST DUP1 PUSH1 0x1F ADD PUSH1 0x20 DUP1 SWAP2 DIV MUL PUSH1 0x20 ADD PUSH1 0x40 MLOAD SWAP1 DUP2 ADD PUSH1 0x40 MSTORE DUP1 SWAP3 SWAP2 SWAP1 DUP2 DUP2 MSTORE PUSH1 0x20 ADD DUP3 DUP1 SLOAD PUSH2 0xCFD SWAP1 PUSH2 0x14C6 JUMP JUMPDEST DUP1 ISZERO PUSH2 0xD48 JUMPI DUP1 PUSH1 0x1F LT PUSH2 0xD1F JUMPI PUSH2 0x100 DUP1 DUP4 SLOAD DIV MUL DUP4 MSTORE SWAP2 PUSH1 0x20 ADD SWAP2 PUSH2 0xD48 JUMP JUMPDEST DUP3 ADD SWAP2 SWAP1 PUSH0 MSTORE PUSH1 0x20 PUSH0 KECCAK256 SWAP1 JUMPDEST DUP2 SLOAD DUP2 MSTORE SWAP1 PUSH1 0x1 ADD SWAP1 PUSH1 0x20 ADD DUP1 DUP4 GT PUSH2 0xD2B JUMPI DUP3 SWAP1 SUB PUSH1 0x1F AND DUP3 ADD SWAP2 JUMPDEST POP POP POP POP POP DUP2 MSTORE PUSH1 0x20 ADD PUSH1 0x1 DUP3 ADD SLOAD DUP2 MSTORE POP POP SWAP1 POP PUSH0 DUP2 PUSH1 0x20 ADD MLOAD SWAP1 POP DUP1 CALLVALUE EQ PUSH2 0xDA7 JUMPI PUSH1 0x40 MLOAD PUSH32 0x8C379A000000000000000000000000000000000000000000000000000000000 DUP2 MSTORE PUSH1 0x4 ADD PUSH2 0xD9E SWAP1 PUSH2 0x18F0 JUMP JUMPDEST PUSH1 0x40 MLOAD DUP1 SWAP2 SUB SWAP1 REVERT JUMPDEST CALLVALUE PUSH1 0x1 PUSH0 DUP3 DUP3 SLOAD PUSH2 0xDB8 SWAP2 SWAP1 PUSH2 0x190E JUMP JUMPDEST SWAP3 POP POP DUP2 SWAP1 SSTORE POP PUSH32 0x1043881DBBF263D8BAA2517A839CEBF6C342C6000321B5CA43B96040D90D240C CALLER DUP5 DUP4 PUSH1 0x40 MLOAD PUSH2 0xDF2 SWAP4 SWAP3 SWAP2 SWAP1 PUSH2 0x1941 JUMP JUMPDEST PUSH1 0x40 MLOAD DUP1 SWAP2 SUB SWAP1 LOG1 PUSH32 0x6EF95F06320E7A25A04A175CA677B7052BDD97131872C2192525A629F51BE770 CALLER CALLVALUE PUSH1 0x40 MLOAD PUSH2 0xE2B SWAP3 SWAP2 SWAP1 PUSH2 0x1976 JUMP JUMPDEST PUSH1 0x40 MLOAD DUP1 SWAP2 SUB SWAP1 LOG1 POP POP POP JUMP JUMPDEST PUSH0 DUP2 SWAP1 POP SWAP2 SWAP1 POP JUMP JUMPDEST PUSH2 0xE4A DUP2 PUSH2 0xE38 JUMP JUMPDEST DUP3 MSTORE POP POP JUMP JUMPDEST PUSH0 PUSH1 0x20 DUP3 ADD SWAP1 POP PUSH2 0xE63 PUSH0 DUP4 ADD DUP5 PUSH2 0xE41 JUMP JUMPDEST SWAP3 SWAP2 POP POP JUMP JUMPDEST PUSH0 PUSH20 0xFFFFFFFFFFFFFFFFFFFFFFFFFFFFFFFFFFFFFFFF DUP3 AND SWAP1 POP SWAP2 SWAP1 POP JUMP JUMPDEST PUSH0 PUSH2 0xE92 DUP3 PUSH2 0xE69 JUMP JUMPDEST SWAP1 POP SWAP2 SWAP1 POP JUMP JUMPDEST PUSH2 0xEA2 DUP2 PUSH2 0xE88 JUMP JUMPDEST DUP3 MSTORE POP POP JUMP JUMPDEST PUSH0 PUSH1 0x20 DUP3 ADD SWAP1 POP PUSH2 0xEBB PUSH0 DUP4 ADD DUP5 PUSH2 0xE99 JUMP JUMPDEST SWAP3 SWAP2 POP POP JUMP JUMPDEST PUSH0 PUSH1 0x40 MLOAD SWAP1 POP SWAP1 JUMP JUMPDEST PUSH0 DUP1 REVERT JUMPDEST PUSH0 DUP1 REVERT JUMPDEST PUSH0 DUP1 REVERT JUMPDEST PUSH0 DUP1 REVERT JUMPDEST PUSH0 PUSH1 0x1F NOT PUSH1 0x1F DUP4 ADD AND SWAP1 POP SWAP2 SWAP1 POP JUMP JUMPDEST PUSH32 0x4E487B7100000000000000000000000000000000000000000000000000000000 PUSH0 MSTORE PUSH1 0x41 PUSH1 0x4 MSTORE PUSH1 0x24 PUSH0 REVERT JUMPDEST PUSH2 0xF20 DUP3 PUSH2 0xEDA JUMP JUMPDEST DUP2 ADD DUP2 DUP2 LT PUSH8 0xFFFFFFFFFFFFFFFF DUP3 GT OR ISZERO PUSH2 0xF3F JUMPI PUSH2 0xF3E PUSH2 0xEEA JUMP JUMPDEST JUMPDEST DUP1 PUSH1 0x40 MSTORE POP POP POP JUMP JUMPDEST PUSH0 PUSH2 0xF51 PUSH2 0xEC1 JUMP JUMPDEST SWAP1 POP PUSH2 0xF5D DUP3 DUP3 PUSH2 0xF17 JUMP JUMPDEST SWAP2 SWAP1 POP JUMP JUMPDEST PUSH0 PUSH8 0xFFFFFFFFFFFFFFFF DUP3 GT ISZERO PUSH2 0xF7C JUMPI PUSH2 0xF7B PUSH2 0xEEA JUMP JUMPDEST JUMPDEST PUSH2 0xF85 DUP3 PUSH2 0xEDA JUMP JUMPDEST SWAP1 POP PUSH1 0x20 DUP2 ADD SWAP1 POP SWAP2 SWAP1 POP JUMP JUMPDEST DUP3 DUP2 DUP4 CALLDATACOPY PUSH0 DUP4 DUP4 ADD MSTORE POP POP POP JUMP JUMPDEST PUSH0 PUSH2 0xFB2 PUSH2 0xFAD DUP5 PUSH2 0xF62 JUMP JUMPDEST PUSH2 0xF48 JUMP JUMPDEST SWAP1 POP DUP3 DUP2 MSTORE PUSH1 0x20 DUP2 ADD DUP5 DUP5 DUP5 ADD GT ISZERO PUSH2 0xFCE JUMPI PUSH2 0xFCD PUSH2 0xED6 JUMP JUMPDEST JUMPDEST PUSH2 0xFD9 DUP5 DUP3 DUP6 PUSH2 0xF92 JUMP JUMPDEST POP SWAP4 SWAP3 POP POP POP JUMP JUMPDEST PUSH0 DUP3 PUSH1 0x1F DUP4 ADD SLT PUSH2 0xFF5 JUMPI PUSH2 0xFF4 PUSH2 0xED2 JUMP JUMPDEST JUMPDEST DUP2 CALLDATALOAD PUSH2 0x1005 DUP5 DUP3 PUSH1 0x20 DUP7 ADD PUSH2 0xFA0 JUMP JUMPDEST SWAP2 POP POP SWAP3 SWAP2 POP POP JUMP JUMPDEST PUSH2 0x1017 DUP2 PUSH2 0xE38 JUMP JUMPDEST DUP2 EQ PUSH2 0x1021 JUMPI PUSH0 DUP1 REVERT JUMPDEST POP JUMP JUMPDEST PUSH0 DUP2 CALLDATALOAD SWAP1 POP PUSH2 0x1032 DUP2 PUSH2 0x100E JUMP JUMPDEST SWAP3 SWAP2 POP POP JUMP JUMPDEST PUSH0 DUP1 PUSH1 0x40 DUP4 DUP6 SUB SLT ISZERO PUSH2 0x104E JUMPI PUSH2 0x104D PUSH2 0xECA JUMP JUMPDEST JUMPDEST PUSH0 DUP4 ADD CALLDATALOAD PUSH8 0xFFFFFFFFFFFFFFFF DUP2 GT ISZERO PUSH2 0x106B JUMPI PUSH2 0x106A PUSH2 0xECE JUMP JUMPDEST JUMPDEST PUSH2 0x1077 DUP6 DUP3 DUP7 ADD PUSH2 0xFE1 JUMP JUMPDEST SWAP3 POP POP PUSH1 0x20 PUSH2 0x1088 DUP6 DUP3 DUP7 ADD PUSH2 0x1024 JUMP JUMPDEST SWAP2 POP POP SWAP3 POP SWAP3 SWAP1 POP JUMP JUMPDEST PUSH0 DUP1 PUSH0 DUP1 PUSH0 DUP1 PUSH0 PUSH1 0xE0 DUP9 DUP11 SUB SLT ISZERO PUSH2 0x10AD JUMPI PUSH2 0x10AC PUSH2 0xECA JUMP JUMPDEST JUMPDEST PUSH0 PUSH2 0x10BA DUP11 DUP3 DUP12 ADD PUSH2 0x1024 JUMP JUMPDEST SWAP8 POP POP PUSH1 0x20 DUP9 ADD CALLDATALOAD PUSH8 0xFFFFFFFFFFFFFFFF DUP2 GT ISZERO PUSH2 0x10DB JUMPI PUSH2 0x10DA PUSH2 0xECE JUMP JUMPDEST JUMPDEST PUSH2 0x10E7 DUP11 DUP3 DUP12 ADD PUSH2 0xFE1 JUMP JUMPDEST SWAP7 POP POP PUSH1 0x40 DUP9 ADD CALLDATALOAD PUSH8 0xFFFFFFFFFFFFFFFF DUP2 GT ISZERO PUSH2 0x1108 JUMPI PUSH2 0x1107 PUSH2 0xECE JUMP JUMPDEST JUMPDEST PUSH2 0x1114 DUP11 DUP3 DUP12 ADD PUSH2 0xFE1 JUMP JUMPDEST SWAP6 POP POP PUSH1 0x60 DUP9 ADD CALLDATALOAD PUSH8 0xFFFFFFFFFFFFFFFF DUP2 GT ISZERO PUSH2 0x1135 JUMPI PUSH2 0x1134 PUSH2 0xECE JUMP JUMPDEST JUMPDEST PUSH2 0x1141 DUP11 DUP3 DUP12 ADD PUSH2 0xFE1 JUMP JUMPDEST SWAP5 POP POP PUSH1 0x80 PUSH2 0x1152 DUP11 DUP3 DUP12 ADD PUSH2 0x1024 JUMP JUMPDEST SWAP4 POP POP PUSH1 0xA0 DUP9 ADD CALLDATALOAD PUSH8 0xFFFFFFFFFFFFFFFF DUP2 GT ISZERO PUSH2 0x1173 JUMPI PUSH2 0x1172 PUSH2 0xECE JUMP JUMPDEST JUMPDEST PUSH2 0x117F DUP11 DUP3 DUP12 ADD PUSH2 0xFE1 JUMP JUMPDEST SWAP3 POP POP PUSH1 0xC0 DUP9 ADD CALLDATALOAD PUSH8 0xFFFFFFFFFFFFFFFF DUP2 GT ISZERO PUSH2 0x11A0 JUMPI PUSH2 0x119F PUSH2 0xECE JUMP JUMPDEST JUMPDEST PUSH2 0x11AC DUP11 DUP3 DUP12 ADD PUSH2 0xFE1 JUMP JUMPDEST SWAP2 POP POP SWAP3 SWAP6 SWAP9 SWAP2 SWAP5 SWAP8 POP SWAP3 SWAP6 POP JUMP JUMPDEST PUSH0 PUSH1 0x20 DUP3 DUP5 SUB SLT ISZERO PUSH2 0x11D0 JUMPI PUSH2 0x11CF PUSH2 0xECA JUMP JUMPDEST JUMPDEST PUSH0 PUSH2 0x11DD DUP5 DUP3 DUP6 ADD PUSH2 0x1024 JUMP JUMPDEST SWAP2 POP POP SWAP3 SWAP2 POP POP JUMP JUMPDEST PUSH0 DUP2 MLOAD SWAP1 POP SWAP2 SWAP1 POP JUMP JUMPDEST PUSH0 DUP3 DUP3 MSTORE PUSH1 0x20 DUP3 ADD SWAP1 POP SWAP3 SWAP2 POP POP JUMP JUMPDEST DUP3 DUP2 DUP4 MCOPY PUSH0 DUP4 DUP4 ADD MSTORE POP POP POP JUMP JUMPDEST PUSH0 PUSH2 0x1218 DUP3 PUSH2 0x11E6 JUMP JUMPDEST PUSH2 0x1222 DUP2 DUP6 PUSH2 0x11F0 JUMP JUMPDEST SWAP4 POP PUSH2 0x1232 DUP2 DUP6 PUSH1 0x20 DUP7 ADD PUSH2 0x1200 JUMP JUMPDEST PUSH2 0x123B DUP2 PUSH2 0xEDA JUMP JUMPDEST DUP5 ADD SWAP2 POP POP SWAP3 SWAP2 POP POP JUMP JUMPDEST PUSH0 PUSH1 0x40 DUP3 ADD SWAP1 POP DUP2 DUP2 SUB PUSH0 DUP4 ADD MSTORE PUSH2 0x125E DUP2 DUP6 PUSH2 0x120E JUMP JUMPDEST SWAP1 POP PUSH2 0x126D PUSH1 0x20 DUP4 ADD DUP5 PUSH2 0xE41 JUMP JUMPDEST SWAP4 SWAP3 POP POP POP JUMP JUMPDEST PUSH0 DUP1 PUSH0 DUP1 PUSH0 DUP1 PUSH1 0xC0 DUP8 DUP10 SUB SLT ISZERO PUSH2 0x128E JUMPI PUSH2 0x128D PUSH2 0xECA JUMP JUMPDEST JUMPDEST PUSH0 DUP8 ADD CALLDATALOAD PUSH8 0xFFFFFFFFFFFFFFFF DUP2 GT ISZERO PUSH2 0x12AB JUMPI PUSH2 0x12AA PUSH2 0xECE JUMP JUMPDEST JUMPDEST PUSH2 0x12B7 DUP10 DUP3 DUP11 ADD PUSH2 0xFE1 JUMP JUMPDEST SWAP7 POP POP PUSH1 0x20 DUP8 ADD CALLDATALOAD PUSH8 0xFFFFFFFFFFFFFFFF DUP2 GT ISZERO PUSH2 0x12D8 JUMPI PUSH2 0x12D7 PUSH2 0xECE JUMP JUMPDEST JUMPDEST PUSH2 0x12E4 DUP10 DUP3 DUP11 ADD PUSH2 0xFE1 JUMP JUMPDEST SWAP6 POP POP PUSH1 0x40 DUP8 ADD CALLDATALOAD PUSH8 0xFFFFFFFFFFFFFFFF DUP2 GT ISZERO PUSH2 0x1305 JUMPI PUSH2 0x1304 PUSH2 0xECE JUMP JUMPDEST JUMPDEST PUSH2 0x1311 DUP10 DUP3 DUP11 ADD PUSH2 0xFE1 JUMP JUMPDEST SWAP5 POP POP PUSH1 0x60 PUSH2 0x1322 DUP10 DUP3 DUP11 ADD PUSH2 0x1024 JUMP JUMPDEST SWAP4 POP POP PUSH1 0x80 DUP8 ADD CALLDATALOAD PUSH8 0xFFFFFFFFFFFFFFFF DUP2 GT ISZERO PUSH2 0x1343 JUMPI PUSH2 0x1342 PUSH2 0xECE JUMP JUMPDEST JUMPDEST PUSH2 0x134F DUP10 DUP3 DUP11 ADD PUSH2 0xFE1 JUMP JUMPDEST SWAP3 POP POP PUSH1 0xA0 DUP8 ADD CALLDATALOAD PUSH8 0xFFFFFFFFFFFFFFFF DUP2 GT ISZERO PUSH2 0x1370 JUMPI PUSH2 0x136F PUSH2 0xECE JUMP JUMPDEST JUMPDEST PUSH2 0x137C DUP10 DUP3 DUP11 ADD PUSH2 0xFE1 JUMP JUMPDEST SWAP2 POP POP SWAP3 SWAP6 POP SWAP3 SWAP6 POP SWAP3 SWAP6 JUMP JUMPDEST PUSH0 PUSH1 0xC0 DUP3 ADD SWAP1 POP DUP2 DUP2 SUB PUSH0 DUP4 ADD MSTORE PUSH2 0x13A1 DUP2 DUP10 PUSH2 0x120E JUMP JUMPDEST SWAP1 POP DUP2 DUP2 SUB PUSH1 0x20 DUP4 ADD MSTORE PUSH2 0x13B5 DUP2 DUP9 PUSH2 0x120E JUMP JUMPDEST SWAP1 POP DUP2 DUP2 SUB PUSH1 0x40 DUP4 ADD MSTORE PUSH2 0x13C9 DUP2 DUP8 PUSH2 0x120E JUMP JUMPDEST SWAP1 POP PUSH2 0x13D8 PUSH1 0x60 DUP4 ADD DUP7 PUSH2 0xE41 JUMP JUMPDEST DUP2 DUP2 SUB PUSH1 0x80 DUP4 ADD MSTORE PUSH2 0x13EA DUP2 DUP6 PUSH2 0x120E JUMP JUMPDEST SWAP1 POP DUP2 DUP2 SUB PUSH1 0xA0 DUP4 ADD MSTORE PUSH2 0x13FE DUP2 DUP5 PUSH2 0x120E JUMP JUMPDEST SWAP1 POP SWAP8 SWAP7 POP POP POP POP POP POP POP JUMP JUMPDEST PUSH32 0x4F6E6C7920746865204865616C7468636172652050726F76696465722063616E PUSH0 DUP3 ADD MSTORE PUSH32 0x20706572666F726D207468697320616374696F6E2E0000000000000000000000 PUSH1 0x20 DUP3 ADD MSTORE POP JUMP JUMPDEST PUSH0 PUSH2 0x1465 PUSH1 0x35 DUP4 PUSH2 0x11F0 JUMP JUMPDEST SWAP2 POP PUSH2 0x1470 DUP3 PUSH2 0x140B JUMP JUMPDEST PUSH1 0x40 DUP3 ADD SWAP1 POP SWAP2 SWAP1 POP JUMP JUMPDEST PUSH0 PUSH1 0x20 DUP3 ADD SWAP1 POP DUP2 DUP2 SUB PUSH0 DUP4 ADD MSTORE PUSH2 0x1492 DUP2 PUSH2 0x1459 JUMP JUMPDEST SWAP1 POP SWAP2 SWAP1 POP JUMP JUMPDEST PUSH32 0x4E487B7100000000000000000000000000000000000000000000000000000000 PUSH0 MSTORE PUSH1 0x22 PUSH1 0x4 MSTORE PUSH1 0x24 PUSH0 REVERT JUMPDEST PUSH0 PUSH1 0x2 DUP3 DIV SWAP1 POP PUSH1 0x1 DUP3 AND DUP1 PUSH2 0x14DD JUMPI PUSH1 0x7F DUP3 AND SWAP2 POP JUMPDEST PUSH1 0x20 DUP3 LT DUP2 SUB PUSH2 0x14F0 JUMPI PUSH2 0x14EF PUSH2 0x1499 JUMP JUMPDEST JUMPDEST POP SWAP2 SWAP1 POP JUMP JUMPDEST PUSH0 DUP2 SWAP1 POP DUP2 PUSH0 MSTORE PUSH1 0x20 PUSH0 KECCAK256 SWAP1 POP SWAP2 SWAP1 POP JUMP JUMPDEST PUSH0 PUSH1 0x20 PUSH1 0x1F DUP4 ADD DIV SWAP1 POP SWAP2 SWAP1 POP JUMP JUMPDEST PUSH0 DUP3 DUP3 SHL SWAP1 POP SWAP3 SWAP2 POP POP JUMP JUMPDEST PUSH0 PUSH1 0x8 DUP4 MUL PUSH2 0x1552 PUSH32 0xFFFFFFFFFFFFFFFFFFFFFFFFFFFFFFFFFFFFFFFFFFFFFFFFFFFFFFFFFFFFFFFF DUP3 PUSH2 0x1517 JUMP JUMPDEST PUSH2 0x155C DUP7 DUP4 PUSH2 0x1517 JUMP JUMPDEST SWAP6 POP DUP1 NOT DUP5 AND SWAP4 POP DUP1 DUP7 AND DUP5 OR SWAP3 POP POP POP SWAP4 SWAP3 POP POP POP JUMP JUMPDEST PUSH0 DUP2 SWAP1 POP SWAP2 SWAP1 POP JUMP JUMPDEST PUSH0 PUSH2 0x1597 PUSH2 0x1592 PUSH2 0x158D DUP5 PUSH2 0xE38 JUMP JUMPDEST PUSH2 0x1574 JUMP JUMPDEST PUSH2 0xE38 JUMP JUMPDEST SWAP1 POP SWAP2 SWAP1 POP JUMP JUMPDEST PUSH0 DUP2 SWAP1 POP SWAP2 SWAP1 POP JUMP JUMPDEST PUSH2 0x15B0 DUP4 PUSH2 0x157D JUMP JUMPDEST PUSH2 0x15C4 PUSH2 0x15BC DUP3 PUSH2 0x159E JUMP JUMPDEST DUP5 DUP5 SLOAD PUSH2 0x1523 JUMP JUMPDEST DUP3 SSTORE POP POP POP POP JUMP JUMPDEST PUSH0 SWAP1 JUMP JUMPDEST PUSH2 0x15D8 PUSH2 0x15CC JUMP JUMPDEST PUSH2 0x15E3 DUP2 DUP5 DUP5 PUSH2 0x15A7 JUMP JUMPDEST POP POP POP JUMP JUMPDEST JUMPDEST DUP2 DUP2 LT ISZERO PUSH2 0x1606 JUMPI PUSH2 0x15FB PUSH0 DUP3 PUSH2 0x15D0 JUMP JUMPDEST PUSH1 0x1 DUP2 ADD SWAP1 POP PUSH2 0x15E9 JUMP JUMPDEST POP POP JUMP JUMPDEST PUSH1 0x1F DUP3 GT ISZERO PUSH2 0x164B JUMPI PUSH2 0x161C DUP2 PUSH2 0x14F6 JUMP JUMPDEST PUSH2 0x1625 DUP5 PUSH2 0x1508 JUMP JUMPDEST DUP2 ADD PUSH1 0x20 DUP6 LT ISZERO PUSH2 0x1634 JUMPI DUP2 SWAP1 POP JUMPDEST PUSH2 0x1648 PUSH2 0x1640 DUP6 PUSH2 0x1508 JUMP JUMPDEST DUP4 ADD DUP3 PUSH2 0x15E8 JUMP JUMPDEST POP POP JUMPDEST POP POP POP JUMP JUMPDEST PUSH0 DUP3 DUP3 SHR SWAP1 POP SWAP3 SWAP2 POP POP JUMP JUMPDEST PUSH0 PUSH2 0x166B PUSH0 NOT DUP5 PUSH1 0x8 MUL PUSH2 0x1650 JUMP JUMPDEST NOT DUP1 DUP4 AND SWAP2 POP POP SWAP3 SWAP2 POP POP JUMP JUMPDEST PUSH0 PUSH2 0x1683 DUP4 DUP4 PUSH2 0x165C JUMP JUMPDEST SWAP2 POP DUP3 PUSH1 0x2 MUL DUP3 OR SWAP1 POP SWAP3 SWAP2 POP POP JUMP JUMPDEST PUSH2 0x169C DUP3 PUSH2 0x11E6 JUMP JUMPDEST PUSH8 0xFFFFFFFFFFFFFFFF DUP2 GT ISZERO PUSH2 0x16B5 JUMPI PUSH2 0x16B4 PUSH2 0xEEA JUMP JUMPDEST JUMPDEST PUSH2 0x16BF DUP3 SLOAD PUSH2 0x14C6 JUMP JUMPDEST PUSH2 0x16CA DUP3 DUP3 DUP6 PUSH2 0x160A JUMP JUMPDEST PUSH0 PUSH1 0x20 SWAP1 POP PUSH1 0x1F DUP4 GT PUSH1 0x1 DUP2 EQ PUSH2 0x16FB JUMPI PUSH0 DUP5 ISZERO PUSH2 0x16E9 JUMPI DUP3 DUP8 ADD MLOAD SWAP1 POP JUMPDEST PUSH2 0x16F3 DUP6 DUP3 PUSH2 0x1678 JUMP JUMPDEST DUP7 SSTORE POP PUSH2 0x175A JUMP JUMPDEST PUSH1 0x1F NOT DUP5 AND PUSH2 0x1709 DUP7 PUSH2 0x14F6 JUMP JUMPDEST PUSH0 JUMPDEST DUP3 DUP2 LT ISZERO PUSH2 0x1730 JUMPI DUP5 DUP10 ADD MLOAD DUP3 SSTORE PUSH1 0x1 DUP3 ADD SWAP2 POP PUSH1 0x20 DUP6 ADD SWAP5 POP PUSH1 0x20 DUP2 ADD SWAP1 POP PUSH2 0x170B JUMP JUMPDEST DUP7 DUP4 LT ISZERO PUSH2 0x174D JUMPI DUP5 DUP10 ADD MLOAD PUSH2 0x1749 PUSH1 0x1F DUP10 AND DUP3 PUSH2 0x165C JUMP JUMPDEST DUP4 SSTORE POP JUMPDEST PUSH1 0x1 PUSH1 0x2 DUP9 MUL ADD DUP9 SSTORE POP POP POP JUMPDEST POP POP POP POP POP POP JUMP JUMPDEST PUSH32 0x4E487B7100000000000000000000000000000000000000000000000000000000 PUSH0 MSTORE PUSH1 0x11 PUSH1 0x4 MSTORE PUSH1 0x24 PUSH0 REVERT JUMPDEST PUSH0 PUSH2 0x1799 DUP3 PUSH2 0xE38 JUMP JUMPDEST SWAP2 POP PUSH32 0xFFFFFFFFFFFFFFFFFFFFFFFFFFFFFFFFFFFFFFFFFFFFFFFFFFFFFFFFFFFFFFFF DUP3 SUB PUSH2 0x17CB JUMPI PUSH2 0x17CA PUSH2 0x1762 JUMP JUMPDEST JUMPDEST PUSH1 0x1 DUP3 ADD SWAP1 POP SWAP2 SWAP1 POP JUMP JUMPDEST PUSH32 0x50617469656E7420646F6573206E6F742065786973742E000000000000000000 PUSH0 DUP3 ADD MSTORE POP JUMP JUMPDEST PUSH0 PUSH2 0x180A PUSH1 0x17 DUP4 PUSH2 0x11F0 JUMP JUMPDEST SWAP2 POP PUSH2 0x1815 DUP3 PUSH2 0x17D6 JUMP JUMPDEST PUSH1 0x20 DUP3 ADD SWAP1 POP SWAP2 SWAP1 POP JUMP JUMPDEST PUSH0 PUSH1 0x20 DUP3 ADD SWAP1 POP DUP2 DUP2 SUB PUSH0 DUP4 ADD MSTORE PUSH2 0x1837 DUP2 PUSH2 0x17FE JUMP JUMPDEST SWAP1 POP SWAP2 SWAP1 POP JUMP JUMPDEST PUSH32 0x496E76616C69642074726561746D656E742049442E0000000000000000000000 PUSH0 DUP3 ADD MSTORE POP JUMP JUMPDEST PUSH0 PUSH2 0x1872 PUSH1 0x15 DUP4 PUSH2 0x11F0 JUMP JUMPDEST SWAP2 POP PUSH2 0x187D DUP3 PUSH2 0x183E JUMP JUMPDEST PUSH1 0x20 DUP3 ADD SWAP1 POP SWAP2 SWAP1 POP JUMP JUMPDEST PUSH0 PUSH1 0x20 DUP3 ADD SWAP1 POP DUP2 DUP2 SUB PUSH0 DUP4 ADD MSTORE PUSH2 0x189F DUP2 PUSH2 0x1866 JUMP JUMPDEST SWAP1 POP SWAP2 SWAP1 POP JUMP JUMPDEST PUSH32 0x496E636F7272656374207061796D656E7420616D6F756E742E00000000000000 PUSH0 DUP3 ADD MSTORE POP JUMP JUMPDEST PUSH0 PUSH2 0x18DA PUSH1 0x19 DUP4 PUSH2 0x11F0 JUMP JUMPDEST SWAP2 POP PUSH2 0x18E5 DUP3 PUSH2 0x18A6 JUMP JUMPDEST PUSH1 0x20 DUP3 ADD SWAP1 POP SWAP2 SWAP1 POP JUMP JUMPDEST PUSH0 PUSH1 0x20 DUP3 ADD SWAP1 POP DUP2 DUP2 SUB PUSH0 DUP4 ADD MSTORE PUSH2 0x1907 DUP2 PUSH2 0x18CE JUMP JUMPDEST SWAP1 POP SWAP2 SWAP1 POP JUMP JUMPDEST PUSH0 PUSH2 0x1918 DUP3 PUSH2 0xE38 JUMP JUMPDEST SWAP2 POP PUSH2 0x1923 DUP4 PUSH2 0xE38 JUMP JUMPDEST SWAP3 POP DUP3 DUP3 ADD SWAP1 POP DUP1 DUP3 GT ISZERO PUSH2 0x193B JUMPI PUSH2 0x193A PUSH2 0x1762 JUMP JUMPDEST JUMPDEST SWAP3 SWAP2 POP POP JUMP JUMPDEST PUSH0 PUSH1 0x60 DUP3 ADD SWAP1 POP PUSH2 0x1954 PUSH0 DUP4 ADD DUP7 PUSH2 0xE99 JUMP JUMPDEST PUSH2 0x1961 PUSH1 0x20 DUP4 ADD DUP6 PUSH2 0xE41 JUMP JUMPDEST PUSH2 0x196E PUSH1 0x40 DUP4 ADD DUP5 PUSH2 0xE41 JUMP JUMPDEST SWAP5 SWAP4 POP POP POP POP JUMP JUMPDEST PUSH0 PUSH1 0x40 DUP3 ADD SWAP1 POP PUSH2 0x1989 PUSH0 DUP4 ADD DUP6 PUSH2 0xE99 JUMP JUMPDEST PUSH2 0x1996 PUSH1 0x20 DUP4 ADD DUP5 PUSH2 0xE41 JUMP JUMPDEST SWAP4 SWAP3 POP POP POP JUMP INVALID LOG2 PUSH5 0x6970667358 0x22 SLT KECCAK256 PUSH10 0xBF934D6A011F2DF524B6 SWAP14 BLOBHASH TLOAD 0x2E OR 0xC8 LOG1 SWAP16 EXTCODESIZE 0xAC RETURN 0xB2 GASPRICE PUSH3 0x1BFEF6 0xB2 PUSH14 0xAFE264736F6C634300081A003300 "
				},
				"gasEstimates": {
					"creation": {
						"codeDepositCost": "1322200",
						"executionCost": "25639",
						"totalCost": "1347839"
					},
					"external": {
						"addNewPatient(string,string,string,uint256,string,string)": "infinite",
						"addNewTreatment(string,uint256)": "infinite",
						"chargePayment()": "infinite",
						"getTreatment(uint256)": "infinite",
						"getTreatmentType(uint256)": "infinite",
						"healthcareProvider()": "2528",
						"patientCount()": "2491",
						"patients(uint256)": "infinite",
						"totalPaymentCharged()": "2426",
						"treatment(uint256)": "infinite",
						"treatmentTypeCount()": "2513",
						"updatePatientData(uint256,string,string,string,uint256,string,string)": "infinite"
					}
				},
				"methodIdentifiers": {
					"addNewPatient(string,string,string,uint256,string,string)": "873273e9",
					"addNewTreatment(string,uint256)": "31df8b0d",
					"chargePayment()": "801f25c8",
					"getTreatment(uint256)": "f26c5f5f",
					"getTreatmentType(uint256)": "729f1ded",
					"healthcareProvider()": "24b285f9",
					"patientCount()": "a0303c41",
					"patients(uint256)": "93119a83",
					"totalPaymentCharged()": "23b1e21a",
					"treatment(uint256)": "5830189c",
					"treatmentTypeCount()": "d075cd8d",
					"updatePatientData(uint256,string,string,string,uint256,string,string)": "4917d4e0"
				}
			},
			"storageLayout": {
				"storage": [
					{
						"astId": 3,
						"contract": "health.sol:HealthcareManagementSystem",
						"label": "healthcareProvider",
						"offset": 0,
						"slot": "0",
						"type": "t_address"
					},
					{
						"astId": 5,
						"contract": "health.sol:HealthcareManagementSystem",
						"label": "totalPaymentCharged",
						"offset": 0,
						"slot": "1",
						"type": "t_uint256"
					},
					{
						"astId": 28,
						"contract": "health.sol:HealthcareManagementSystem",
						"label": "treatment",
						"offset": 0,
						"slot": "2",
						"type": "t_mapping(t_uint256,t_struct(TreatmentTypes)10_storage)"
					},
					{
						"astId": 30,
						"contract": "health.sol:HealthcareManagementSystem",
						"label": "treatmentTypeCount",
						"offset": 0,
						"slot": "3",
						"type": "t_uint256"
					},
					{
						"astId": 35,
						"contract": "health.sol:HealthcareManagementSystem",
						"label": "patients",
						"offset": 0,
						"slot": "4",
						"type": "t_mapping(t_uint256,t_struct(PatientData)23_storage)"
					},
					{
						"astId": 37,
						"contract": "health.sol:HealthcareManagementSystem",
						"label": "patientCount",
						"offset": 0,
						"slot": "5",
						"type": "t_uint256"
					}
				],
				"types": {
					"t_address": {
						"encoding": "inplace",
						"label": "address",
						"numberOfBytes": "20"
					},
					"t_mapping(t_uint256,t_struct(PatientData)23_storage)": {
						"encoding": "mapping",
						"key": "t_uint256",
						"label": "mapping(uint256 => struct HealthcareManagementSystem.PatientData)",
						"numberOfBytes": "32",
						"value": "t_struct(PatientData)23_storage"
					},
					"t_mapping(t_uint256,t_struct(TreatmentTypes)10_storage)": {
						"encoding": "mapping",
						"key": "t_uint256",
						"label": "mapping(uint256 => struct HealthcareManagementSystem.TreatmentTypes)",
						"numberOfBytes": "32",
						"value": "t_struct(TreatmentTypes)10_storage"
					},
					"t_string_storage": {
						"encoding": "bytes",
						"label": "string",
						"numberOfBytes": "32"
					},
					"t_struct(PatientData)23_storage": {
						"encoding": "inplace",
						"label": "struct HealthcareManagementSystem.PatientData",
						"members": [
							{
								"astId": 12,
								"contract": "health.sol:HealthcareManagementSystem",
								"label": "name",
								"offset": 0,
								"slot": "0",
								"type": "t_string_storage"
							},
							{
								"astId": 14,
								"contract": "health.sol:HealthcareManagementSystem",
								"label": "surname",
								"offset": 0,
								"slot": "1",
								"type": "t_string_storage"
							},
							{
								"astId": 16,
								"contract": "health.sol:HealthcareManagementSystem",
								"label": "dateOfBirth",
								"offset": 0,
								"slot": "2",
								"type": "t_string_storage"
							},
							{
								"astId": 18,
								"contract": "health.sol:HealthcareManagementSystem",
								"label": "documentNumber",
								"offset": 0,
								"slot": "3",
								"type": "t_uint256"
							},
							{
								"astId": 20,
								"contract": "health.sol:HealthcareManagementSystem",
								"label": "gender",
								"offset": 0,
								"slot": "4",
								"type": "t_string_storage"
							},
							{
								"astId": 22,
								"contract": "health.sol:HealthcareManagementSystem",
								"label": "bloodType",
								"offset": 0,
								"slot": "5",
								"type": "t_string_storage"
							}
						],
						"numberOfBytes": "192"
					},
					"t_struct(TreatmentTypes)10_storage": {
						"encoding": "inplace",
						"label": "struct HealthcareManagementSystem.TreatmentTypes",
						"members": [
							{
								"astId": 7,
								"contract": "health.sol:HealthcareManagementSystem",
								"label": "treatmentType",
								"offset": 0,
								"slot": "0",
								"type": "t_string_storage"
							},
							{
								"astId": 9,
								"contract": "health.sol:HealthcareManagementSystem",
								"label": "treatmentprice",
								"offset": 0,
								"slot": "1",
								"type": "t_uint256"
							}
						],
						"numberOfBytes": "64"
					},
					"t_uint256": {
						"encoding": "inplace",
						"label": "uint256",
						"numberOfBytes": "32"
					}
				}
			},
			"userdoc": {
				"kind": "user",
				"methods": {},
				"version": 1
			}
		}
	}
}