{
	"data": {
		"bytecode": {
			"linkReferences": {},
			"object": "6080604052348015600e575f80fd5b50335f806101000a81548173ffffffffffffffffffffffffffffffffffffffff021916908373ffffffffffffffffffffffffffffffffffffffff1602179055506115498061005b5f395ff3fe608060405260043610610085575f3560e01c80631bc09567116100585780631bc095671461014a57806332229205146101745780635fd8c710146101905780638da5cb5b146101a6578063bedcf003146101d057610085565b80630b7569f114610089578063139e92eb146100b157806315ccf70f146100cd578063185350081461010c575b5f80fd5b348015610094575f80fd5b506100af60048036038101906100aa9190610b4f565b6101fa565b005b6100cb60048036038101906100c69190610bbb565b61034b565b005b3480156100d8575f80fd5b506100f360048036038101906100ee9190610bf9565b6104fc565b6040516101039493929190610c93565b60405180910390f35b348015610117575f80fd5b50610132600480360381019061012d9190610bf9565b6105ae565b60405161014193929190610cdd565b60405180910390f35b348015610155575f80fd5b5061015e6106f2565b60405161016b9190610d19565b60405180910390f35b61018e60048036038101906101899190610bbb565b6106f8565b005b34801561019b575f80fd5b506101a46108a6565b005b3480156101b1575f80fd5b506101ba6109a6565b6040516101c79190610d71565b60405180910390f35b3480156101db575f80fd5b506101e46109c9565b6040516101f19190610d19565b60405180910390f35b5f8054906101000a900473ffffffffffffffffffffffffffffffffffffffff1673ffffffffffffffffffffffffffffffffffffffff163373ffffffffffffffffffffffffffffffffffffffff1614610287576040517f08c379a000000000000000000000000000000000000000000000000000000000815260040161027e90610dfa565b60405180910390fd5b60405180608001604052808481526020018381526020018281526020015f81525060025f60035481526020019081526020015f205f820151815f0190816102ce9190611012565b506020820151816001015560408201518160020155606082015181600301559050507fc4ee57698cf470e237e4b6249a9cc3fad4f8c861d71b20b0734fc7a217747d8e60035484848460405161032794939291906110e1565b60405180910390a160035f81548092919061034190611158565b9190505550505050565b600354821061038f576040517f08c379a0000000000000000000000000000000000000000000000000000000008152600401610386906111e9565b60405180910390fd5b5f60025f8481526020019081526020015f2090505f8282600101546103b49190611207565b905081600201548383600301546103cb9190611248565b111561040c576040517f08c379a0000000000000000000000000000000000000000000000000000000008152600401610403906112c5565b60405180910390fd5b80341461044e576040517f08c379a00000000000000000000000000000000000000000000000000000000081526004016104459061132d565b60405180910390fd5b82826003015f8282546104619190611248565b925050819055503460015f8282546104799190611248565b925050819055507f81c0944c267e331528c04ddeb7bc78f539d7e04f07b820fd8bfafbd8298b3d48338585846040516104b5949392919061134b565b60405180910390a17f6ef95f06320e7a25a04a175ca677b7052bdd97131872c2192525a629f51be77033346040516104ee92919061138e565b60405180910390a150505050565b6002602052805f5260405f205f91509050805f01805461051b90610e45565b80601f016020809104026020016040519081016040528092919081815260200182805461054790610e45565b80156105925780601f1061056957610100808354040283529160200191610592565b820191905f5260205f20905b81548152906001019060200180831161057557829003601f168201915b5050505050908060010154908060020154908060030154905084565b60605f8060035484106105f6576040517f08c379a00000000000000000000000000000000000000000000000000000000081526004016105ed906111e9565b60405180910390fd5b5f60025f8681526020019081526020015f206040518060800160405290815f8201805461062290610e45565b80601f016020809104026020016040519081016040528092919081815260200182805461064e90610e45565b80156106995780601f1061067057610100808354040283529160200191610699565b820191905f5260205f20905b81548152906001019060200180831161067c57829003601f168201915b50505050508152602001600182015481526020016002820154815260200160038201548152505090505f816060015182604001516106d791906113b5565b9050815f015182602001518294509450945050509193909250565b60035481565b600354821061073c576040517f08c379a0000000000000000000000000000000000000000000000000000000008152600401610733906111e9565b60405180910390fd5b5f60025f8481526020019081526020015f2090508181600301541015610797576040517f08c379a000000000000000000000000000000000000000000000000000000000815260040161078e90611432565b60405180910390fd5b5f8282600101546107a89190611207565b90508060015410156107ef576040517f08c379a00000000000000000000000000000000000000000000000000000000081526004016107e6906114c0565b60405180910390fd5b3373ffffffffffffffffffffffffffffffffffffffff166108fc8290811502906040515f60405180830381858888f19350505050158015610832573d5f803e3d5ffd5b5082826003015f82825461084691906113b5565b925050819055508060015f82825461085e91906113b5565b925050819055507f8095a07203cd91318ff59af834d6d3f52b1d5441437bd19da41303e89494ad27338583604051610898939291906114de565b60405180910390a150505050565b5f8054906101000a900473ffffffffffffffffffffffffffffffffffffffff1673ffffffffffffffffffffffffffffffffffffffff163373ffffffffffffffffffffffffffffffffffffffff1614610933576040517f08c379a000000000000000000000000000000000000000000000000000000000815260040161092a90610dfa565b60405180910390fd5b5f60015490505f6001819055505f8054906101000a900473ffffffffffffffffffffffffffffffffffffffff1673ffffffffffffffffffffffffffffffffffffffff166108fc8290811502906040515f60405180830381858888f193505050501580156109a2573d5f803e3d5ffd5b5050565b5f8054906101000a900473ffffffffffffffffffffffffffffffffffffffff1681565b60015481565b5f604051905090565b5f80fd5b5f80fd5b5f80fd5b5f80fd5b5f601f19601f8301169050919050565b7f4e487b71000000000000000000000000000000000000000000000000000000005f52604160045260245ffd5b610a2e826109e8565b810181811067ffffffffffffffff82111715610a4d57610a4c6109f8565b5b80604052505050565b5f610a5f6109cf565b9050610a6b8282610a25565b919050565b5f67ffffffffffffffff821115610a8a57610a896109f8565b5b610a93826109e8565b9050602081019050919050565b828183375f83830152505050565b5f610ac0610abb84610a70565b610a56565b905082815260208101848484011115610adc57610adb6109e4565b5b610ae7848285610aa0565b509392505050565b5f82601f830112610b0357610b026109e0565b5b8135610b13848260208601610aae565b91505092915050565b5f819050919050565b610b2e81610b1c565b8114610b38575f80fd5b50565b5f81359050610b4981610b25565b92915050565b5f805f60608486031215610b6657610b656109d8565b5b5f84013567ffffffffffffffff811115610b8357610b826109dc565b5b610b8f86828701610aef565b9350506020610ba086828701610b3b565b9250506040610bb186828701610b3b565b9150509250925092565b5f8060408385031215610bd157610bd06109d8565b5b5f610bde85828601610b3b565b9250506020610bef85828601610b3b565b9150509250929050565b5f60208284031215610c0e57610c0d6109d8565b5b5f610c1b84828501610b3b565b91505092915050565b5f81519050919050565b5f82825260208201905092915050565b8281835e5f83830152505050565b5f610c5682610c24565b610c608185610c2e565b9350610c70818560208601610c3e565b610c79816109e8565b840191505092915050565b610c8d81610b1c565b82525050565b5f6080820190508181035f830152610cab8187610c4c565b9050610cba6020830186610c84565b610cc76040830185610c84565b610cd46060830184610c84565b95945050505050565b5f6060820190508181035f830152610cf58186610c4c565b9050610d046020830185610c84565b610d116040830184610c84565b949350505050565b5f602082019050610d2c5f830184610c84565b92915050565b5f73ffffffffffffffffffffffffffffffffffffffff82169050919050565b5f610d5b82610d32565b9050919050565b610d6b81610d51565b82525050565b5f602082019050610d845f830184610d62565b92915050565b7f4f6e6c7920746865206f776e65722063616e20706572666f726d2074686973205f8201527f616374696f6e2e00000000000000000000000000000000000000000000000000602082015250565b5f610de4602783610c2e565b9150610def82610d8a565b604082019050919050565b5f6020820190508181035f830152610e1181610dd8565b9050919050565b7f4e487b71000000000000000000000000000000000000000000000000000000005f52602260045260245ffd5b5f6002820490506001821680610e5c57607f821691505b602082108103610e6f57610e6e610e18565b5b50919050565b5f819050815f5260205f209050919050565b5f6020601f8301049050919050565b5f82821b905092915050565b5f60088302610ed17fffffffffffffffffffffffffffffffffffffffffffffffffffffffffffffffff82610e96565b610edb8683610e96565b95508019841693508086168417925050509392505050565b5f819050919050565b5f610f16610f11610f0c84610b1c565b610ef3565b610b1c565b9050919050565b5f819050919050565b610f2f83610efc565b610f43610f3b82610f1d565b848454610ea2565b825550505050565b5f90565b610f57610f4b565b610f62818484610f26565b505050565b5b81811015610f8557610f7a5f82610f4f565b600181019050610f68565b5050565b601f821115610fca57610f9b81610e75565b610fa484610e87565b81016020851015610fb3578190505b610fc7610fbf85610e87565b830182610f67565b50505b505050565b5f82821c905092915050565b5f610fea5f1984600802610fcf565b1980831691505092915050565b5f6110028383610fdb565b9150826002028217905092915050565b61101b82610c24565b67ffffffffffffffff811115611034576110336109f8565b5b61103e8254610e45565b611049828285610f89565b5f60209050601f83116001811461107a575f8415611068578287015190505b6110728582610ff7565b8655506110d9565b601f19841661108886610e75565b5f5b828110156110af5784890151825560018201915060208501945060208101905061108a565b868310156110cc57848901516110c8601f891682610fdb565b8355505b6001600288020188555050505b505050505050565b5f6080820190506110f45f830187610c84565b81810360208301526111068186610c4c565b90506111156040830185610c84565b6111226060830184610c84565b95945050505050565b7f4e487b71000000000000000000000000000000000000000000000000000000005f52601160045260245ffd5b5f61116282610b1c565b91507fffffffffffffffffffffffffffffffffffffffffffffffffffffffffffffffff82036111945761119361112b565b5b600182019050919050565b7f496e76616c696420666c696768742049442e00000000000000000000000000005f82015250565b5f6111d3601283610c2e565b91506111de8261119f565b602082019050919050565b5f6020820190508181035f830152611200816111c7565b9050919050565b5f61121182610b1c565b915061121c83610b1c565b925082820261122a81610b1c565b915082820484148315176112415761124061112b565b5b5092915050565b5f61125282610b1c565b915061125d83610b1c565b92508282019050808211156112755761127461112b565b5b92915050565b7f4e6f7420656e6f75676820617661696c61626c652073656174732e00000000005f82015250565b5f6112af601b83610c2e565b91506112ba8261127b565b602082019050919050565b5f6020820190508181035f8301526112dc816112a3565b9050919050565b7f496e636f7272656374207061796d656e7420616d6f756e742e000000000000005f82015250565b5f611317601983610c2e565b9150611322826112e3565b602082019050919050565b5f6020820190508181035f8301526113448161130b565b9050919050565b5f60808201905061135e5f830187610d62565b61136b6020830186610c84565b6113786040830185610c84565b6113856060830184610c84565b95945050505050565b5f6040820190506113a15f830185610d62565b6113ae6020830184610c84565b9392505050565b5f6113bf82610b1c565b91506113ca83610b1c565b92508282039050818111156113e2576113e161112b565b5b92915050565b7f4e6f7420656e6f75676820736561747320626f6f6b65642e00000000000000005f82015250565b5f61141c601883610c2e565b9150611427826113e8565b602082019050919050565b5f6020820190508181035f83015261144981611410565b9050919050565b7f4e6f7420656e6f7567682062616c616e636520696e20636f6e747261637420745f8201527f6f20726566756e642e0000000000000000000000000000000000000000000000602082015250565b5f6114aa602983610c2e565b91506114b582611450565b604082019050919050565b5f6020820190508181035f8301526114d78161149e565b9050919050565b5f6060820190506114f15f830186610d62565b6114fe6020830185610c84565b61150b6040830184610c84565b94935050505056fea26469706673582212206166bed3cb05061cdb3a18d5305b00e274afaf219f0af102adb45cbbf8e0e6b664736f6c634300081a0033",
			"opcodes": "PUSH1 0x80 PUSH1 0x40 MSTORE CALLVALUE DUP1 ISZERO PUSH1 0xE JUMPI PUSH0 DUP1 REVERT JUMPDEST POP CALLER PUSH0 DUP1 PUSH2 0x100 EXP DUP2 SLOAD DUP2 PUSH20 0xFFFFFFFFFFFFFFFFFFFFFFFFFFFFFFFFFFFFFFFF MUL NOT AND SWAP1 DUP4 PUSH20 0xFFFFFFFFFFFFFFFFFFFFFFFFFFFFFFFFFFFFFFFF AND MUL OR SWAP1 SSTORE POP PUSH2 0x1549 DUP1 PUSH2 0x5B PUSH0 CODECOPY PUSH0 RETURN INVALID PUSH1 0x80 PUSH1 0x40 MSTORE PUSH1 0x4 CALLDATASIZE LT PUSH2 0x85 JUMPI PUSH0 CALLDATALOAD PUSH1 0xE0 SHR DUP1 PUSH4 0x1BC09567 GT PUSH2 0x58 JUMPI DUP1 PUSH4 0x1BC09567 EQ PUSH2 0x14A JUMPI DUP1 PUSH4 0x32229205 EQ PUSH2 0x174 JUMPI DUP1 PUSH4 0x5FD8C710 EQ PUSH2 0x190 JUMPI DUP1 PUSH4 0x8DA5CB5B EQ PUSH2 0x1A6 JUMPI DUP1 PUSH4 0xBEDCF003 EQ PUSH2 0x1D0 JUMPI PUSH2 0x85 JUMP JUMPDEST DUP1 PUSH4 0xB7569F1 EQ PUSH2 0x89 JUMPI DUP1 PUSH4 0x139E92EB EQ PUSH2 0xB1 JUMPI DUP1 PUSH4 0x15CCF70F EQ PUSH2 0xCD JUMPI DUP1 PUSH4 0x18535008 EQ PUSH2 0x10C JUMPI JUMPDEST PUSH0 DUP1 REVERT JUMPDEST CALLVALUE DUP1 ISZERO PUSH2 0x94 JUMPI PUSH0 DUP1 REVERT JUMPDEST POP PUSH2 0xAF PUSH1 0x4 DUP1 CALLDATASIZE SUB DUP2 ADD SWAP1 PUSH2 0xAA SWAP2 SWAP1 PUSH2 0xB4F JUMP JUMPDEST PUSH2 0x1FA JUMP JUMPDEST STOP JUMPDEST PUSH2 0xCB PUSH1 0x4 DUP1 CALLDATASIZE SUB DUP2 ADD SWAP1 PUSH2 0xC6 SWAP2 SWAP1 PUSH2 0xBBB JUMP JUMPDEST PUSH2 0x34B JUMP JUMPDEST STOP JUMPDEST CALLVALUE DUP1 ISZERO PUSH2 0xD8 JUMPI PUSH0 DUP1 REVERT JUMPDEST POP PUSH2 0xF3 PUSH1 0x4 DUP1 CALLDATASIZE SUB DUP2 ADD SWAP1 PUSH2 0xEE SWAP2 SWAP1 PUSH2 0xBF9 JUMP JUMPDEST PUSH2 0x4FC JUMP JUMPDEST PUSH1 0x40 MLOAD PUSH2 0x103 SWAP5 SWAP4 SWAP3 SWAP2 SWAP1 PUSH2 0xC93 JUMP JUMPDEST PUSH1 0x40 MLOAD DUP1 SWAP2 SUB SWAP1 RETURN JUMPDEST CALLVALUE DUP1 ISZERO PUSH2 0x117 JUMPI PUSH0 DUP1 REVERT JUMPDEST POP PUSH2 0x132 PUSH1 0x4 DUP1 CALLDATASIZE SUB DUP2 ADD SWAP1 PUSH2 0x12D SWAP2 SWAP1 PUSH2 0xBF9 JUMP JUMPDEST PUSH2 0x5AE JUMP JUMPDEST PUSH1 0x40 MLOAD PUSH2 0x141 SWAP4 SWAP3 SWAP2 SWAP1 PUSH2 0xCDD JUMP JUMPDEST PUSH1 0x40 MLOAD DUP1 SWAP2 SUB SWAP1 RETURN JUMPDEST CALLVALUE DUP1 ISZERO PUSH2 0x155 JUMPI PUSH0 DUP1 REVERT JUMPDEST POP PUSH2 0x15E PUSH2 0x6F2 JUMP JUMPDEST PUSH1 0x40 MLOAD PUSH2 0x16B SWAP2 SWAP1 PUSH2 0xD19 JUMP JUMPDEST PUSH1 0x40 MLOAD DUP1 SWAP2 SUB SWAP1 RETURN JUMPDEST PUSH2 0x18E PUSH1 0x4 DUP1 CALLDATASIZE SUB DUP2 ADD SWAP1 PUSH2 0x189 SWAP2 SWAP1 PUSH2 0xBBB JUMP JUMPDEST PUSH2 0x6F8 JUMP JUMPDEST STOP JUMPDEST CALLVALUE DUP1 ISZERO PUSH2 0x19B JUMPI PUSH0 DUP1 REVERT JUMPDEST POP PUSH2 0x1A4 PUSH2 0x8A6 JUMP JUMPDEST STOP JUMPDEST CALLVALUE DUP1 ISZERO PUSH2 0x1B1 JUMPI PUSH0 DUP1 REVERT JUMPDEST POP PUSH2 0x1BA PUSH2 0x9A6 JUMP JUMPDEST PUSH1 0x40 MLOAD PUSH2 0x1C7 SWAP2 SWAP1 PUSH2 0xD71 JUMP JUMPDEST PUSH1 0x40 MLOAD DUP1 SWAP2 SUB SWAP1 RETURN JUMPDEST CALLVALUE DUP1 ISZERO PUSH2 0x1DB JUMPI PUSH0 DUP1 REVERT JUMPDEST POP PUSH2 0x1E4 PUSH2 0x9C9 JUMP JUMPDEST PUSH1 0x40 MLOAD PUSH2 0x1F1 SWAP2 SWAP1 PUSH2 0xD19 JUMP JUMPDEST PUSH1 0x40 MLOAD DUP1 SWAP2 SUB SWAP1 RETURN JUMPDEST PUSH0 DUP1 SLOAD SWAP1 PUSH2 0x100 EXP SWAP1 DIV PUSH20 0xFFFFFFFFFFFFFFFFFFFFFFFFFFFFFFFFFFFFFFFF AND PUSH20 0xFFFFFFFFFFFFFFFFFFFFFFFFFFFFFFFFFFFFFFFF AND CALLER PUSH20 0xFFFFFFFFFFFFFFFFFFFFFFFFFFFFFFFFFFFFFFFF AND EQ PUSH2 0x287 JUMPI PUSH1 0x40 MLOAD PUSH32 0x8C379A000000000000000000000000000000000000000000000000000000000 DUP2 MSTORE PUSH1 0x4 ADD PUSH2 0x27E SWAP1 PUSH2 0xDFA JUMP JUMPDEST PUSH1 0x40 MLOAD DUP1 SWAP2 SUB SWAP1 REVERT JUMPDEST PUSH1 0x40 MLOAD DUP1 PUSH1 0x80 ADD PUSH1 0x40 MSTORE DUP1 DUP5 DUP2 MSTORE PUSH1 0x20 ADD DUP4 DUP2 MSTORE PUSH1 0x20 ADD DUP3 DUP2 MSTORE PUSH1 0x20 ADD PUSH0 DUP2 MSTORE POP PUSH1 0x2 PUSH0 PUSH1 0x3 SLOAD DUP2 MSTORE PUSH1 0x20 ADD SWAP1 DUP2 MSTORE PUSH1 0x20 ADD PUSH0 KECCAK256 PUSH0 DUP3 ADD MLOAD DUP2 PUSH0 ADD SWAP1 DUP2 PUSH2 0x2CE SWAP2 SWAP1 PUSH2 0x1012 JUMP JUMPDEST POP PUSH1 0x20 DUP3 ADD MLOAD DUP2 PUSH1 0x1 ADD SSTORE PUSH1 0x40 DUP3 ADD MLOAD DUP2 PUSH1 0x2 ADD SSTORE PUSH1 0x60 DUP3 ADD MLOAD DUP2 PUSH1 0x3 ADD SSTORE SWAP1 POP POP PUSH32 0xC4EE57698CF470E237E4B6249A9CC3FAD4F8C861D71B20B0734FC7A217747D8E PUSH1 0x3 SLOAD DUP5 DUP5 DUP5 PUSH1 0x40 MLOAD PUSH2 0x327 SWAP5 SWAP4 SWAP3 SWAP2 SWAP1 PUSH2 0x10E1 JUMP JUMPDEST PUSH1 0x40 MLOAD DUP1 SWAP2 SUB SWAP1 LOG1 PUSH1 0x3 PUSH0 DUP2 SLOAD DUP1 SWAP3 SWAP2 SWAP1 PUSH2 0x341 SWAP1 PUSH2 0x1158 JUMP JUMPDEST SWAP2 SWAP1 POP SSTORE POP POP POP POP JUMP JUMPDEST PUSH1 0x3 SLOAD DUP3 LT PUSH2 0x38F JUMPI PUSH1 0x40 MLOAD PUSH32 0x8C379A000000000000000000000000000000000000000000000000000000000 DUP2 MSTORE PUSH1 0x4 ADD PUSH2 0x386 SWAP1 PUSH2 0x11E9 JUMP JUMPDEST PUSH1 0x40 MLOAD DUP1 SWAP2 SUB SWAP1 REVERT JUMPDEST PUSH0 PUSH1 0x2 PUSH0 DUP5 DUP2 MSTORE PUSH1 0x20 ADD SWAP1 DUP2 MSTORE PUSH1 0x20 ADD PUSH0 KECCAK256 SWAP1 POP PUSH0 DUP3 DUP3 PUSH1 0x1 ADD SLOAD PUSH2 0x3B4 SWAP2 SWAP1 PUSH2 0x1207 JUMP JUMPDEST SWAP1 POP DUP2 PUSH1 0x2 ADD SLOAD DUP4 DUP4 PUSH1 0x3 ADD SLOAD PUSH2 0x3CB SWAP2 SWAP1 PUSH2 0x1248 JUMP JUMPDEST GT ISZERO PUSH2 0x40C JUMPI PUSH1 0x40 MLOAD PUSH32 0x8C379A000000000000000000000000000000000000000000000000000000000 DUP2 MSTORE PUSH1 0x4 ADD PUSH2 0x403 SWAP1 PUSH2 0x12C5 JUMP JUMPDEST PUSH1 0x40 MLOAD DUP1 SWAP2 SUB SWAP1 REVERT JUMPDEST DUP1 CALLVALUE EQ PUSH2 0x44E JUMPI PUSH1 0x40 MLOAD PUSH32 0x8C379A000000000000000000000000000000000000000000000000000000000 DUP2 MSTORE PUSH1 0x4 ADD PUSH2 0x445 SWAP1 PUSH2 0x132D JUMP JUMPDEST PUSH1 0x40 MLOAD DUP1 SWAP2 SUB SWAP1 REVERT JUMPDEST DUP3 DUP3 PUSH1 0x3 ADD PUSH0 DUP3 DUP3 SLOAD PUSH2 0x461 SWAP2 SWAP1 PUSH2 0x1248 JUMP JUMPDEST SWAP3 POP POP DUP2 SWAP1 SSTORE POP CALLVALUE PUSH1 0x1 PUSH0 DUP3 DUP3 SLOAD PUSH2 0x479 SWAP2 SWAP1 PUSH2 0x1248 JUMP JUMPDEST SWAP3 POP POP DUP2 SWAP1 SSTORE POP PUSH32 0x81C0944C267E331528C04DDEB7BC78F539D7E04F07B820FD8BFAFBD8298B3D48 CALLER DUP6 DUP6 DUP5 PUSH1 0x40 MLOAD PUSH2 0x4B5 SWAP5 SWAP4 SWAP3 SWAP2 SWAP1 PUSH2 0x134B JUMP JUMPDEST PUSH1 0x40 MLOAD DUP1 SWAP2 SUB SWAP1 LOG1 PUSH32 0x6EF95F06320E7A25A04A175CA677B7052BDD97131872C2192525A629F51BE770 CALLER CALLVALUE PUSH1 0x40 MLOAD PUSH2 0x4EE SWAP3 SWAP2 SWAP1 PUSH2 0x138E JUMP JUMPDEST PUSH1 0x40 MLOAD DUP1 SWAP2 SUB SWAP1 LOG1 POP POP POP POP JUMP JUMPDEST PUSH1 0x2 PUSH1 0x20 MSTORE DUP1 PUSH0 MSTORE PUSH1 0x40 PUSH0 KECCAK256 PUSH0 SWAP2 POP SWAP1 POP DUP1 PUSH0 ADD DUP1 SLOAD PUSH2 0x51B SWAP1 PUSH2 0xE45 JUMP JUMPDEST DUP1 PUSH1 0x1F ADD PUSH1 0x20 DUP1 SWAP2 DIV MUL PUSH1 0x20 ADD PUSH1 0x40 MLOAD SWAP1 DUP2 ADD PUSH1 0x40 MSTORE DUP1 SWAP3 SWAP2 SWAP1 DUP2 DUP2 MSTORE PUSH1 0x20 ADD DUP3 DUP1 SLOAD PUSH2 0x547 SWAP1 PUSH2 0xE45 JUMP JUMPDEST DUP1 ISZERO PUSH2 0x592 JUMPI DUP1 PUSH1 0x1F LT PUSH2 0x569 JUMPI PUSH2 0x100 DUP1 DUP4 SLOAD DIV MUL DUP4 MSTORE SWAP2 PUSH1 0x20 ADD SWAP2 PUSH2 0x592 JUMP JUMPDEST DUP3 ADD SWAP2 SWAP1 PUSH0 MSTORE PUSH1 0x20 PUSH0 KECCAK256 SWAP1 JUMPDEST DUP2 SLOAD DUP2 MSTORE SWAP1 PUSH1 0x1 ADD SWAP1 PUSH1 0x20 ADD DUP1 DUP4 GT PUSH2 0x575 JUMPI DUP3 SWAP1 SUB PUSH1 0x1F AND DUP3 ADD SWAP2 JUMPDEST POP POP POP POP POP SWAP1 DUP1 PUSH1 0x1 ADD SLOAD SWAP1 DUP1 PUSH1 0x2 ADD SLOAD SWAP1 DUP1 PUSH1 0x3 ADD SLOAD SWAP1 POP DUP5 JUMP JUMPDEST PUSH1 0x60 PUSH0 DUP1 PUSH1 0x3 SLOAD DUP5 LT PUSH2 0x5F6 JUMPI PUSH1 0x40 MLOAD PUSH32 0x8C379A000000000000000000000000000000000000000000000000000000000 DUP2 MSTORE PUSH1 0x4 ADD PUSH2 0x5ED SWAP1 PUSH2 0x11E9 JUMP JUMPDEST PUSH1 0x40 MLOAD DUP1 SWAP2 SUB SWAP1 REVERT JUMPDEST PUSH0 PUSH1 0x2 PUSH0 DUP7 DUP2 MSTORE PUSH1 0x20 ADD SWAP1 DUP2 MSTORE PUSH1 0x20 ADD PUSH0 KECCAK256 PUSH1 0x40 MLOAD DUP1 PUSH1 0x80 ADD PUSH1 0x40 MSTORE SWAP1 DUP2 PUSH0 DUP3 ADD DUP1 SLOAD PUSH2 0x622 SWAP1 PUSH2 0xE45 JUMP JUMPDEST DUP1 PUSH1 0x1F ADD PUSH1 0x20 DUP1 SWAP2 DIV MUL PUSH1 0x20 ADD PUSH1 0x40 MLOAD SWAP1 DUP2 ADD PUSH1 0x40 MSTORE DUP1 SWAP3 SWAP2 SWAP1 DUP2 DUP2 MSTORE PUSH1 0x20 ADD DUP3 DUP1 SLOAD PUSH2 0x64E SWAP1 PUSH2 0xE45 JUMP JUMPDEST DUP1 ISZERO PUSH2 0x699 JUMPI DUP1 PUSH1 0x1F LT PUSH2 0x670 JUMPI PUSH2 0x100 DUP1 DUP4 SLOAD DIV MUL DUP4 MSTORE SWAP2 PUSH1 0x20 ADD SWAP2 PUSH2 0x699 JUMP JUMPDEST DUP3 ADD SWAP2 SWAP1 PUSH0 MSTORE PUSH1 0x20 PUSH0 KECCAK256 SWAP1 JUMPDEST DUP2 SLOAD DUP2 MSTORE SWAP1 PUSH1 0x1 ADD SWAP1 PUSH1 0x20 ADD DUP1 DUP4 GT PUSH2 0x67C JUMPI DUP3 SWAP1 SUB PUSH1 0x1F AND DUP3 ADD SWAP2 JUMPDEST POP POP POP POP POP DUP2 MSTORE PUSH1 0x20 ADD PUSH1 0x1 DUP3 ADD SLOAD DUP2 MSTORE PUSH1 0x20 ADD PUSH1 0x2 DUP3 ADD SLOAD DUP2 MSTORE PUSH1 0x20 ADD PUSH1 0x3 DUP3 ADD SLOAD DUP2 MSTORE POP POP SWAP1 POP PUSH0 DUP2 PUSH1 0x60 ADD MLOAD DUP3 PUSH1 0x40 ADD MLOAD PUSH2 0x6D7 SWAP2 SWAP1 PUSH2 0x13B5 JUMP JUMPDEST SWAP1 POP DUP2 PUSH0 ADD MLOAD DUP3 PUSH1 0x20 ADD MLOAD DUP3 SWAP5 POP SWAP5 POP SWAP5 POP POP POP SWAP2 SWAP4 SWAP1 SWAP3 POP JUMP JUMPDEST PUSH1 0x3 SLOAD DUP2 JUMP JUMPDEST PUSH1 0x3 SLOAD DUP3 LT PUSH2 0x73C JUMPI PUSH1 0x40 MLOAD PUSH32 0x8C379A000000000000000000000000000000000000000000000000000000000 DUP2 MSTORE PUSH1 0x4 ADD PUSH2 0x733 SWAP1 PUSH2 0x11E9 JUMP JUMPDEST PUSH1 0x40 MLOAD DUP1 SWAP2 SUB SWAP1 REVERT JUMPDEST PUSH0 PUSH1 0x2 PUSH0 DUP5 DUP2 MSTORE PUSH1 0x20 ADD SWAP1 DUP2 MSTORE PUSH1 0x20 ADD PUSH0 KECCAK256 SWAP1 POP DUP2 DUP2 PUSH1 0x3 ADD SLOAD LT ISZERO PUSH2 0x797 JUMPI PUSH1 0x40 MLOAD PUSH32 0x8C379A000000000000000000000000000000000000000000000000000000000 DUP2 MSTORE PUSH1 0x4 ADD PUSH2 0x78E SWAP1 PUSH2 0x1432 JUMP JUMPDEST PUSH1 0x40 MLOAD DUP1 SWAP2 SUB SWAP1 REVERT JUMPDEST PUSH0 DUP3 DUP3 PUSH1 0x1 ADD SLOAD PUSH2 0x7A8 SWAP2 SWAP1 PUSH2 0x1207 JUMP JUMPDEST SWAP1 POP DUP1 PUSH1 0x1 SLOAD LT ISZERO PUSH2 0x7EF JUMPI PUSH1 0x40 MLOAD PUSH32 0x8C379A000000000000000000000000000000000000000000000000000000000 DUP2 MSTORE PUSH1 0x4 ADD PUSH2 0x7E6 SWAP1 PUSH2 0x14C0 JUMP JUMPDEST PUSH1 0x40 MLOAD DUP1 SWAP2 SUB SWAP1 REVERT JUMPDEST CALLER PUSH20 0xFFFFFFFFFFFFFFFFFFFFFFFFFFFFFFFFFFFFFFFF AND PUSH2 0x8FC DUP3 SWAP1 DUP2 ISZERO MUL SWAP1 PUSH1 0x40 MLOAD PUSH0 PUSH1 0x40 MLOAD DUP1 DUP4 SUB DUP2 DUP6 DUP9 DUP9 CALL SWAP4 POP POP POP POP ISZERO DUP1 ISZERO PUSH2 0x832 JUMPI RETURNDATASIZE PUSH0 DUP1 RETURNDATACOPY RETURNDATASIZE PUSH0 REVERT JUMPDEST POP DUP3 DUP3 PUSH1 0x3 ADD PUSH0 DUP3 DUP3 SLOAD PUSH2 0x846 SWAP2 SWAP1 PUSH2 0x13B5 JUMP JUMPDEST SWAP3 POP POP DUP2 SWAP1 SSTORE POP DUP1 PUSH1 0x1 PUSH0 DUP3 DUP3 SLOAD PUSH2 0x85E SWAP2 SWAP1 PUSH2 0x13B5 JUMP JUMPDEST SWAP3 POP POP DUP2 SWAP1 SSTORE POP PUSH32 0x8095A07203CD91318FF59AF834D6D3F52B1D5441437BD19DA41303E89494AD27 CALLER DUP6 DUP4 PUSH1 0x40 MLOAD PUSH2 0x898 SWAP4 SWAP3 SWAP2 SWAP1 PUSH2 0x14DE JUMP JUMPDEST PUSH1 0x40 MLOAD DUP1 SWAP2 SUB SWAP1 LOG1 POP POP POP POP JUMP JUMPDEST PUSH0 DUP1 SLOAD SWAP1 PUSH2 0x100 EXP SWAP1 DIV PUSH20 0xFFFFFFFFFFFFFFFFFFFFFFFFFFFFFFFFFFFFFFFF AND PUSH20 0xFFFFFFFFFFFFFFFFFFFFFFFFFFFFFFFFFFFFFFFF AND CALLER PUSH20 0xFFFFFFFFFFFFFFFFFFFFFFFFFFFFFFFFFFFFFFFF AND EQ PUSH2 0x933 JUMPI PUSH1 0x40 MLOAD PUSH32 0x8C379A000000000000000000000000000000000000000000000000000000000 DUP2 MSTORE PUSH1 0x4 ADD PUSH2 0x92A SWAP1 PUSH2 0xDFA JUMP JUMPDEST PUSH1 0x40 MLOAD DUP1 SWAP2 SUB SWAP1 REVERT JUMPDEST PUSH0 PUSH1 0x1 SLOAD SWAP1 POP PUSH0 PUSH1 0x1 DUP2 SWAP1 SSTORE POP PUSH0 DUP1 SLOAD SWAP1 PUSH2 0x100 EXP SWAP1 DIV PUSH20 0xFFFFFFFFFFFFFFFFFFFFFFFFFFFFFFFFFFFFFFFF AND PUSH20 0xFFFFFFFFFFFFFFFFFFFFFFFFFFFFFFFFFFFFFFFF AND PUSH2 0x8FC DUP3 SWAP1 DUP2 ISZERO MUL SWAP1 PUSH1 0x40 MLOAD PUSH0 PUSH1 0x40 MLOAD DUP1 DUP4 SUB DUP2 DUP6 DUP9 DUP9 CALL SWAP4 POP POP POP POP ISZERO DUP1 ISZERO PUSH2 0x9A2 JUMPI RETURNDATASIZE PUSH0 DUP1 RETURNDATACOPY RETURNDATASIZE PUSH0 REVERT JUMPDEST POP POP JUMP JUMPDEST PUSH0 DUP1 SLOAD SWAP1 PUSH2 0x100 EXP SWAP1 DIV PUSH20 0xFFFFFFFFFFFFFFFFFFFFFFFFFFFFFFFFFFFFFFFF AND DUP2 JUMP JUMPDEST PUSH1 0x1 SLOAD DUP2 JUMP JUMPDEST PUSH0 PUSH1 0x40 MLOAD SWAP1 POP SWAP1 JUMP JUMPDEST PUSH0 DUP1 REVERT JUMPDEST PUSH0 DUP1 REVERT JUMPDEST PUSH0 DUP1 REVERT JUMPDEST PUSH0 DUP1 REVERT JUMPDEST PUSH0 PUSH1 0x1F NOT PUSH1 0x1F DUP4 ADD AND SWAP1 POP SWAP2 SWAP1 POP JUMP JUMPDEST PUSH32 0x4E487B7100000000000000000000000000000000000000000000000000000000 PUSH0 MSTORE PUSH1 0x41 PUSH1 0x4 MSTORE PUSH1 0x24 PUSH0 REVERT JUMPDEST PUSH2 0xA2E DUP3 PUSH2 0x9E8 JUMP JUMPDEST DUP2 ADD DUP2 DUP2 LT PUSH8 0xFFFFFFFFFFFFFFFF DUP3 GT OR ISZERO PUSH2 0xA4D JUMPI PUSH2 0xA4C PUSH2 0x9F8 JUMP JUMPDEST JUMPDEST DUP1 PUSH1 0x40 MSTORE POP POP POP JUMP JUMPDEST PUSH0 PUSH2 0xA5F PUSH2 0x9CF JUMP JUMPDEST SWAP1 POP PUSH2 0xA6B DUP3 DUP3 PUSH2 0xA25 JUMP JUMPDEST SWAP2 SWAP1 POP JUMP JUMPDEST PUSH0 PUSH8 0xFFFFFFFFFFFFFFFF DUP3 GT ISZERO PUSH2 0xA8A JUMPI PUSH2 0xA89 PUSH2 0x9F8 JUMP JUMPDEST JUMPDEST PUSH2 0xA93 DUP3 PUSH2 0x9E8 JUMP JUMPDEST SWAP1 POP PUSH1 0x20 DUP2 ADD SWAP1 POP SWAP2 SWAP1 POP JUMP JUMPDEST DUP3 DUP2 DUP4 CALLDATACOPY PUSH0 DUP4 DUP4 ADD MSTORE POP POP POP JUMP JUMPDEST PUSH0 PUSH2 0xAC0 PUSH2 0xABB DUP5 PUSH2 0xA70 JUMP JUMPDEST PUSH2 0xA56 JUMP JUMPDEST SWAP1 POP DUP3 DUP2 MSTORE PUSH1 0x20 DUP2 ADD DUP5 DUP5 DUP5 ADD GT ISZERO PUSH2 0xADC JUMPI PUSH2 0xADB PUSH2 0x9E4 JUMP JUMPDEST JUMPDEST PUSH2 0xAE7 DUP5 DUP3 DUP6 PUSH2 0xAA0 JUMP JUMPDEST POP SWAP4 SWAP3 POP POP POP JUMP JUMPDEST PUSH0 DUP3 PUSH1 0x1F DUP4 ADD SLT PUSH2 0xB03 JUMPI PUSH2 0xB02 PUSH2 0x9E0 JUMP JUMPDEST JUMPDEST DUP2 CALLDATALOAD PUSH2 0xB13 DUP5 DUP3 PUSH1 0x20 DUP7 ADD PUSH2 0xAAE JUMP JUMPDEST SWAP2 POP POP SWAP3 SWAP2 POP POP JUMP JUMPDEST PUSH0 DUP2 SWAP1 POP SWAP2 SWAP1 POP JUMP JUMPDEST PUSH2 0xB2E DUP2 PUSH2 0xB1C JUMP JUMPDEST DUP2 EQ PUSH2 0xB38 JUMPI PUSH0 DUP1 REVERT JUMPDEST POP JUMP JUMPDEST PUSH0 DUP2 CALLDATALOAD SWAP1 POP PUSH2 0xB49 DUP2 PUSH2 0xB25 JUMP JUMPDEST SWAP3 SWAP2 POP POP JUMP JUMPDEST PUSH0 DUP1 PUSH0 PUSH1 0x60 DUP5 DUP7 SUB SLT ISZERO PUSH2 0xB66 JUMPI PUSH2 0xB65 PUSH2 0x9D8 JUMP JUMPDEST JUMPDEST PUSH0 DUP5 ADD CALLDATALOAD PUSH8 0xFFFFFFFFFFFFFFFF DUP2 GT ISZERO PUSH2 0xB83 JUMPI PUSH2 0xB82 PUSH2 0x9DC JUMP JUMPDEST JUMPDEST PUSH2 0xB8F DUP7 DUP3 DUP8 ADD PUSH2 0xAEF JUMP JUMPDEST SWAP4 POP POP PUSH1 0x20 PUSH2 0xBA0 DUP7 DUP3 DUP8 ADD PUSH2 0xB3B JUMP JUMPDEST SWAP3 POP POP PUSH1 0x40 PUSH2 0xBB1 DUP7 DUP3 DUP8 ADD PUSH2 0xB3B JUMP JUMPDEST SWAP2 POP POP SWAP3 POP SWAP3 POP SWAP3 JUMP JUMPDEST PUSH0 DUP1 PUSH1 0x40 DUP4 DUP6 SUB SLT ISZERO PUSH2 0xBD1 JUMPI PUSH2 0xBD0 PUSH2 0x9D8 JUMP JUMPDEST JUMPDEST PUSH0 PUSH2 0xBDE DUP6 DUP3 DUP7 ADD PUSH2 0xB3B JUMP JUMPDEST SWAP3 POP POP PUSH1 0x20 PUSH2 0xBEF DUP6 DUP3 DUP7 ADD PUSH2 0xB3B JUMP JUMPDEST SWAP2 POP POP SWAP3 POP SWAP3 SWAP1 POP JUMP JUMPDEST PUSH0 PUSH1 0x20 DUP3 DUP5 SUB SLT ISZERO PUSH2 0xC0E JUMPI PUSH2 0xC0D PUSH2 0x9D8 JUMP JUMPDEST JUMPDEST PUSH0 PUSH2 0xC1B DUP5 DUP3 DUP6 ADD PUSH2 0xB3B JUMP JUMPDEST SWAP2 POP POP SWAP3 SWAP2 POP POP JUMP JUMPDEST PUSH0 DUP2 MLOAD SWAP1 POP SWAP2 SWAP1 POP JUMP JUMPDEST PUSH0 DUP3 DUP3 MSTORE PUSH1 0x20 DUP3 ADD SWAP1 POP SWAP3 SWAP2 POP POP JUMP JUMPDEST DUP3 DUP2 DUP4 MCOPY PUSH0 DUP4 DUP4 ADD MSTORE POP POP POP JUMP JUMPDEST PUSH0 PUSH2 0xC56 DUP3 PUSH2 0xC24 JUMP JUMPDEST PUSH2 0xC60 DUP2 DUP6 PUSH2 0xC2E JUMP JUMPDEST SWAP4 POP PUSH2 0xC70 DUP2 DUP6 PUSH1 0x20 DUP7 ADD PUSH2 0xC3E JUMP JUMPDEST PUSH2 0xC79 DUP2 PUSH2 0x9E8 JUMP JUMPDEST DUP5 ADD SWAP2 POP POP SWAP3 SWAP2 POP POP JUMP JUMPDEST PUSH2 0xC8D DUP2 PUSH2 0xB1C JUMP JUMPDEST DUP3 MSTORE POP POP JUMP JUMPDEST PUSH0 PUSH1 0x80 DUP3 ADD SWAP1 POP DUP2 DUP2 SUB PUSH0 DUP4 ADD MSTORE PUSH2 0xCAB DUP2 DUP8 PUSH2 0xC4C JUMP JUMPDEST SWAP1 POP PUSH2 0xCBA PUSH1 0x20 DUP4 ADD DUP7 PUSH2 0xC84 JUMP JUMPDEST PUSH2 0xCC7 PUSH1 0x40 DUP4 ADD DUP6 PUSH2 0xC84 JUMP JUMPDEST PUSH2 0xCD4 PUSH1 0x60 DUP4 ADD DUP5 PUSH2 0xC84 JUMP JUMPDEST SWAP6 SWAP5 POP POP POP POP POP JUMP JUMPDEST PUSH0 PUSH1 0x60 DUP3 ADD SWAP1 POP DUP2 DUP2 SUB PUSH0 DUP4 ADD MSTORE PUSH2 0xCF5 DUP2 DUP7 PUSH2 0xC4C JUMP JUMPDEST SWAP1 POP PUSH2 0xD04 PUSH1 0x20 DUP4 ADD DUP6 PUSH2 0xC84 JUMP JUMPDEST PUSH2 0xD11 PUSH1 0x40 DUP4 ADD DUP5 PUSH2 0xC84 JUMP JUMPDEST SWAP5 SWAP4 POP POP POP POP JUMP JUMPDEST PUSH0 PUSH1 0x20 DUP3 ADD SWAP1 POP PUSH2 0xD2C PUSH0 DUP4 ADD DUP5 PUSH2 0xC84 JUMP JUMPDEST SWAP3 SWAP2 POP POP JUMP JUMPDEST PUSH0 PUSH20 0xFFFFFFFFFFFFFFFFFFFFFFFFFFFFFFFFFFFFFFFF DUP3 AND SWAP1 POP SWAP2 SWAP1 POP JUMP JUMPDEST PUSH0 PUSH2 0xD5B DUP3 PUSH2 0xD32 JUMP JUMPDEST SWAP1 POP SWAP2 SWAP1 POP JUMP JUMPDEST PUSH2 0xD6B DUP2 PUSH2 0xD51 JUMP JUMPDEST DUP3 MSTORE POP POP JUMP JUMPDEST PUSH0 PUSH1 0x20 DUP3 ADD SWAP1 POP PUSH2 0xD84 PUSH0 DUP4 ADD DUP5 PUSH2 0xD62 JUMP JUMPDEST SWAP3 SWAP2 POP POP JUMP JUMPDEST PUSH32 0x4F6E6C7920746865206F776E65722063616E20706572666F726D207468697320 PUSH0 DUP3 ADD MSTORE PUSH32 0x616374696F6E2E00000000000000000000000000000000000000000000000000 PUSH1 0x20 DUP3 ADD MSTORE POP JUMP JUMPDEST PUSH0 PUSH2 0xDE4 PUSH1 0x27 DUP4 PUSH2 0xC2E JUMP JUMPDEST SWAP2 POP PUSH2 0xDEF DUP3 PUSH2 0xD8A JUMP JUMPDEST PUSH1 0x40 DUP3 ADD SWAP1 POP SWAP2 SWAP1 POP JUMP JUMPDEST PUSH0 PUSH1 0x20 DUP3 ADD SWAP1 POP DUP2 DUP2 SUB PUSH0 DUP4 ADD MSTORE PUSH2 0xE11 DUP2 PUSH2 0xDD8 JUMP JUMPDEST SWAP1 POP SWAP2 SWAP1 POP JUMP JUMPDEST PUSH32 0x4E487B7100000000000000000000000000000000000000000000000000000000 PUSH0 MSTORE PUSH1 0x22 PUSH1 0x4 MSTORE PUSH1 0x24 PUSH0 REVERT JUMPDEST PUSH0 PUSH1 0x2 DUP3 DIV SWAP1 POP PUSH1 0x1 DUP3 AND DUP1 PUSH2 0xE5C JUMPI PUSH1 0x7F DUP3 AND SWAP2 POP JUMPDEST PUSH1 0x20 DUP3 LT DUP2 SUB PUSH2 0xE6F JUMPI PUSH2 0xE6E PUSH2 0xE18 JUMP JUMPDEST JUMPDEST POP SWAP2 SWAP1 POP JUMP JUMPDEST PUSH0 DUP2 SWAP1 POP DUP2 PUSH0 MSTORE PUSH1 0x20 PUSH0 KECCAK256 SWAP1 POP SWAP2 SWAP1 POP JUMP JUMPDEST PUSH0 PUSH1 0x20 PUSH1 0x1F DUP4 ADD DIV SWAP1 POP SWAP2 SWAP1 POP JUMP JUMPDEST PUSH0 DUP3 DUP3 SHL SWAP1 POP SWAP3 SWAP2 POP POP JUMP JUMPDEST PUSH0 PUSH1 0x8 DUP4 MUL PUSH2 0xED1 PUSH32 0xFFFFFFFFFFFFFFFFFFFFFFFFFFFFFFFFFFFFFFFFFFFFFFFFFFFFFFFFFFFFFFFF DUP3 PUSH2 0xE96 JUMP JUMPDEST PUSH2 0xEDB DUP7 DUP4 PUSH2 0xE96 JUMP JUMPDEST SWAP6 POP DUP1 NOT DUP5 AND SWAP4 POP DUP1 DUP7 AND DUP5 OR SWAP3 POP POP POP SWAP4 SWAP3 POP POP POP JUMP JUMPDEST PUSH0 DUP2 SWAP1 POP SWAP2 SWAP1 POP JUMP JUMPDEST PUSH0 PUSH2 0xF16 PUSH2 0xF11 PUSH2 0xF0C DUP5 PUSH2 0xB1C JUMP JUMPDEST PUSH2 0xEF3 JUMP JUMPDEST PUSH2 0xB1C JUMP JUMPDEST SWAP1 POP SWAP2 SWAP1 POP JUMP JUMPDEST PUSH0 DUP2 SWAP1 POP SWAP2 SWAP1 POP JUMP JUMPDEST PUSH2 0xF2F DUP4 PUSH2 0xEFC JUMP JUMPDEST PUSH2 0xF43 PUSH2 0xF3B DUP3 PUSH2 0xF1D JUMP JUMPDEST DUP5 DUP5 SLOAD PUSH2 0xEA2 JUMP JUMPDEST DUP3 SSTORE POP POP POP POP JUMP JUMPDEST PUSH0 SWAP1 JUMP JUMPDEST PUSH2 0xF57 PUSH2 0xF4B JUMP JUMPDEST PUSH2 0xF62 DUP2 DUP5 DUP5 PUSH2 0xF26 JUMP JUMPDEST POP POP POP JUMP JUMPDEST JUMPDEST DUP2 DUP2 LT ISZERO PUSH2 0xF85 JUMPI PUSH2 0xF7A PUSH0 DUP3 PUSH2 0xF4F JUMP JUMPDEST PUSH1 0x1 DUP2 ADD SWAP1 POP PUSH2 0xF68 JUMP JUMPDEST POP POP JUMP JUMPDEST PUSH1 0x1F DUP3 GT ISZERO PUSH2 0xFCA JUMPI PUSH2 0xF9B DUP2 PUSH2 0xE75 JUMP JUMPDEST PUSH2 0xFA4 DUP5 PUSH2 0xE87 JUMP JUMPDEST DUP2 ADD PUSH1 0x20 DUP6 LT ISZERO PUSH2 0xFB3 JUMPI DUP2 SWAP1 POP JUMPDEST PUSH2 0xFC7 PUSH2 0xFBF DUP6 PUSH2 0xE87 JUMP JUMPDEST DUP4 ADD DUP3 PUSH2 0xF67 JUMP JUMPDEST POP POP JUMPDEST POP POP POP JUMP JUMPDEST PUSH0 DUP3 DUP3 SHR SWAP1 POP SWAP3 SWAP2 POP POP JUMP JUMPDEST PUSH0 PUSH2 0xFEA PUSH0 NOT DUP5 PUSH1 0x8 MUL PUSH2 0xFCF JUMP JUMPDEST NOT DUP1 DUP4 AND SWAP2 POP POP SWAP3 SWAP2 POP POP JUMP JUMPDEST PUSH0 PUSH2 0x1002 DUP4 DUP4 PUSH2 0xFDB JUMP JUMPDEST SWAP2 POP DUP3 PUSH1 0x2 MUL DUP3 OR SWAP1 POP SWAP3 SWAP2 POP POP JUMP JUMPDEST PUSH2 0x101B DUP3 PUSH2 0xC24 JUMP JUMPDEST PUSH8 0xFFFFFFFFFFFFFFFF DUP2 GT ISZERO PUSH2 0x1034 JUMPI PUSH2 0x1033 PUSH2 0x9F8 JUMP JUMPDEST JUMPDEST PUSH2 0x103E DUP3 SLOAD PUSH2 0xE45 JUMP JUMPDEST PUSH2 0x1049 DUP3 DUP3 DUP6 PUSH2 0xF89 JUMP JUMPDEST PUSH0 PUSH1 0x20 SWAP1 POP PUSH1 0x1F DUP4 GT PUSH1 0x1 DUP2 EQ PUSH2 0x107A JUMPI PUSH0 DUP5 ISZERO PUSH2 0x1068 JUMPI DUP3 DUP8 ADD MLOAD SWAP1 POP JUMPDEST PUSH2 0x1072 DUP6 DUP3 PUSH2 0xFF7 JUMP JUMPDEST DUP7 SSTORE POP PUSH2 0x10D9 JUMP JUMPDEST PUSH1 0x1F NOT DUP5 AND PUSH2 0x1088 DUP7 PUSH2 0xE75 JUMP JUMPDEST PUSH0 JUMPDEST DUP3 DUP2 LT ISZERO PUSH2 0x10AF JUMPI DUP5 DUP10 ADD MLOAD DUP3 SSTORE PUSH1 0x1 DUP3 ADD SWAP2 POP PUSH1 0x20 DUP6 ADD SWAP5 POP PUSH1 0x20 DUP2 ADD SWAP1 POP PUSH2 0x108A JUMP JUMPDEST DUP7 DUP4 LT ISZERO PUSH2 0x10CC JUMPI DUP5 DUP10 ADD MLOAD PUSH2 0x10C8 PUSH1 0x1F DUP10 AND DUP3 PUSH2 0xFDB JUMP JUMPDEST DUP4 SSTORE POP JUMPDEST PUSH1 0x1 PUSH1 0x2 DUP9 MUL ADD DUP9 SSTORE POP POP POP JUMPDEST POP POP POP POP POP POP JUMP JUMPDEST PUSH0 PUSH1 0x80 DUP3 ADD SWAP1 POP PUSH2 0x10F4 PUSH0 DUP4 ADD DUP8 PUSH2 0xC84 JUMP JUMPDEST DUP2 DUP2 SUB PUSH1 0x20 DUP4 ADD MSTORE PUSH2 0x1106 DUP2 DUP7 PUSH2 0xC4C JUMP JUMPDEST SWAP1 POP PUSH2 0x1115 PUSH1 0x40 DUP4 ADD DUP6 PUSH2 0xC84 JUMP JUMPDEST PUSH2 0x1122 PUSH1 0x60 DUP4 ADD DUP5 PUSH2 0xC84 JUMP JUMPDEST SWAP6 SWAP5 POP POP POP POP POP JUMP JUMPDEST PUSH32 0x4E487B7100000000000000000000000000000000000000000000000000000000 PUSH0 MSTORE PUSH1 0x11 PUSH1 0x4 MSTORE PUSH1 0x24 PUSH0 REVERT JUMPDEST PUSH0 PUSH2 0x1162 DUP3 PUSH2 0xB1C JUMP JUMPDEST SWAP2 POP PUSH32 0xFFFFFFFFFFFFFFFFFFFFFFFFFFFFFFFFFFFFFFFFFFFFFFFFFFFFFFFFFFFFFFFF DUP3 SUB PUSH2 0x1194 JUMPI PUSH2 0x1193 PUSH2 0x112B JUMP JUMPDEST JUMPDEST PUSH1 0x1 DUP3 ADD SWAP1 POP SWAP2 SWAP1 POP JUMP JUMPDEST PUSH32 0x496E76616C696420666C696768742049442E0000000000000000000000000000 PUSH0 DUP3 ADD MSTORE POP JUMP JUMPDEST PUSH0 PUSH2 0x11D3 PUSH1 0x12 DUP4 PUSH2 0xC2E JUMP JUMPDEST SWAP2 POP PUSH2 0x11DE DUP3 PUSH2 0x119F JUMP JUMPDEST PUSH1 0x20 DUP3 ADD SWAP1 POP SWAP2 SWAP1 POP JUMP JUMPDEST PUSH0 PUSH1 0x20 DUP3 ADD SWAP1 POP DUP2 DUP2 SUB PUSH0 DUP4 ADD MSTORE PUSH2 0x1200 DUP2 PUSH2 0x11C7 JUMP JUMPDEST SWAP1 POP SWAP2 SWAP1 POP JUMP JUMPDEST PUSH0 PUSH2 0x1211 DUP3 PUSH2 0xB1C JUMP JUMPDEST SWAP2 POP PUSH2 0x121C DUP4 PUSH2 0xB1C JUMP JUMPDEST SWAP3 POP DUP3 DUP3 MUL PUSH2 0x122A DUP2 PUSH2 0xB1C JUMP JUMPDEST SWAP2 POP DUP3 DUP3 DIV DUP5 EQ DUP4 ISZERO OR PUSH2 0x1241 JUMPI PUSH2 0x1240 PUSH2 0x112B JUMP JUMPDEST JUMPDEST POP SWAP3 SWAP2 POP POP JUMP JUMPDEST PUSH0 PUSH2 0x1252 DUP3 PUSH2 0xB1C JUMP JUMPDEST SWAP2 POP PUSH2 0x125D DUP4 PUSH2 0xB1C JUMP JUMPDEST SWAP3 POP DUP3 DUP3 ADD SWAP1 POP DUP1 DUP3 GT ISZERO PUSH2 0x1275 JUMPI PUSH2 0x1274 PUSH2 0x112B JUMP JUMPDEST JUMPDEST SWAP3 SWAP2 POP POP JUMP JUMPDEST PUSH32 0x4E6F7420656E6F75676820617661696C61626C652073656174732E0000000000 PUSH0 DUP3 ADD MSTORE POP JUMP JUMPDEST PUSH0 PUSH2 0x12AF PUSH1 0x1B DUP4 PUSH2 0xC2E JUMP JUMPDEST SWAP2 POP PUSH2 0x12BA DUP3 PUSH2 0x127B JUMP JUMPDEST PUSH1 0x20 DUP3 ADD SWAP1 POP SWAP2 SWAP1 POP JUMP JUMPDEST PUSH0 PUSH1 0x20 DUP3 ADD SWAP1 POP DUP2 DUP2 SUB PUSH0 DUP4 ADD MSTORE PUSH2 0x12DC DUP2 PUSH2 0x12A3 JUMP JUMPDEST SWAP1 POP SWAP2 SWAP1 POP JUMP JUMPDEST PUSH32 0x496E636F7272656374207061796D656E7420616D6F756E742E00000000000000 PUSH0 DUP3 ADD MSTORE POP JUMP JUMPDEST PUSH0 PUSH2 0x1317 PUSH1 0x19 DUP4 PUSH2 0xC2E JUMP JUMPDEST SWAP2 POP PUSH2 0x1322 DUP3 PUSH2 0x12E3 JUMP JUMPDEST PUSH1 0x20 DUP3 ADD SWAP1 POP SWAP2 SWAP1 POP JUMP JUMPDEST PUSH0 PUSH1 0x20 DUP3 ADD SWAP1 POP DUP2 DUP2 SUB PUSH0 DUP4 ADD MSTORE PUSH2 0x1344 DUP2 PUSH2 0x130B JUMP JUMPDEST SWAP1 POP SWAP2 SWAP1 POP JUMP JUMPDEST PUSH0 PUSH1 0x80 DUP3 ADD SWAP1 POP PUSH2 0x135E PUSH0 DUP4 ADD DUP8 PUSH2 0xD62 JUMP JUMPDEST PUSH2 0x136B PUSH1 0x20 DUP4 ADD DUP7 PUSH2 0xC84 JUMP JUMPDEST PUSH2 0x1378 PUSH1 0x40 DUP4 ADD DUP6 PUSH2 0xC84 JUMP JUMPDEST PUSH2 0x1385 PUSH1 0x60 DUP4 ADD DUP5 PUSH2 0xC84 JUMP JUMPDEST SWAP6 SWAP5 POP POP POP POP POP JUMP JUMPDEST PUSH0 PUSH1 0x40 DUP3 ADD SWAP1 POP PUSH2 0x13A1 PUSH0 DUP4 ADD DUP6 PUSH2 0xD62 JUMP JUMPDEST PUSH2 0x13AE PUSH1 0x20 DUP4 ADD DUP5 PUSH2 0xC84 JUMP JUMPDEST SWAP4 SWAP3 POP POP POP JUMP JUMPDEST PUSH0 PUSH2 0x13BF DUP3 PUSH2 0xB1C JUMP JUMPDEST SWAP2 POP PUSH2 0x13CA DUP4 PUSH2 0xB1C JUMP JUMPDEST SWAP3 POP DUP3 DUP3 SUB SWAP1 POP DUP2 DUP2 GT ISZERO PUSH2 0x13E2 JUMPI PUSH2 0x13E1 PUSH2 0x112B JUMP JUMPDEST JUMPDEST SWAP3 SWAP2 POP POP JUMP JUMPDEST PUSH32 0x4E6F7420656E6F75676820736561747320626F6F6B65642E0000000000000000 PUSH0 DUP3 ADD MSTORE POP JUMP JUMPDEST PUSH0 PUSH2 0x141C PUSH1 0x18 DUP4 PUSH2 0xC2E JUMP JUMPDEST SWAP2 POP PUSH2 0x1427 DUP3 PUSH2 0x13E8 JUMP JUMPDEST PUSH1 0x20 DUP3 ADD SWAP1 POP SWAP2 SWAP1 POP JUMP JUMPDEST PUSH0 PUSH1 0x20 DUP3 ADD SWAP1 POP DUP2 DUP2 SUB PUSH0 DUP4 ADD MSTORE PUSH2 0x1449 DUP2 PUSH2 0x1410 JUMP JUMPDEST SWAP1 POP SWAP2 SWAP1 POP JUMP JUMPDEST PUSH32 0x4E6F7420656E6F7567682062616C616E636520696E20636F6E74726163742074 PUSH0 DUP3 ADD MSTORE PUSH32 0x6F20726566756E642E0000000000000000000000000000000000000000000000 PUSH1 0x20 DUP3 ADD MSTORE POP JUMP JUMPDEST PUSH0 PUSH2 0x14AA PUSH1 0x29 DUP4 PUSH2 0xC2E JUMP JUMPDEST SWAP2 POP PUSH2 0x14B5 DUP3 PUSH2 0x1450 JUMP JUMPDEST PUSH1 0x40 DUP3 ADD SWAP1 POP SWAP2 SWAP1 POP JUMP JUMPDEST PUSH0 PUSH1 0x20 DUP3 ADD SWAP1 POP DUP2 DUP2 SUB PUSH0 DUP4 ADD MSTORE PUSH2 0x14D7 DUP2 PUSH2 0x149E JUMP JUMPDEST SWAP1 POP SWAP2 SWAP1 POP JUMP JUMPDEST PUSH0 PUSH1 0x60 DUP3 ADD SWAP1 POP PUSH2 0x14F1 PUSH0 DUP4 ADD DUP7 PUSH2 0xD62 JUMP JUMPDEST PUSH2 0x14FE PUSH1 0x20 DUP4 ADD DUP6 PUSH2 0xC84 JUMP JUMPDEST PUSH2 0x150B PUSH1 0x40 DUP4 ADD DUP5 PUSH2 0xC84 JUMP JUMPDEST SWAP5 SWAP4 POP POP POP POP JUMP INVALID LOG2 PUSH5 0x6970667358 0x22 SLT KECCAK256 PUSH2 0x66BE 0xD3 0xCB SDIV MOD SHR 0xDB GASPRICE XOR 0xD5 ADDRESS JUMPDEST STOP 0xE2 PUSH21 0xAFAF219F0AF102ADB45CBBF8E0E6B664736F6C6343 STOP ADDMOD BYTE STOP CALLER "
		},
		"gasEstimates": {
			"creation": {
				"codeDepositCost": "1089800",
				"executionCost": "25397",
				"totalCost": "1115197"
			},
			"external": {
				"addFlight(string,uint256,uint256)": "infinite",
				"bookFlight(uint256,uint256)": "infinite",
				"cancelBooking(uint256,uint256)": "infinite",
				"flightCount()": "2425",
				"flights(uint256)": "infinite",
				"getFlightDetails(uint256)": "infinite",
				"owner()": "2571",
				"ownerBalance()": "2513",
				"withdrawBalance()": "infinite"
			}
		},
		"methodIdentifiers": {
			"addFlight(string,uint256,uint256)": "0b7569f1",
			"bookFlight(uint256,uint256)": "139e92eb",
			"cancelBooking(uint256,uint256)": "32229205",
			"flightCount()": "1bc09567",
			"flights(uint256)": "15ccf70f",
			"getFlightDetails(uint256)": "18535008",
			"owner()": "8da5cb5b",
			"ownerBalance()": "bedcf003",
			"withdrawBalance()": "5fd8c710"
		}
	},
	"abi": [
		{
			"inputs": [],
			"stateMutability": "nonpayable",
			"type": "constructor"
		},
		{
			"anonymous": false,
			"inputs": [
				{
					"indexed": false,
					"internalType": "uint256",
					"name": "flightId",
					"type": "uint256"
				},
				{
					"indexed": false,
					"internalType": "string",
					"name": "destination",
					"type": "string"
				},
				{
					"indexed": false,
					"internalType": "uint256",
					"name": "price",
					"type": "uint256"
				},
				{
					"indexed": false,
					"internalType": "uint256",
					"name": "totalSeats",
					"type": "uint256"
				}
			],
			"name": "FlightAdded",
			"type": "event"
		},
		{
			"anonymous": false,
			"inputs": [
				{
					"indexed": false,
					"internalType": "address",
					"name": "customer",
					"type": "address"
				},
				{
					"indexed": false,
					"internalType": "uint256",
					"name": "flightId",
					"type": "uint256"
				},
				{
					"indexed": false,
					"internalType": "uint256",
					"name": "numberOfSeats",
					"type": "uint256"
				},
				{
					"indexed": false,
					"internalType": "uint256",
					"name": "totalCost",
					"type": "uint256"
				}
			],
			"name": "FlightBooked",
			"type": "event"
		},
		{
			"anonymous": false,
			"inputs": [
				{
					"indexed": false,
					"internalType": "address",
					"name": "customer",
					"type": "address"
				},
				{
					"indexed": false,
					"internalType": "uint256",
					"name": "flightId",
					"type": "uint256"
				},
				{
					"indexed": false,
					"internalType": "uint256",
					"name": "refundedAmount",
					"type": "uint256"
				}
			],
			"name": "FlightCancelled",
			"type": "event"
		},
		{
			"anonymous": false,
			"inputs": [
				{
					"indexed": false,
					"internalType": "address",
					"name": "customer",
					"type": "address"
				},
				{
					"indexed": false,
					"internalType": "uint256",
					"name": "amount",
					"type": "uint256"
				}
			],
			"name": "PaymentReceived",
			"type": "event"
		},
		{
			"inputs": [
				{
					"internalType": "string",
					"name": "_destination",
					"type": "string"
				},
				{
					"internalType": "uint256",
					"name": "_price",
					"type": "uint256"
				},
				{
					"internalType": "uint256",
					"name": "_totalSeats",
					"type": "uint256"
				}
			],
			"name": "addFlight",
			"outputs": [],
			"stateMutability": "nonpayable",
			"type": "function"
		},
		{
			"inputs": [
				{
					"internalType": "uint256",
					"name": "_flightId",
					"type": "uint256"
				},
				{
					"internalType": "uint256",
					"name": "_numberOfSeats",
					"type": "uint256"
				}
			],
			"name": "bookFlight",
			"outputs": [],
			"stateMutability": "payable",
			"type": "function"
		},
		{
			"inputs": [
				{
					"internalType": "uint256",
					"name": "_flightId",
					"type": "uint256"
				},
				{
					"internalType": "uint256",
					"name": "_numberOfSeats",
					"type": "uint256"
				}
			],
			"name": "cancelBooking",
			"outputs": [],
			"stateMutability": "payable",
			"type": "function"
		},
		{
			"inputs": [],
			"name": "flightCount",
			"outputs": [
				{
					"internalType": "uint256",
					"name": "",
					"type": "uint256"
				}
			],
			"stateMutability": "view",
			"type": "function"
		},
		{
			"inputs": [
				{
					"internalType": "uint256",
					"name": "",
					"type": "uint256"
				}
			],
			"name": "flights",
			"outputs": [
				{
					"internalType": "string",
					"name": "destination",
					"type": "string"
				},
				{
					"internalType": "uint256",
					"name": "price",
					"type": "uint256"
				},
				{
					"internalType": "uint256",
					"name": "totalSeats",
					"type": "uint256"
				},
				{
					"internalType": "uint256",
					"name": "bookedSeats",
					"type": "uint256"
				}
			],
			"stateMutability": "view",
			"type": "function"
		},
		{
			"inputs": [
				{
					"internalType": "uint256",
					"name": "_flightId",
					"type": "uint256"
				}
			],
			"name": "getFlightDetails",
			"outputs": [
				{
					"internalType": "string",
					"name": "destination",
					"type": "string"
				},
				{
					"internalType": "uint256",
					"name": "price",
					"type": "uint256"
				},
				{
					"internalType": "uint256",
					"name": "bookedSeatsAvailable",
					"type": "uint256"
				}
			],
			"stateMutability": "view",
			"type": "function"
		},
		{
			"inputs": [],
			"name": "owner",
			"outputs": [
				{
					"internalType": "address",
					"name": "",
					"type": "address"
				}
			],
			"stateMutability": "view",
			"type": "function"
		},
		{
			"inputs": [],
			"name": "ownerBalance",
			"outputs": [
				{
					"internalType": "uint256",
					"name": "",
					"type": "uint256"
				}
			],
			"stateMutability": "view",
			"type": "function"
		},
		{
			"inputs": [],
			"name": "withdrawBalance",
			"outputs": [],
			"stateMutability": "nonpayable",
			"type": "function"
		}
	]
}